:020000040800F2
:100000006820002065020008091C0008D51A0008B5
:10001000051C0008AF04000865220008000000006D
:10002000000000000000000000000000CD010008FA
:10003000B30400080000000011020008E91C0008D9
:100040007F0200087F0200087F0200087F0200088C
:100050007F0200087F0200087F0200087F0200087C
:100060007F0200087F0200087F0200087F0200086C
:100070007F0200087F0200087F0200087F0200085C
:100080007F0200087F0200087F0200087F0200084C
:100090007F0200087F0200087F0200087F0200083C
:1000A0007F0200087F0200087F0200087F0200082C
:1000B0007F0200087F0200087F0200087F0200081C
:1000C0007F0200087F0200087F0200087F0200080C
:1000D0007F020008552200087F0200087F02000806
:1000E0007F0200087F0200087F0200087F020008EC
:1000F0007F0200087F0200087F0200087F020008DC
:100100007F0200087F0200087F0200087F020008CB
:100110007F0200087F0200087F020008BD1D000862
:100120007F0200087F0200087F0200087F020008AB
:1001300000F002F800F03AF80AA090E8000C8244BF
:100140008344AAF10107DA4501D100F02FF8AFF29C
:10015000090EBAE80F0013F0010F18BFFB1A43F0A5
:10016000010318476044000080440000103A24BF97
:1001700078C878C1FAD8520724BF30C830C144BF0C
:1001800004680C607047000000230024002500264E
:10019000103A28BF78C1FBD8520728BF30C148BFEA
:1001A0000B6070471FB51FBD10B510BD00F045F9BD
:1001B0001146FFF7F7FF02F076F800F063F903B499
:1001C000FFF7F2FF03BC00F06BF90000224B196847
:1001D0000868B0E8F00F80F30988BFF36F8F4FF025
:1001E000000080F311884EF00D0E704700000000F3
:1001F00006480068006880F3088862B661B6BFF3FD
:100200004F8FBFF36F8F00DF00BF00BF08ED00E02E
:10021000EFF30980BFF36F8F0F4B1A6820E9F00FDF
:10022000106008B54FF0500080F31188BFF34F8F76
:10023000BFF36F8F03F0FAF94FF0000080F31188DD
:10024000BDE8084019680868B0E8F00F80F3098835
:10025000BFF36F8F704700BF24000020EFF30580CD
:10026000704700000948804709480047FEE7FEE75D
:10027000FEE7FEE7FEE7FEE7FEE7FEE7FEE7FEE756
:1002800004480549054A064B70470000651D0008F3
:1002900031010008681A002068200020681C002036
:1002A000681C0020032A40F2308010F0030C00F09C
:1002B000158011F8013BBCF1020F624498BF11F8A0
:1002C00001CB00F8013B38BF11F8013BA2F1040259
:1002D00098BF00F801CB38BF00F8013B11F00303D1
:1002E00000F05780083AC0F0088051F8043B083A03
:1002F00051F804CBA0E80810F5E7121D5CBF51F8D7
:10030000043B40F8043BAFF30080D20724BF11F850
:10031000013B11F801CB48BF11F8012B24BF00F8B5
:10032000013B00F801CB48BF00F8012B704702F0F9
:10033000FF0343EA032242EA024200F05EB84FF0B4
:10034000000200B5134694469646203922BFA0E825
:100350000C50A0E80C50B1F12001BFF4F7AF090731
:1003600028BFA0E80C5048BF0CC05DF804EB890022
:1003700028BF40F8042B08BF704748BF20F8022B65
:1003800011F0804F18BF00F8012B7047704770477D
:10039000704710B5203AC0F00B80B1E81850203AF1
:1003A000A0E81850B1E81850A0E81850BFF4F5AF15
:1003B0005FEA027C24BFB1E81850A0E8185044BF9F
:1003C00018C918C0BDE810405FEA827C24BF51F80C
:1003D000043B40F8043B08BF7047D20728BF31F800
:1003E000023B48BF11F8012B28BF20F8023B48BF51
:1003F00000F8012B70474FF000020429C0F0128072
:1004000010F0030C3FF49DAFCCF1040CBCF1020FD3
:1004100018BF00F8012BA8BF20F8022BA1EB0C019C
:10042000FFF78FBF5FEAC17C24BF00F8012B00F803
:10043000012B48BF00F8012B7047754600F02CF8DF
:10044000AE4605006946534620F00700854618B0C1
:1004500020B5FFF715FFBDE820404FF000064FF034
:1004600000074FF000084FF0000B21F00701AC46E9
:10047000ACE8C009ACE8C009ACE8C009ACE8C00908
:100480008D46704710B50446AFF300802046BDE8A6
:100490001040FFF794BE000000487047081A002083
:1004A00001491820ABBEFEE726000200704700BFDE
:1004B000FEE7704772B600BFFEE70146002291F8E2
:1004C0002100022808D00420886300BF002081F8A2
:1004D000200000BF012070470868006820F00E006F
:1004E0000B6818600868006820F001000B6818604D
:1004F00091F8403001209840CB6B5860012081F882
:10050000210000BF002081F8200000BF1046E2E774
:1005100070B50446002594F82100022803D0042079
:10052000A0630125C1E02068006820F00E0021686A
:1005300008602068006820F00100216808605C49BC
:100540002068884252D95A4978392068884201D1B6
:10055000012047E0564964392068884201D11020C3
:1005600040E0534950392068884201D1801539E074
:100570004F493C392068884201D1801432E04C490F
:1005800028392068884202D14FF480302AE0484957
:1005900014392068884202D14FF4801022E0444987
:1005A0002068884201D140041CE04249206888420A
:1005B00001D1012016E03F4914312068884201D161
:1005C00010200FE03B4928312068884201D1801576
:1005D00008E038493C312068884201D1801401E0AC
:1005E0004FF480303349091F086051E030497839B1
:1005F0002068884201D1012047E02D4964392068F4
:10060000884201D1102040E02949503920688842B1
:1006100001D1801539E026493C392068884201D152
:10062000801432E0224928392068884202D14FF4F0
:1006300080302AE01E4914392068884202D14FF4E4
:10064000801022E01A492068884201D140041CE051
:1006500018492068884201D1012016E0154914315B
:100660002068884201D110200FE01249283120680B
:10067000884201D1801508E00E493C31206888424B
:1006800001D1801401E04FF480300949803948607D
:10069000012084F8210000BF002084F8200000BF62
:1006A000606B10B12046616B8847284670BD000022
:1006B00080000240080402402DE9F847024600236A
:1006C0009C467BE14FF0010808FA03F4D1F8008062
:1006D00008EA0400A0427DD1DFF8F4A2D1F804803A
:1006E000A8EB0A09D0453AD014DCB8F1030F50D07A
:1006F00009DCB8F1000F31D0B8F1010F1CD0B8F10E
:10070000020F49D120E0B8F1110F18D0B8F1120F43
:1007100042D11EE0B9F5881F25D006DCB9F5803F2F
:1007200020D0B9F5801F37D11AE0B9F5001F18D0D5
:10073000B9F5041F30D117E0D1F80CC02DE0D1F885
:100740000C8008F1040C28E0D1F80C8008F1080CAA
:1007500023E0D1F80C8008F10C0C1EE000BF00BFB4
:1007600000BF00BF00BF00BFD1F80880B8F1000F84
:1007700002D14FF0040C0BE0D1F80880B8F1010F62
:1007800003D14FF0080C146102E04FF0080C5461E3
:1007900003E04FF0000C00E000BF00BFFF2801D8CD
:1007A000904601E002F104084646FF2802D84FEACD
:1007B000830803E0A3F108084FEA88084746D6F803
:1007C00000804FF00F0909FA07F928EA09080CFA26
:1007D00007F900E07AE048EA0908C6F80080D1F895
:1007E000048008F08058B8F1805F6FD100BFDFF857
:1007F000E481D8F8188048F00108DFF8D891C9F8EA
:100800001880C846D8F8188008F00108CDF8008094
:1008100000BF00BF4FEAB9384FEA930958F8295092
:100820004FEA83784FEA18794FF00F0808FA09F871
:1008300025EA0805DFF8A081424502D14FF0000803
:1008400024E0DFF89881424502D14FF001081DE015
:10085000DFF88C81424502D14FF0020816E0DFF844
:100860008481424502D14FF003080FE0DFF8788120
:10087000424502D14FF0040808E0DFF8708142459C
:1008800002D14FF0050801E04FF006084FEA8379E6
:100890004FEA197908FA09F848EA0505DFF85081A6
:1008A0004FEA930948F82950D1F8048008F48018D9
:1008B000B8F5801F0BD1DFF83C81D8F8008048EAFA
:1008C0000008DFF83091C9F800800AE075E0DFF831
:1008D0002481D8F8008028EA0008DFF81891C9F8C8
:1008E0000080D1F8048008F40018B8F5001F0ED17C
:1008F000DFF8008108F10408D8F8008048EA000811
:10090000DFF8F09009F10409C9F800800DE0DFF884
:10091000E48008F10408D8F8008028EA0008DFF82D
:10092000D49009F10409C9F80080D1F8048008F4D2
:100930000038B8F5003F0ED1DFF8B880A8F1040800
:10094000D8F8008048EA0008DFF8A890A9F1040967
:10095000C9F800800DE0DFF89C80A8F10408D8F801
:10096000008028EA0008DFF88C90A9F10409C9F892
:100970000080D1F8048008F48038B8F5803F0ED1AB
:10098000DFF87080A8F10808D8F8008048EA00086D
:10099000DFF86090A9F10809C9F800800DE0DFF8E0
:1009A0005480A8F10808D8F8008028EA0008DFF889
:1009B0004490A9F10809C9F800805B1CD1F80080B7
:1009C00028FA03F8B8F1000F7FF47CAEBDE8F88791
:1009D000000011100010024000080140000C01400E
:1009E000001001400014014000180140001C0140AB
:1009F000080001400804014010B5C26821EA020362
:100A000002EA010443EA0443036110BD0AB1016133
:100A100001E00B0403617047014800687047000063
:100A2000140000200348006803490978084401497C
:100A300008607047140000201C00002010B5084812
:100A4000006840F0100006490860032000F0E2F85A
:100A50000F2000F007F800F05FF8002010BD000044
:100A6000002002402DE9F04188B004460027B84636
:100A7000002600BF2348C06940F020002149C8611A
:100A80000846C06900F02000019000BF00BF02A925
:100A900003A800F099F9069F1FB900F0BDF90546BB
:100AA00002E000F0B9F945001748B5FBF0F0A0F1FD
:100AB000010816481649086040F2E7311448C16041
:100AC000C0F80480002101618160816100F030FC88
:100AD000064696B90E4800F05FFC06466EB9372010
:100AE00000F04AF8102C07D200222146372000F0EF
:100AF00053F80848046000E00126304608B0BDE81D
:100B0000F08100000010024040420F00001400403D
:100B1000EC0000201800002008B500BF14488069D0
:100B200040F00100124988610846806900F0010028
:100B3000009000BF00BF00BF0846C06940F0805071
:100B4000C8610846C06900F08050009000BF00BF37
:100B500000220F21901E00F01FF800BF05494868D1
:100B600020F0E06040F00070486000BF08BD000069
:100B7000001002400000014001460846002809DB41
:100B800000F01F0301229A4043099B0003F1E02378
:100B9000C3F8002100BF70472DE9F05F80460D4685
:100BA0001646002701F060FB074639462A463346C1
:100BB00001F00700C0F1070ABAF1040F02D94FF0A3
:100BC000040A01E0C0F1070AD14600F1040ABAF1B3
:100BD000070F02D24FF0000A01E0A0F1030AD44649
:100BE0004FF0010A0AFA09FAAAF1010A0AEA020A0E
:100BF0000AFA0CFA4FF0010B0BFA0CFBABF1010BEC
:100C00000BEA030B4AEA0B042146404601F034FB91
:100C1000BDE8F09F00BF00F00702064B19684FF6D1
:100C2000FF031940044B0B4343EA0221014B1960B7
:100C300000BF70470CED00E00000FA0570B50446F7
:100C40000D460CB9012070BD5A48006800F007003D
:100C5000A8420ED25748006820F0070028435549A3
:100C600008600846006800F00700A84201D0012093
:100C7000E9E7207800F0020002281DD1207800F07A
:100C80000400042805D14C48406840F4E0604A491B
:100C90004860207800F00800082805D146484068E0
:100CA00040F46050444948604348406820F0F000F8
:100CB000A168084340494860207800F0010078B3FB
:100CC0006068012806D13C48006800F4003090B903
:100CD0000120B8E76068022806D13748006800F0B4
:100CE000007040B90120AEE73348006800F0020010
:100CF00008B90120A7E73048406820F00300616888
:100D000008432D494860FFF787FE064609E0FFF7D4
:100D100083FE801B41F28831884202D9032092E78A
:100D200007E02548406800F00C006168B0EB810FD7
:100D3000EDD12048006800F00700A8420ED91D48F8
:100D4000006820F0070028431A4908600846006838
:100D500000F00700A84201D0012074E7207800F0DD
:100D60000400042807D11448406820F4E060E168DA
:100D7000084311494860207800F00800082808D18D
:100D80000D48406820F46050216940EAC1000A49DA
:100D9000486000F061F808494968C1F30311074A47
:100DA000515CC8400649086006480068FFF75AFED3
:100DB000002048E700200240001002408245000861
:100DC00020000020180000200F2202600D4A526807
:100DD00002F0030242600B4A526802F0F0028260A5
:100DE000084A526802F4E062C260064A526802F49D
:100DF0006052D2080261044A126802F007020A60D7
:100E000070470000001002400020024001480068C6
:100E1000704700002000002000B5FFF7F7FF0449ED
:100E20004968C1F30221034A515CC84000BD00007B
:100E3000001002409245000800B5FFF7E7FF0449A3
:100E40004968C1F3C221034A515CC84000BD00009B
:100E5000001002409245000870B5002100220024D5
:100E600000230020134D696801F00C05F5B1042D35
:100E700002D0082D19D101E00F4819E00F4DC1F340
:100E80008346AB5D01F4803555B10A4D6D68C5F3FD
:100E900040450B4E725D084D5D43B5FBF2F402E038
:100EA000084D03FB05F4204602E000BF024800BFE6
:100EB00000BF70BD0010024000127A0070450008AB
:100EC0008045000800093D00F8B504460CB9012032
:100ED000F8BD207800F00100002878D0F84840687C
:100EE00000F00C0004280CD0F548406800F00C001D
:100EF000082811D1F248406800F48030B0F5803FF6
:100F00000AD1EF48006800F4003000285FD0606824
:100F100000285CD10120DBE700BF6068B0F5803FAE
:100F200006D1E748006840F48030E549086028E0D1
:100F3000606858B9E248006820F48030E0490860F1
:100F40000846006820F4802008601AE06068B0F568
:100F5000A02F0BD1DA48006840F48020D8490860FF
:100F60000846006840F4803008600AE0D448006811
:100F700020F48030D24908600846006820F48020C0
:100F8000086000BF606888B1FFF746FD054606E0CF
:100F9000FFF742FD401B642801D9032098E7C848A9
:100FA000006800F400300028F2D010E0FFF734FDB4
:100FB000054606E0FFF730FD401B642801D90320F9
:100FC00086E7BF48006800F400300028F2D120789E
:100FD00000F00200022857D1B948406800F00C0028
:100FE00050B1B748406800F00C00082818D1B44848
:100FF000406800F4803098B9B148006800F0020001
:1010000020B12069012801D0012061E7AC480068C7
:1010100020F0F800616940EAC100A949086033E0A6
:101020002069E8B10120A7490860FFF7F5FC0546F3
:1010300006E0FFF7F1FC401B022801D9032047E737
:101040009F48006800F002000028F2D09C48006829
:1010500020F0F800616940EAC1009949086013E096
:10106000002098490860FFF7D7FC054606E0FFF727
:10107000D3FC401B022801D9032029E790480068CF
:1010800000F002000028F2D1207800F008000828C3
:101090002DD1A069B8B101208B490860FFF7BCFCD5
:1010A000054606E0FFF7B8FC401B022801D90320E3
:1010B0000EE78348406A00F002000028F2D00120C9
:1010C00000F0A4FD13E000207F490860FFF7A4FCB6
:1010D000054606E0FFF7A0FC401B022801D90320CB
:1010E000F6E67748406A00F002000028F2D1207846
:1010F00000F00400042873D100277148C06900F093
:10110000805070B900BF6E48C06940F080506C4993
:10111000C8610846C06900F08050009000BF00BF61
:1011200001276A48006800F48070B0B96748006819
:1011300040F4807065490860FFF76EFC054606E0E4
:10114000FFF76AFC401B642801D90320C0E65F4812
:10115000006800F480700028F2D000BFE068012829
:1011600006D15748006A40F001005549086227E05F
:10117000E06858B95248006A20F0010050490862FE
:101180000846006A20F00400086219E0E0680528BB
:101190000BD14B48006A40F00400494908620846F8
:1011A000006A40F0010008620AE04548006A20F049
:1011B0000100434908620846006A20F00400086202
:1011C00000BFE068A0B1FFF727FC054609E0FFF784
:1011D00023FC401B41F28831884202D9032077E684
:1011E00022E03748006A00F002000028EFD012E049
:1011F000FFF712FC054608E0FFF70EFC401B41F22A
:101200008831884201D9032062E62D48006A00F047
:1012100002000028F0D1012F05D12948C06920F033
:1012200080502749C86100BFE069C8B324484068BE
:1012300000F00C00082860D0E069022848D10020A6
:1012400020490866FFF7E8FB054606E0FFF7E4FBE8
:10125000401B022801D903203AE61948006800F033
:1012600000700028F2D1206AB0F5803F07D1144801
:10127000406820F40030A168084311494860D4E96F
:10128000080108430E49496821F4741108430C49C8
:10129000486001200B490866FFF7BEFB054607E0E2
:1012A0003DE0FFF7B9FB401B022801D903200FE600
:1012B0000348006800F000700028F2D02FE0000022
:1012C0000010024000004242800442420070004090
:1012D000002014490866FFF79FFB054606E0FFF76C
:1012E0009BFB401B022801D90320F1E50E48006852
:1012F00000F000700028F2D111E0E069012800D16F
:10130000E6E50948466806F48031206A814204D146
:1013100006F47011606A814201D00120D8E50020F6
:10132000D6E50000000042420010024070477047BE
:1013300010B504460CB9012010BD94F83D0028B941
:10134000002084F83C00204600F025F8022084F8B4
:101350003D00211D206800F039FD012084F8460081
:1013600000BF84F83E0001213F2001554020015577
:101370004120015500BF00BF012084F842004320F6
:101380000155442001554520015500BF012084F836
:101390003D000020D0E77047014691F83D0001284C
:1013A00001D001207047022081F83D000868C06824
:1013B00040F001000B68D860164B0868984213D0C3
:1013C000154B086898420FD00868B0F1804F0BD0D9
:1013D000124B0868984207D0114B0868984203D016
:1013E000104B086898420CD10868806800F007022A
:1013F000062A0CD00868006840F001000B681860ED
:1014000005E00868006840F001000B6818600020E3
:10141000C8E70000002C01400034014000040040F7
:1014200000080040000C0040704770B5044620687A
:10143000C5682068066906F00200022819D105F087
:101440000200022815D1401F216808610120207781
:101450002068806900F0030018B12046FFF7E4FF20
:1014600005E0204600F097F8204600F095F80020AF
:10147000207706F00400042819D105F004000428A0
:1014800015D1C04321680861022020772068806957
:1014900000F4407018B12046FFF7C6FF05E0204673
:1014A00000F079F8204600F077F80020207706F069
:1014B0000800082819D105F00800082815D1C043F4
:1014C00021680861042020772068C06900F00300CB
:1014D00018B12046FFF7A8FF05E0204600F05BF8B2
:1014E000204600F059F80020207706F01000102860
:1014F00019D105F01000102815D1C04321680861EA
:10150000082020772068C06900F4407018B1204698
:10151000FFF78AFF05E0204600F03DF8204600F086
:101520003BF80020207706F0010048B105F00100EB
:1015300030B16FF0010021680861204600F02EF8FC
:1015400006F08000802809D105F08000802805D1B0
:10155000C043216808612046FFF7E8FE06F040001E
:10156000402809D105F04000402805D1C04321683A
:101570000861204600F01EF806F02000202809D15E
:1015800005F02000202805D1C043216808612046CD
:10159000FFF7CDFE70BD70477047000010B50446E0
:1015A00003492068884201D1FFF73CFA10BD0000D2
:1015B0000014004070477047704700002DE9F84F55
:1015C0000446206805682068C668206847694FF0AF
:1015D0000009CA4605F00F09B9F1000F0AD105F05C
:1015E000200038B106F0200020B1204600F0A0FC19
:1015F000BDE8F88FB9F1000F7BD007F0010018B9F2
:1016000006F49070002874D005F0010030B106F4A3
:10161000807018B1606C40F00100606405F0040057
:1016200030B107F0010018B1606C40F00200606456
:1016300005F0020030B107F0010018B1606C40F015
:101640000400606405F0080048B106F0200010B9FD
:1016500007F0010018B1606C40F008006064606C35
:10166000002845D005F0200028B106F0200010B178
:10167000204600F05DFC20684069C0F3801A606C71
:1016800000F0080010B9BAF1000F2CD0204600F08D
:1016900009FC2068406900F0400000B300BF00BFB3
:1016A0002168143151E8001F21F0400021681431F5
:1016B00041E80002002AF3D100BFE06B50B1774847
:1016C000E16B4863E06BFEF723FF88B1E06B416B91
:1016D00088470DE02046FFF76FFF09E009E020464C
:1016E000FFF76AFF04E02046FFF766FF0020606412
:1016F0007EE7206B012877D105F01000002873D019
:1017000006F010000028FAD000BF002000902068EA
:101710000068009020684068009000BF00BF20680B
:10172000406900F0400000285FD0E06B006840682E
:101730001FFA80F8B8F1000F55D0A08D404552DD5A
:10174000A4F82E80E06B8069202843D000BF00BF42
:1017500021680C3151E8001F21F4807021680C31A0
:1017600041E80002002AF3D100BF00BF00BF21689A
:10177000143151E8001F21F001002168143141E8C3
:101780000002002AF3D100BF00BF00BF216814315E
:1017900051E8001F21F040002168143141E80002A7
:1017A000002AF3D100BF202084F8420000202063EB
:1017B00000BF00BF21680C3151E8001F21F010006C
:1017C00021680C3141E80002002AF3D100BFE06B30
:1017D000FEF773FE02206063A08DE28D801A81B255
:1017E0002046FFF7E8FE03E742E0A08DE18D401AB6
:1017F0001FFA80F8E08DD0B3B8F1000F37D000BFEA
:1018000000BF21680C3151E8001F21F4907021685D
:101810000C3141E80002002AF3D100BF00BF00BF35
:101820002168143151E8001F21F0010021681431B2
:1018300041E80002002AF3D100BF202084F84200D2
:101840000020206300BF00BF21680C3151E8001F59
:1018500021F0100021680C3141E80002002AF3D188
:1018600000BF0220606341462046FFF7A4FEBFE6AA
:1018700005F0800030B106F0800018B1204600F07D
:1018800073FCB5E605F0400030B106F0400018B139
:10189000204600F03DFBABE600BFA9E6911E000824
:1018A00010B504460CB9012010BDA06900B100E0DC
:1018B00000BF94F8410028B9002084F84000204679
:1018C00000F02AF8242084F841002068C06820F441
:1018D00000502168C860204600F0A8FB206800691D
:1018E00020F49040216808612068406920F02A00B7
:1018F000216848612068C06840F400502168C860D1
:1019000000206064202084F8410084F84200002018
:10191000606300BFC8E7000010B586B00446002031
:1019200002900390049005901E492068884236D1A9
:1019300000BF1D48806940F480401B49886108460B
:10194000806900F48040019000BF00BF00BF0846DE
:10195000806940F0040088610846806900F0040056
:10196000019000BF00BF48150290022003900320A1
:10197000059002A90D48FEF79FFE4FF4806002908B
:1019800000200390049002A90848FEF795FE00226B
:1019900005212520FFF700F92520FFF7EDF806B017
:1019A00010BD000000380140001002400008014056
:1019B00070B504460D46164694F8420020280BD117
:1019C00005B10EB9012070BD0020206332462946C2
:1019D000204600F0A9FBF6E70220F4E710B5044624
:1019E0000849206888420BD100231A460649074857
:1019F000006800F04BFD012203490548FFF7D8FFBE
:101A000010BD000000380140100000200C00002034
:101A1000A40000202DE9F84F04460E4617469946CB
:101A20004FF0000A94F84100202850D106B117B9B0
:101A30000120BDE8F88F00206064212084F8410077
:101A4000FEF7EAFF8246A784E784A068B0F5805FCE
:101A500004D1206910B90025B04602E035464FF0A8
:101A600000081EE05346002280212046CDF8009059
:101A700000F0AAFB20B1202084F841000320D8E721
:101A800045B9B8F80000C0F308002168486008F1C3
:101A9000020803E02878216848606D1CE08C401E35
:101AA000E084E08C0028DDD153460022402120460E
:101AB000CDF8009000F088FB20B1202084F8410090
:101AC0000320B6E7202084F841000020B1E702207F
:101AD000AFE7704700BFFEE710B50E4A0121802036
:101AE00000F086FC0C4908600C4A00210C4800F00C
:101AF0000FFD0C4908600C4A00210C4800F008FD5D
:101B00000B4908600B4A00210B4800F001FD0B490E
:101B1000086010BD584500080C000020EC44000887
:101B2000351C00080000002010450008411C00087A
:101B30000400002034450008591C0008080000205B
:101B400000B585B00020019002900390049000BF82
:101B50001B48806940F00400194988610846806983
:101B600000F00400009000BF00BF00BF084680697D
:101B700040F0080088610846806900F00800009085
:101B800000BF00BF002202210E48FEF73FFF0220E7
:101B9000019001200290002003900220049001A9EE
:101BA0000848FEF789FD02200190002002900120E4
:101BB000039001A90448FEF77FFD05B000BD0000B9
:101BC0000010024000080140000C014010B50B4815
:101BD0000B4908604FF4E1304860002108488160FB
:101BE000C16001610C21416100218161C161FFF788
:101BF00057FE08B1FEF75EFC10BD00000038014042
:101C0000A400002000BFFEE700BFFEE708B50849BA
:101C10000968C9084FF47A72B1FBF2F141430091AF
:101C200000BF00BF00994A1E00920029F9D108BDEB
:101C30002000002000BF012000F045FBFBE7000072
:101C400000BF02210348FEF7D7FE4FF4FA7000F000
:101C50003AFBF6E700080140A2B000F00DF90024BD
:101C600000BF4FF0FF33002221A91C48006800F09C
:101C70007FFB0028F5D19DF884000D2803D09DF846
:101C800084000A2811D1002CEBD0A2B24FF0FF3310
:101C900001A91348FFF7BEFE4FF0FF33022211A146
:101CA0000F48FFF7B7FE0024DBE77F2C06D29DF834
:101CB00084202046641C01A90A54D2E7A2B24FF046
:101CC000FF3301A90648FFF7A5FE4FF0FF330222BC
:101CD00004A10348FFF79EFE0024C2E70C00002089
:101CE000A40000200D0A000010B54FF0E0200069AC
:101CF00002F0A6F9012801D001F05CFD10BD00B58D
:101D00008FB0282105A8FEF71AFB14216846FEF7BC
:101D100016FB01200590000406900020079001208A
:101D2000099002200C90C1030D914FF4E0110E9127
:101D300005A8FFF7C9F808B1FEF7BCFB0F2000901B
:101D400002200190002002904FF480600390002058
:101D5000049002216846FEF771FF08B1FEF7AAFB66
:101D60000FB000BD1148006840F001000F49086045
:101D7000084640680E4908400C494860084600681B
:101D80000C490840094908600846006820F4802092
:101D900008600846406820F4FE0048604FF41F00C9
:101DA0008860C803044908607047000000100240C2
:101DB0000000FFF8FFFFF6FE08ED00E010B5024856
:101DC000FFF733FB10BD0000EC00002010B50268E7
:101DD000244B98420ED0244B98420BD0B0F1804F48
:101DE00008D0224B984205D0214B984202D0214B7B
:101DF000984203D122F070024B681A43194B984263
:101E00000ED0194B98420BD0B0F1804F08D0174B31
:101E1000984205D0164B984202D0164B984203D1F7
:101E200022F44072CB681A4322F080034C6943EAE3
:101E3000040202608B68C3620B688362094B98429C
:101E400002D0094B984201D10B690363012343611E
:101E5000036903F001031BB1036923F0010303616C
:101E600010BD0000002C014000340140000400407F
:101E700000080040000C004010B501220249034850
:101E8000FFF796FD10BD000010000020A400002008
:101E900070B505466C6A0020E085E0842046FFF7B7
:101EA0008BFB70BD00BF00BF02680C3252E8002FF0
:101EB00022F4907102680C3242E80013002BF3D137
:101EC00000BF00BF00BF0268143252E8002F22F0AA
:101ED00001010268143242E80013002BF3D100BF65
:101EE000016B01290ED100BF00BF02680C3252E81D
:101EF000002F22F0100102680C3242E80013002B80
:101F0000F3D100BF202180F8421000210163704707
:101F100010B504462068C06820F040002168C86001
:101F2000202084F841002046FFF7D3FD002010BD9B
:101F3000F8B5044694F84200222875D1A068B0F59F
:101F4000805F0CD1206950B90025A66A20684068DE
:101F5000C0F308003080A06A801CA06215E0A56A6A
:101F60000026A068B0F5805F03D0A06828B920697A
:101F700018B920684068287004E02068406800F0C4
:101F80007F002870A06A401CA062E08D401E80B2D5
:101F9000E085002846D12068C06820F02000216834
:101FA000C8602068C06820F480702168C86020681C
:101FB000406920F0010021684861202084F8420037
:101FC00000206063206B012826D10020206300BF21
:101FD00000BF21680C3151E8001F21F0100021687A
:101FE0000C3141E80002002AF3D100BF20680068EC
:101FF00000F0100010280AD100BF002000902068D7
:102000000068009020684068009000BF00BFA18D6C
:102010002046FFF7D0FA02E02046FFF7DFFC002061
:10202000F8BD01E00020FBE70220F9E770B50446A7
:102030002168096921F44051E26811432268116165
:102040002269A1681143626941EA02052168C968F1
:1020500041F20C62914329432268D16021684969A9
:1020600021F44071A2691143226851612D4A21680F
:10207000914202D1FEF7E0FE01E0FEF7CDFE00EB5B
:10208000C00101EB001162689200B1FBF2F100EBBC
:10209000C00202EB001263689B00B2FBF3F2642300
:1020A000B2FBF3F202EBC20303EB0212A1EB8201DB
:1020B000322202EB01116422B1FBF2F101F0F001D6
:1020C00000EBC00202EB001263689B00B2FBF3F26C
:1020D0006423B2FBF3F201EB021200EBC00101EB4F
:1020E000001163689B00B1FBF3F100EBC00303EB4D
:1020F00000136668B600B3FBF6F36426B3FBF6F391
:1021000003EBC30606EB0313A1EB8301322303EBBE
:1021100001116423B1FBF3F101F00F0111442268B6
:10212000916070BD0038014010B5034699629A85F0
:10213000DA8500205864222083F84200186928B10B
:102140001868C06840F480701C68E06018684069D6
:1021500040F001001C6860611868C06840F0200011
:102160001C68E060002010BD014691F84100212864
:1021700028D18868B0F5805F0BD1086948B90A6A30
:102180001088C0F308000B685860086A801C086259
:1021900005E00B6A581C086218780B685860C88CF8
:1021A000401E80B2C88458B90868C06820F080001A
:1021B0000B68D8600868C06840F040000B68D860C1
:1021C000002070470220FCE72DE9F84304460D4645
:1021D00017469846089E31E0701C70B3FEF71CFC51
:1021E000A0EB0800B04200D816B90320BDE8F88380
:1021F0002068C06800F00400F8B1802D1ED0402D8A
:102200001CD020680068C0F3C000B0B100BF00203F
:10221000009020680068009020684068009000BF2F
:1022200000BF2046FFF73EFE0820606400BF00208C
:1022300084F8400000BF0120D8E7FFE7206800686D
:102240002840A84201D1012000E00020B842C3D0BC
:102250000020CBE710B50248FFF7B0F910BD000031
:10226000A400002000BFFEE702480068C0F302207F
:10227000704700000CED00E010B5002804DB0A07F1
:10228000130E054A135406E00A07140E034A00F021
:102290000F031B1FD45410BD00E400E018ED00E054
:1022A000EFF305807047FEF7C9FBFFF728FDFFF746
:1022B00047FCFFF78BFC00F015F8FFF70DFC00F072
:1022C00027F800BFFEE770B50546FFF7E9FF10B13C
:1022D0006FF0050404E0002415B1284601F0C6F8AB
:1022E000204670BD10B5FFF7DBFF10B16FF005049D
:1022F00009E00648006820B901200449086000246C
:1023000001E04FF0FF34204610BD000074000020B3
:1023100070B5FFF7C5FF10B16FF005041FE011485D
:102320000068012819D100BF801F0021002804DBAC
:102330000A07130E0C4A135406E00A07150E0B4A3F
:1023400000F00F031B1FD55400BF00BF022005493A
:10235000086001F007F9002401E04FF0FF34204647
:1023600070BD00007400002000E400E018ED00E003
:102370002DE9F84307460D4691461C463E464FF070
:102380000008FFF78DFFE0B10EB105B114B16FF099
:10239000030828E0002000906A462946304601F0F4
:1023A00013FD012802D06FF002081CE00098D0B1A4
:1023B0004FF080500D490860BFF34F8FBFF36F8F10
:1023C00011E006B115B96FF003080CE0224629466A
:1023D000304601F045FC012805D014B16FF001082A
:1023E00001E06FF002084046BDE8F88304ED00E02C
:1023F0002DE9F84305460E4614464FF00009FFF755
:102400004FFF00283ED1002D3CD0002E3AD0471E71
:10241000BCB1A06858B1E068502808D3206930B139
:1024200005FB06F06169814201D301270AE0A0683B
:1024300040B9E06830B9206920B9606910B9002757
:1024400000E00027012F09D10020009031462846E6
:10245000A368226901F0F5F9814606E02FB9002250
:102460003146284601F0C0F98146B9F1000F09D084
:1024700014B1D4F8008001E04FF00008414648460E
:1024800000F0B8FF4846BDE8F88300002DE9F843A6
:1024900007460D4691461C463E464FF00008FFF7A2
:1024A000FFFEE8B10EB105B114B16FF003082AE0E8
:1024B0000020009000236A462946304601F052FB76
:1024C000012802D06FF002081DE00098D8B14FF04B
:1024D00080500E490860BFF34F8FBFF36F8F12E03B
:1024E00006B115B96FF003080DE000232246294616
:1024F000304601F063FA012805D014B16FF00108ED
:1025000001E06FF002084046BDE8F88304ED00E00A
:102510002DE9FF4780468946144600200390FFF7C7
:10252000BFFE00284ED1B8F1000F4BD080261825F1
:102530008246471E44B3206808B1D4F800A0A069C1
:1025400000B1A5692DB1382D03D8207900F0010024
:1025500018B1002004B0BDE8F087606908B1606977
:102560008608A06840B1E0685C2805D3206918B1EE
:10257000606908B1012708E0A06830B9E06820B9B7
:10258000206910B9002700E00027012F0CD1216934
:10259000A0684B463246CDE9005102905146404674
:1025A00001F0F0FC03900DE067B903A8B2B24B460E
:1025B0005146CDE90050404601F0B2FC012801D05F
:1025C000002003900398C5E72DE9F04105460E462B
:1025D0001648076816480068001D00F0BFFD681C1B
:1025E00038B936B112480168091D124800F00CFED6
:1025F0001AE07C190E4800684460BC4207D20C48BF
:102600000168091D0C48006800F0E4FD0CE0084872
:102610000168091D0948006800F0DCFD08480068F1
:10262000844201D206480460BDE8F08138000020F1
:1026300024000020240600202C0000202800002078
:102640005400002010B5044600F0EAFD244800685C
:10265000401C234908602348006840B921480460B1
:102660000846006801280DD100F0FCF90AE01E4878
:10267000006838B91B480068C06AE16A884201D81E
:102680001848046019480068401C1849086008464A
:10269000006860641649E06A0968884202D91449F2
:1026A000E06A0860E16A01EB8101124A02EB8100F5
:1026B000211D00F0A9FD00F0DDFD0B48006868B1A8
:1026C00008480068C06AE16A884207D24FF080502B
:1026D00009490860BFF34F8FBFF36F8F10BD000033
:1026E0003400002024000020400000205000002082
:1026F0003C0000207401002004ED00E008B500F06B
:102700008FFD12480068E8B9114800F053FD1148E8
:1027100000F050FD0E48104908600E480F4908604F
:1027200000200F4B0F4A102100900A2001F089F879
:10273000064908600846006820B10BA103480068FC
:1027400000F058FE00F096FD08BD00006800002073
:10275000380600204C0600206000002064000020A5
:1027600060060020B0060020546D72510000000089
:1027700010B516E000F054FD0C48C068C468201D78
:1027800000F0ECFC0A480068401E0949086009484E
:102790000068401E0749086000F06CFD204600F00C
:1027A0005FF8044800680028E4D110BD100600203E
:1027B000340000203000002070B504460D46206C27
:1027C00070B1216CE0680144E160D4E902108842F4
:1027D00001D32168E1602846226CE168FDF762FDC3
:1027E00070BD2DE9F04104460F4615464FF0000834
:1027F000A66B206C48B9206800282CD1A06801F095
:10280000D7FC80460020A06025E07DB93946226CC7
:102810006068FDF747FD216C606808446060D4E99A
:102820000101884217D32068606014E03946226CA9
:10283000E068FDF737FD216CE068411AE16021682E
:10284000E068884203D2216CA068411AE160022D41
:1028500001D106B1761E701CA0634046BDE8F08130
:1028600010B5044694F8590030B9206B00F020FDF3
:10287000204600F01DFD1AE094F85900012803D10C
:10288000204600F015FD12E094F85900022801D10D
:10289000012000E0002050B900BF502080F31188D3
:1028A000BFF34F8FBFF36F8F00BF00BFFEE710BDB8
:1028B0000146084A126812680AB9012200E00022A3
:1028C0000A600A6822B9034A1268D268106800E0F8
:1028D000002070476000002030B54FF44063174877
:1028E00000F007042CB1C01D20F00700134C041B9E
:1028F0001B1B0246124C22600024114D6C60D01844
:10290000083820F007000F4C206000240D4D2D6882
:102910006C600C4D2D682C601146441A4C60094CBB
:1029200024680C60084D4C682C60084D4C682C6085
:102930004FF00044064D2C6030BD0000080E002012
:102940007800002080000020880000208400002003
:102950009400002000BFFFF70BFF06480068012825
:10296000F9D94FF0805004490860BFF34F8FBFF38F
:102970006F8FF0E77401002004ED00E02DE9F041D5
:1029800006460D4617469846069C0DB9246000E0A1
:102990002760E66325640121204600F0C3FF84F828
:1029A0004C80BDE8F0812DE9F05F82460E469046EE
:1029B0009B460A9F0C9C4FEA8801A522206BFDF7DD
:1029C000B6FCA8F10100216B01EB800929F0070991
:1029D00009F0070008B9012000E0002050B900BF4D
:1029E000502080F31188BFF34F8FBFF36F8F00BF6C
:1029F00000BFFEE786B1002507E0715D04F13400F9
:102A00004155705D00B902E06D1C102DF5D300BF7B
:102A100000214320015502E0002084F83400382FC3
:102A200000D33727E762E76400202065201D00F00F
:102A3000CEFB04F1180000F0CAFB2461C7F1380096
:102A4000A06164620020606584F858005A465146CF
:102A5000484600F071FB20600B9808B10B980460A9
:102A6000BDE8F09F10B5002407E004EB84010F4A95
:102A700002EB810000F09EFB641C382CF5D30C485F
:102A800000F098FB0B4800F095FB0B4800F092FB20
:102A90000A4800F08FFB0A4800F08CFB0448094903
:102AA000086004480849086010BD00007401002057
:102AB000D4050020E8050020FC05002010060020B9
:102AC00024060020280000202C00002010B501461C
:102AD000164800E0006803688B42FBD30246436857
:102AE00013448B4204D143684C682344436001463D
:102AF0000A464B6813440468A34211D10C4C036886
:102B00002468A34208D04B680468646823444B607F
:102B100003681B680B6005E0054B1B680B6001E058
:102B200003680B60884200D0016010BD780000206F
:102B3000800000202DE9F04104460D4616461F4650
:102B40004FF0000865602461B5420CD8F01BA16904
:102B5000884202D34FF0010811E0211D09480068A6
:102B600000F038FB0BE0BE4204D2BD4202D34FF06E
:102B7000010804E0211D0448006800F02BFB4046DA
:102B8000BDE8F081640000206000002070B50546BB
:102B900000F046FBA86B08B9012400E0002400F017
:102BA00069FB204670BD70B5054600F039FBA86B87
:102BB000E96B884201D1012400E0002400F05AFBB7
:102BC000204670BDF8B505460F461A480068C06833
:102BD000C468201D00F0C2FA94F8280000F0040038
:102BE000E8B1A06941192B463A462046FFF7A2FFFB
:102BF000D8B1002003462A4601460090204601F045
:102C000033FC064656B900BF502080F31188BFF34D
:102C10004F8FBFF36F8F00BF00BFFEE705E094F852
:102C2000280020F0010084F828002046216A884707
:102C3000F8BD000060000020F0B587B0A0E0039868
:102C4000002811DA04AE56B900BF502080F3118875
:102C5000BFF34F8FBFF36F8F00BF00BFFEE7D6E912
:102C60000020B168904700BF03980028E6DB059C70
:102C7000606908B9012000E0002010B9201D00F0B3
:102C80006DFA02A800F0DEF8054603980A2875D20E
:102C9000DFE800F009050739416306083A4200BF42
:102CA00000BF00BF00BF94F8280040F0010084F886
:102CB00028000498A269811803462A462046FFF797
:102CC00039FFF8B12046216A884794F8280000F0BF
:102CD0000400B8B1002000900498A16942180023B4
:102CE0001946204601F0C0FB074657B900BF5020E7
:102CF00080F31188BFF34F8FBFF36F8F00BF00BF0A
:102D0000FEE700BF3BE000BF94F8280020F0010080
:102D100084F8280033E000BF94F8280040F0010058
:102D200084F828000498A061A06908B1012000E09F
:102D3000002050B900BF502080F31188BFF34F8F9F
:102D4000BFF36F8F00BF00BFFEE7A06941192B469C
:102D50002A462046FFF7EEFE11E094F8280000F026
:102D6000020018B9204600F0A3FA05E094F8280004
:102D700020F0010084F8280001E0FFE700BF00BF59
:102D8000002203A90448006800F06AFF00287FF4CD
:102D900056AF07B0F0BD000068000020F8B505464A
:102DA0000C4600F03BFC684600F04CF806460098E4
:102DB00020BB44B9B54206D801F098FA31462846FE
:102DC000FFF700FF1CE03CB10E480068006808B93E
:102DD000012000E000200446A91B22460A480068A2
:102DE00000F01EFB01F082FA50B94FF08050074905
:102DF0000860BFF34F8FBFF36F8F01E001F076FAE9
:102E0000F8BD0000640000206800002004ED00E030
:102E10000A490968096809B9012100E0002121B1C6
:102E20004FF0FF31064A116006E004490968C9689D
:102E3000C868034A416811607047000028000020FC
:102E40005400002070B5044601F00AF90546074811
:102E50000068854204D200F00BF80120206001E0F8
:102E60000020206001480560284670BD70000020E9
:102E70002DE9F84334E025480068C0680568234818
:102E80000068C068C468201D00F068F92046216A07
:102E9000884794F8280000F0040008B3A069461998
:102EA000AE4207D966602461211D1848006800F011
:102EB00091F915E0002003462A460146009020467D
:102EC00001F0D2FA074657B900BF502080F31188AD
:102ED000BFF34F8FBFF36F8F00BF00BFFEE700BF90
:102EE0000A480068006808B9012000E000200028B6
:102EF000C1D00648D0F80080054800680349086042
:102F00000348C0F80080BDE8F8830000600000209E
:102F1000640000200E480068401C08B9012000E051
:102F2000002050B900BF502080F31188BFF34F8FAD
:102F3000BFF36F8F00BF00BFFEE700BF502080F3DC
:102F40001188BFF34F8FBFF36F8F00BF00BFFEE745
:102F50009800002008B500BF6846FFF7A9FC0446AA
:102F600020460099FFF71AFFFFF766FEF4E770B5F9
:102F7000044600F055F994F9455010E0606A08B92C
:102F8000012000E0002038B904F1240001F062F9CA
:102F900018B100F0A5FA00E003E0681E45B2002D6C
:102FA000ECDC00BFFF2084F8450000F063F900F07E
:102FB00037F994F9445010E0206908B9012000E085
:102FC000002048B904F1100001F044F908B100F004
:102FD00087FA681E45B200E001E0002DECDC00BF7E
:102FE000FF2084F8440000F045F970BD2DE9F04160
:102FF00004464FF0000800F011FB4948006808B98A
:10300000FFF76AFC474800682040002870D1D4B11F
:10301000083404F00700B0B104F00700C0F1080064
:10302000044404F0070008B9012000E0002050B972
:1030300000BF502080F31188BFF34F8FBFF36F8F15
:1030400000BF00BFFEE7002C52D037480068844222
:103050004ED8364E3046056801E02E462D68686829
:10306000A04202D228680028F7D12D480068854286
:103070003ED0306800F10808286830606868001B9E
:10308000102819D92F1907F0070008B9012000E00E
:10309000002050B900BF502080F31188BFF34F8F3C
:1030A000BFF36F8F00BF00BFFEE76868001B78604A
:1030B0006C603846FFF70AFD1B4968680968081A02
:1030C000194908600846006819490968884203D20E
:1030D000154800681649086012496868096808437D
:1030E00068600020286013480068401C114908608F
:1030F00001F0FCF808F0070008B9012000E000200A
:1031000050B900BF502080F31188BFF34F8FBFF339
:103110006F8F00BF00BFFEE74046BDE8F0810000B2
:10312000800000209400002084000020780000200F
:10313000880000208C000020001F4FF08073036087
:10314000001F21F001030360001F034B03601438CC
:103150000260203870470000152F000801460A69F8
:10316000D1E901309860D1E9010358605068884284
:1031700001D188685060002008611068401E10600E
:1031800010687047034B0360034B0B608023136090
:103190007047000050070020AC070020034B03607D
:1031A000034B0B604FF4807313607047AC09002031
:1031B000080A002000F1080141604FF0FF318160F2
:1031C00000F10801C1600161002101607047002128
:1031D0000161704710B502460B685C1C0CB91069A0
:1031E00007E002F1080000E04068446824689C425F
:1031F000FAD944684C604C68A160886041600A61FB
:103200001468641C146010BD42684A6093688B6047
:10321000936859609160086103685B1C03607047A4
:1032200000BF502080F31188BFF34F8FBFF36F8F23
:1032300000BF0E480068401C0C4908600846006842
:10324000012812D10A480068C0B208B9012000E084
:10325000002050B900BF502080F31188BFF34F8F7A
:10326000BFF36F8F00BF00BFFEE7704798000020DC
:1032700004ED00E00D48006850B900BF502080F315
:103280001188BFF34F8FBFF36F8F00BF00BFFEE702
:1032900006480068401E054908600846006820B9D5
:1032A000002080F3118800BF00BF70479800002005
:1032B00070B506463546002E44D0083D2C462249BE
:1032C00060680968084008B1012000E0002050B99A
:1032D00000BF502080F31188BFF34F8FBFF36F8F73
:1032E00000BF00BFFEE7206808B9012000E0002011
:1032F00050B900BF502080F31188BFF34F8FBFF348
:103300006F8F00BF00BFFEE70F4960680968084083
:10331000C0B12068B0B90C49606809688843606032
:1033200000F07CF9094960680968084407490860A9
:103330002046FFF7CBFB06480068401C04490860A4
:1033400000F0D4FF70BD0000940000208400002035
:103350009000002000204FF0E021086188610648BD
:1033600000684FF47A71B0FBF1F0401E4FF0E0219D
:1033700048610720086170472000002070B5FCF705
:103380006DFF0446102C16D304F1E02090F8F053A2
:1033900015480078854201DB012000E0002050B98B
:1033A00000BF502080F31188BFF34F8FBFF36F8FA2
:1033B00000BF00BFFEE70D48006800F4E0600C4964
:1033C0000968884201D8012000E0002050B900BF00
:1033D000502080F31188BFF34F8FBFF36F8F00BF72
:1033E00000BFFEE770BD00009C0000200CED00E077
:1033F000A0000020024600200BE0084B53F83030BC
:1034000033B9064B43F8301003EBC0035A6002E0B7
:10341000401C0828F1D300BF704700003401002091
:103420002DE9F04105460E4617462C46FFF7F8FEFB
:1034300094F94400401C10B9002084F8440094F929
:103440004500401C10B9002084F84500FFF712FF2A
:10345000A06B28B93A46314604F1240000F062F826
:103460002046FFF784FDBDE8F081000070B50446FA
:103470000025D4B11248006808B9012000E00020FE
:1034800050B900BF502080F31188BFF34F8FBFF3B6
:103490006F8F00BF00BFFEE700F0C0F8002120469C
:1034A000FFF792F800F022FF05463DB94FF080503B
:1034B00004490860BFF34F8FBFF36F8F70BD0000EA
:1034C0005C00002004ED00E0034909680160034945
:1034D00009684160704700004C000020380000205F
:1034E00001200149086070474800002070B504467B
:1034F0000D4654B900BF502080F31188BFF34F8FA1
:10350000BFF36F8F00BF00BFFEE7054801681831A9
:103510002046FFF75FFE01212846FFF755F870BDF2
:103520002400002070B505460E46144655B900BF6C
:10353000502080F31188BFF34F8FBFF36F8F00BF10
:1035400000BFFEE70648016818312846FFF75CFE19
:103550000CB14FF0FF3621463046FFF735F870BD0D
:103560002400002010B586B000200590049003AA26
:1035700004A905A8FFF706FE0022DDE904101346A2
:10358000CDE9002102901EA11F48039A00F0FAFC29
:103590001E4908600846006808B1012400E00024C4
:1035A000012C02D100F024FF0446012C15D100BFEC
:1035B000502080F31188BFF34F8FBFF36F8F00BF90
:1035C0004FF0FF30124908600120124908600020C6
:1035D0001149086000F072F810E0601C08B1012089
:1035E00000E0002050B900BF502080F31188BFF3E5
:1035F0004F8FBFF36F8F00BF00BFFEE706B010BD57
:1036000049444C450000000055290008580000209E
:1036100054000020400000203800002002480068CC
:10362000401C0149086070475C0000201E4800688B
:1036300018B101201D49086034E000201B490860D2
:103640001B4801680CE051B900BF502080F311887D
:10365000BFF34F8FBFF36F8F00BF00BFFEE7491E60
:1036600001EB8100134A52F8200008B9012000E064
:1036700000200028E7D101EB81020E4B03EB820012
:1036800042685268426000F108024368934202D1E6
:103690004268526842604268D268074B1A60044828
:1036A000016000BF704700005C000020480000205F
:1036B0003C00002074010020240000201CB5384983
:1036C000084600780190FF200A46107008460078EE
:1036D00000909DF8000000F0F0009DF8002090425E
:1036E00001D1012000E0002050B900BF502080F33C
:1036F0001188BFF34F8FBFF36F8F00BF00BFFEE78E
:103700009DF8000000F05000264A10700720264A5D
:10371000106009E024480068401E234A10609DF8AC
:1037200000004006000E00909DF8000000F08000B0
:103730008028EFD01C480068C0F10700042801D1A0
:10374000012000E0002050B900BF502080F3118814
:10375000BFF34F8FBFF36F8F00BF00BFFEE712486C
:1037600000680002104A10601046008800F4E06013
:1037700010600B4A019810700C48006840F470000B
:103780000A4908600846006840F070400860FFF78A
:10379000E1FD002006490860FCF72AFD00201CBD61
:1037A00000E400E09C000020A000002020ED00E0EC
:1037B0009800002010B500BF502080F31188BFF39F
:1037C0004F8FBFF36F8F00BF00F050FC18B14FF068
:1037D00080500449086000BF002080F3118800BFBA
:1037E00010BD000004ED00E02DE9F84305460E464B
:1037F00017460DB1012000E0002050B900BF502055
:1038000080F31188BFF34F8FBFF36F8F00BF00BFEE
:10381000FEE705FB06F808F15000FFF7E7FB04465A
:1038200064B1A14609F15009002084F846003B46E6
:103830004A46314628460094FFF7A0F82046BDE8E6
:10384000F8832DE9F84380460E4617461D46DDF8FD
:103850002090B8F1000F01D0012000E0002050B905
:1038600000BF502080F31188BFF34F8FBFF36F8FDD
:1038700000BF00BFFEE70DB1012000E0002050B9FD
:1038800000BF502080F31188BFF34F8FBFF36F8FBD
:1038900000BF00BFFEE707B10EB1012000E000202D
:1038A00050B900BF502080F31188BFF34F8FBFF392
:1038B0006F8F00BF00BFFEE707B90EB9012000E01F
:1038C000002050B900BF502080F31188BFF34F8F04
:1038D000BFF36F8F00BF00BFFEE75020009000983D
:1038E000502801D1012000E0002050B900BF502035
:1038F00080F31188BFF34F8FBFF36F8F00BF00BFFE
:10390000FEE700BF2C464CB1012084F846004B4630
:103910003A46314640460094FFF730F82046BDE86D
:10392000F883000070B505460E462C4654B900BF1A
:10393000502080F31188BFF34F8FBFF36F8F00BF0C
:1039400000BFFEE7FFF76CFCD4E90F12206801FB13
:103950000200A0600020A06320686060E06B401E51
:10396000226C216800FB0211E160FF2084F8440012
:1039700084F845009EB9206908B9012000E00020C4
:10398000A8B904F1100000F065FC80B14FF0805040
:1039900009490860BFF34F8FBFF36F8F07E004F151
:1039A0001000FFF707FC04F12400FFF703FCFFF70A
:1039B00061FC012070BD000004ED00E02DE9FF4333
:1039C00083B0064688461D464FF00009344654B978
:1039D00000BF502080F31188BFF34F8FBFF36F8F6C
:1039E00000BF00BFFEE7B8F1000F01D1206C08B99D
:1039F000012000E0002050B900BF502080F3118862
:103A0000BFF34F8FBFF36F8F00BF00BFFEE7022DE4
:103A100002D1E06B012801D1012000E0002050B963
:103A200000BF502080F31188BFF34F8FBFF36F8F1B
:103A300000BF00BFFEE700F003FB08B9059808B916
:103A4000012000E0002050B900BF502080F3118811
:103A5000BFF34F8FBFF36F8F00BF00BFFEE700BF04
:103A6000FFF7DEFBA06BE16B884201D3022D28D16A
:103A70002A4641462046FEF7B4FE0746606A08B96A
:103A8000012000E0002068B904F1240000F0E2FB0E
:103A900088B14FF0805032490860BFF34F8FBFF3B9
:103AA0006F8F08E03FB14FF080502D490860BFF3A1
:103AB0004F8FBFF36F8FFFF7DDFB012007B0BDE82D
:103AC000F083059818B9FFF7D5FB0020F6E7B9F1A8
:103AD000000F04D101A8FFF7F7FC4FF00109FFF731
:103AE000C9FBFFF79BFDFFF79BFB94F94400401CCB
:103AF00010B9002084F8440094F94500401C10B926
:103B0000002084F84500FFF7B5FB05A901A800F0E7
:103B1000C1F9F0B92046FFF746F8A0B104F1100052
:103B20000599FFF7E3FC2046FFF721FA00F0DEFBE2
:103B3000002895D14FF0805009490860BFF34F8F9E
:103B4000BFF36F8F8CE72046FFF711FA00F0CEFB32
:103B500086E72046FFF70BFA00F0C8FB0020ADE730
:103B600004ED00E02DE9F84F07468A4690461E46D0
:103B70003C4654B900BF502080F31188BFF34F8FEB
:103B8000BFF36F8F00BF00BFFEE7BAF1000F01D196
:103B9000206C08B9012000E0002050B900BF50207F
:103BA00080F31188BFF34F8FBFF36F8F00BF00BF4B
:103BB000FEE7022E02D1E06B012801D1012000E0D6
:103BC000002050B900BF502080F31188BFF34F8F01
:103BD000BFF36F8F00BF00BFFEE7FFF7CFFB00BF53
:103BE0005021EFF3118081F31188BFF34F8FBFF3A2
:103BF0006F8F00BF0546A06BE16B884201D3022E98
:103C000025D194F945B0A06B00903246514620462C
:103C1000FEF7E7FD0BF1010088B9606A08B90120E1
:103C200000E0002050B904F1240000F013FB28B19B
:103C3000B8F1000F02D00120C8F8000004E00BF139
:103C4000010040B284F845004FF0010901E04FF057
:103C5000000900BF85F3118800BF4846BDE8F88F12
:103C60002DE9F74183B005460E464FF000082C467B
:103C700054B900BF502080F31188BFF34F8FBFF3BA
:103C80006F8F00BF00BFFEE70EB9206C08B901209E
:103C900000E0002050B900BF502080F31188BFF32E
:103CA0004F8FBFF36F8F00BF00BFFEE700F0C8F972
:103CB00008B9059808B9012000E0002050B900BFFC
:103CC000502080F31188BFF34F8FBFF36F8F00BF79
:103CD00000BFFEE700BFFFF7A3FAA76BF7B13146BD
:103CE0002046FEF769FD781EA063206908B901200F
:103CF00000E0002060B904F1100000F0ABFA38B128
:103D00004FF080502F490860BFF34F8FBFF36F8F84
:103D1000FFF7B0FA012006B0BDE8F081059818B9A8
:103D2000FFF7A8FA0020F6E7B8F1000F04D101A8C8
:103D3000FFF7CAFB4FF00108FFF79CFAFFF76EFC94
:103D4000FFF76EFA94F94400401C10B9002084F883
:103D5000440094F94500401C10B9002084F8450047
:103D6000FFF788FA05A901A800F094F8F0B92046F9
:103D7000FEF70CFFA0B104F124000599FFF7B6FB94
:103D80002046FFF7F4F800F0B1FA0028A3D14FF075
:103D900080500C490860BFF34F8FBFF36F8F9AE7D5
:103DA0002046FFF7E4F800F0A1FA94E72046FFF779
:103DB000DEF800F09BFA2046FEF7E8FE00288AD0E5
:103DC0000020A8E704ED00E02DE9F05F06468946F3
:103DD0001746344654B900BF502080F31188BFF312
:103DE0004F8FBFF36F8F00BF00BFFEE7B9F1000F29
:103DF00001D1206C08B9012000E0002050B900BFBB
:103E0000502080F31188BFF34F8FBFF36F8F00BF37
:103E100000BFFEE7FFF7B2FA00BF5021EFF31180B9
:103E200081F31188BFF34F8FBFF36F8F00BF05463B
:103E3000D4F838A0BAF1000F22D094F944B0494622
:103E40002046FEF7B9FCAAF10100A0630BF10100C6
:103E500070B9206908B9012000E0002068B904F1B8
:103E6000100000F0F7F940B13FB10120386004E0E4
:103E70000BF1010040B284F844004FF0010801E06A
:103E80004FF0000800BF85F3118800BF4046BDE831
:103E9000F09F000070B505460C4655B900BF502094
:103EA00080F31188BFF34F8FBFF36F8F00BF00BF48
:103EB000FEE754B900BF502080F31188BFF34F8F45
:103EC000BFF36F8F00BF00BFFEE7FFF7A9F91248ED
:103ED00002686868131A2068401C08B9002617E0B9
:103EE0000E4928680968884204D06868904201D861
:103EF00001260DE02068984207D92068C01A20608A
:103F00002846FFF7E1FA002602E0002020600126A3
:103F1000FFF7B0F9304670BD380000204C0000209B
:103F20002DE9FF4F85B0804689461746DDE912AB83
:103F3000B800FFF75BF8064656B15C20FFF756F86D
:103F400004460CB1266304E03046FFF7B1F900E007
:103F500000248CB1002084F85900CDE900ABCDE9F4
:103F600002403A4649464046089BFEF71CFD204663
:103F7000FEF768FB012501E04FF0FF35284609B048
:103F8000BDE8F08F2DE9F04F85B007468846914691
:103F90009A46DDE90EB6109C0EB1012000E000202B
:103FA00050B900BF502080F31188BFF34F8FBFF38B
:103FB0006F8F00BF00BFFEE70CB1012000E00020C2
:103FC00050B900BF502080F31188BFF34F8FBFF36B
:103FD0006F8F00BF00BFFEE75C20039003985C2852
:103FE00001D1012000E0002050B900BF502080F333
:103FF0001188BFF34F8FBFF36F8F00BF00BFFEE785
:1040000000BFB4B1AEB125462C462E63022085F820
:104010005900002004A953464A46CDE900B1CDE934
:10402000025041463846FEF7BEFC2846FEF70AFB22
:1040300001E000200490049805B0BDE8F08F000076
:104040000549096809B9012005E00449096809B969
:10405000022000E000207047400000205C000020AB
:104060000149086870470000380000202DE9F04140
:104070004FF000084348006800287BD142480068A0
:10408000451C4148056015BB40480068006808B9F8
:10409000012000E0002050B900BF502080F31188BB
:1040A000BFF34F8FBFF36F8F00BF00BFFEE73748EE
:1040B0000768374800683549086035480760354863
:1040C0000068401C33490860FEF7A2FE00BF32487A
:1040D000006885423BD300BF2C480068006808B9DF
:1040E000012000E0002020B14FF0FF302A49086095
:1040F0002CE026480068C068C4686668B54202D2F1
:104100002548066022E0201DFFF728F8A06A18B1B4
:1041100004F11800FFF722F82049E06A0968884294
:1041200002D91E49E06A0860E16A01EB81011C4A7C
:1041300002EB8100211DFFF767F81A49E06A096860
:10414000C96A8842C8D34FF00108C5E700BF1548C7
:104150000068C06A00EB8000114951F82000012876
:1041600001D94FF001081048006808B14FF001086C
:1041700005E0FFE70D480068401C0C490860404618
:10418000BDE8F0815C0000203800002028000020FD
:104190002C0000204C000020540000203C00002097
:1041A000740100202400002048000020440000206A
:1041B00070B505462C460026002D43D022480068E5
:1041C000844201D1012000E0002050B900BF5020FE
:1041D00080F31188BFF34F8FBFF36F8F00BF00BF15
:1041E000FEE7206D50B900BF502080F31188BFF367
:1041F0004F8FBFF36F8F00BF00BFFEE7206D401EE3
:104200002065E16CE06A88421CD0206DD0B9201D89
:10421000FEF7A4FFE06CE062E06AC0F13800A06144
:104220000A49E06A0968884202D90849E06A0860D8
:10423000E16A01EB8101064A02EB8100211DFEF7D4
:10424000E3FF0126304670BD240000203C00002022
:104250007401002070B50646F068C46854B900BF08
:10426000502080F31188BFF34F8FBFF36F8F00BFD3
:1042700000BFFEE704F11800FEF770FF1548006864
:10428000A0B9201DFEF76AFF1349E06A0968884259
:1042900002D91149E06A0860E16A01EB81010F4A25
:1042A00002EB8100211DFEF7AFFF04E004F11801CD
:1042B0000B48FEF7A9FF0B49E06A0968C96A884202
:1042C00004D9012501200849086000E0002528469E
:1042D00070BD00005C0000203C0000207401002044
:1042E000FC050020240000204800002070B50024B8
:1042F00000263648006850B900BF502080F311886E
:10430000BFF34F8FBFF36F8F00BF00BFFEE7FEF715
:1043100087FF2E480068401E2C4908600846006848
:1043200000284ED12A48006800284AD023E02948B6
:10433000C068C46804F11800FEF710FF201DFEF7E6
:104340000DFF2549E06A0968884202D92249E06ADE
:104350000860E16A01EB8101204A02EB8100211D26
:10436000FEF752FF1E49E06A0968C96A884202D313
:1043700001201C4908601748006808B9012000E0C6
:1043800000200028D3D00CB1FEF742FD1648056886
:1043900065B100BFFFF76AFE10B101201149086046
:1043A0006D1E002DF6D100200F4908600D480068F1
:1043B00038B1012630070D490860BFF34F8FBFF3B6
:1043C0006F8FFEF757FF304670BD00005C00002085
:1043D00034000020FC0500203C0000207401002077
:1043E00024000020480000204400002004ED00E0EC
:1043F00010B586B00024FEF781F916480068D0B1E8
:1044000000200590049003AA04A905A8FEF7C6FEA3
:104410000222DDE904100023CDE9002102900EA163
:104420000F48039AFFF7AEFD0E4908600846006882
:1044300000B1012400BF54B900BF502080F311889F
:10444000BFF34F8FBFF36F8F00BF00BFFEE7204663
:1044500006B010BD68000020546D722053766300D2
:10446000552F00086C0000202DE9FF4704460D463B
:1044700016461F46DDF830804FF0000954B900BFE2
:10448000502080F31188BFF34F8FBFF36F8F00BFB1
:1044900000BFFEE71448006810B30095019602942F
:1044A000062D15DAFFF7CCFD022808D1002342467D
:1044B00069460D480068FFF781FA814610E0002345
:1044C0001A46694608480068FFF778FA814607E00F
:1044D00000233A46694604480068FFF743FB8146DB
:1044E000484604B0BDE8F08768000020B8450008E1
:1044F00000000000000000000000000000000000BC
:1045000000020000080000000000000000000000A1
:104510009C450008000000000000000000000000B2
:104520000000000000020000090000000000000080
:1045300000000000A445000800000000000000008A
:104540000000000000000000000200001800000051
:104550000000000000000000B0450008000000005E
:10456000000000000000000000000000000000004B
:1045700002030405060708090A0B0C0D0E0F1010A4
:104580000102000000000000000001020304060711
:104590000809000000000102030400005461736B6D
:1045A0004C4544005461736B4D65737361676500DE
:1045B0006D7951756575650064656661756C7454D7
:1045C00061736B00E445000800000020A4000000B7
:1045D0006C01000888460008A4000020C41F0000E9
:1045E000880100080000000000000000000000003A
:1045F00000000000000000000000000010000000AB
:10460000010000000024F400000000000000000091
:10461000000000000000000000000000000000009A
:10462000000000000000000000000000000000008A
:10463000000000000000000000000000000000007A
:10464000000000000000000000000000000000006A
:10465000000000000000000000000000000000005A
:10466000000000000000000000000000000000004A
:10467000000000000000000000000000AAAAAAAA92
:08468000000000000000000032
:0400000508000131BD
:00000001FF
