:020000040800F2
:100000002034002065020008730D0008A10C0008D0
:10001000710D0008AF040008510F00080000000037
:10002000000000000000000000000000CD010008FA
:10003000B10400080000000011020008750D00085E
:100040007F0200087F0200087F0200087F0200088C
:100050007F0200087F0200087F0200087F0200087C
:100060007F0200087F0200087F0200087F0200086C
:100070007F0200087F0200087F0200087F0200085C
:100080007F0200087F0200087F0200087F0200084C
:100090007F0200087F0200087F0200087F0200083C
:1000A0007F0200087F0200087F0200087F0200082C
:1000B0007F0200087F0200087F0200087F0200081C
:1000C0007F0200087F0200087F0200087F0200080C
:1000D0007F0200087F0200087F0200087F020008FC
:1000E0007F0200087F0200087F0200087F020008EC
:1000F0007F0200087F0200087F0200087F020008DC
:100100007F0200087F0200087F0200087F020008CB
:100110007F0200087F0200087F0200087F020008BB
:100120007F0200087F0200087F0200087F020008AB
:1001300000F002F800F03AF80AA090E8000C8244BF
:100140008344AAF10107DA4501D100F02FF8AFF29C
:10015000090EBAE80F0013F0010F18BFFB1A43F0A5
:10016000010318478C210000AC210000103A24BF85
:1001700078C878C1FAD8520724BF30C830C144BF0C
:1001800004680C607047000000230024002500264E
:10019000103A28BF78C1FBD8520728BF30C148BFEA
:1001A0000B6070471FB51FBD10B510BD00F045F9BD
:1001B0001146FFF7F7FF00F0FFFE00F063F903B40C
:1001C000FFF7F2FF03BC00F06BF90000224B196847
:1001D0000868B0E8F00F80F30988BFF36F8F4FF025
:1001E000000080F311884EF00D0E704700000000F3
:1001F00006480068006880F3088862B661B6BFF3FD
:100200004F8FBFF36F8F00DF00BF00BF08ED00E02E
:10021000EFF30980BFF36F8F0F4B1A6820E9F00FDF
:10022000106008B54FF0500080F31188BFF34F8F76
:10023000BFF36F8F01F0ECFB4FF0000080F31188EB
:10024000BDE8084019680868B0E8F00F80F3098835
:10025000BFF36F8F704700BF1C000020EFF30580D5
:10026000704700000948804709480047FEE7FEE75D
:10027000FEE7FEE7FEE7FEE7FEE7FEE7FEE7FEE756
:1002800004480549054A064B70470000CF0D000899
:1002900031010008202E00202034002020300020D2
:1002A00020300020032A40F2308010F0030C00F0D0
:1002B000158011F8013BBCF1020F624498BF11F8A0
:1002C00001CB00F8013B38BF11F8013BA2F1040259
:1002D00098BF00F801CB38BF00F8013B11F00303D1
:1002E00000F05780083AC0F0088051F8043B083A03
:1002F00051F804CBA0E80810F5E7121D5CBF51F8D7
:10030000043B40F8043BAFF30080D20724BF11F850
:10031000013B11F801CB48BF11F8012B24BF00F8B5
:10032000013B00F801CB48BF00F8012B704702F0F9
:10033000FF0343EA032242EA024200F05EB84FF0B4
:10034000000200B5134694469646203922BFA0E825
:100350000C50A0E80C50B1F12001BFF4F7AF090731
:1003600028BFA0E80C5048BF0CC05DF804EB890022
:1003700028BF40F8042B08BF704748BF20F8022B65
:1003800011F0804F18BF00F8012B7047704770477D
:10039000704710B5203AC0F00B80B1E81850203AF1
:1003A000A0E81850B1E81850A0E81850BFF4F5AF15
:1003B0005FEA027C24BFB1E81850A0E8185044BF9F
:1003C00018C918C0BDE810405FEA827C24BF51F80C
:1003D000043B40F8043B08BF7047D20728BF31F800
:1003E000023B48BF11F8012B28BF20F8023B48BF51
:1003F00000F8012B70474FF000020429C0F0128072
:1004000010F0030C3FF49DAFCCF1040CBCF1020FD3
:1004100018BF00F8012BA8BF20F8022BA1EB0C019C
:10042000FFF78FBF5FEAC17C24BF00F8012B00F803
:10043000012B48BF00F8012B7047754600F02CF8DF
:10044000AE4605006946534620F00700854618B0C1
:1004500020B5FFF715FFBDE820404FF000064FF034
:1004600000074FF000084FF0000B21F00701AC46E9
:10047000ACE8C009ACE8C009ACE8C009ACE8C00908
:100480008D46704710B50446AFF300802046BDE8A6
:100490001040FFF794BE000000487047BC2D0020BC
:1004A00001491820ABBEFEE7260002007047FEE7B8
:1004B000704700002DE9F84FDFF8C8910024A9F13A
:1004C000040B23460F2709F1040AABF1040ED1E017
:1004D0000125A54006EA0502AA4276D1DFF8A8C1A7
:1004E0004E68A6EB0C0866452BD00DDC032E34D0ED
:1004F00005DC36B3012E19D0022E2FD11BE0112EB0
:1005000016D0122E2AD119E0B8F5881F19D006DCB2
:10051000B8F5803F15D0B8F5801F1FD111E0B8F5B0
:10052000001F0ED0B8F5041F18D10AE0CB6815E003
:10053000CB681B1D12E0CB6808330FE0CB680C338F
:100540000CE08B682BB1012B4FF0080303D0456101
:1005500004E0042302E0056100E00023FF2A01D843
:10056000064601E000F104064FEA840501D9A5F131
:100570002005D6F8008007FA05FC28EA0C0803FAE3
:1005800005F548EA0508C6F800804D68ED0070D50D
:100590003E4DAE6946F00106AE61AD6924F003063A
:1005A00005F0010500953A4D06EB050CDCF8085006
:1005B000A607360F07FA06F825EA0805DFF8D48003
:1005C000404503D14FF0000825E052E0DFF8C88035
:1005D000404502D14FF001081DE0DFF8C0804045E2
:1005E00002D14FF0020816E0DFF8B480404502D196
:1005F0004FF003080FE0DFF8AC80404502D14FF028
:10060000040808E0DFF8A080404502D14FF005085B
:1006100001E04FF0060808FA06F848EA0508CCF8A9
:1006200008804D68D9F80060ED024D4601D51643AB
:1006300000E096432E604D68DAF80060AD02554642
:1006400001D5164300E096432E604D68DBF800604C
:10065000AD035D4601D5164300E096432E604D681C
:10066000DEF80060ED03754601D5164300E09643C1
:100670002E60641C0A681646E2407FF429AFBDE88C
:10068000F88F000008040140000011100010024023
:100690000000014000080140000C01400010014032
:1006A0000014014000180140001C0140806808400F
:1006B00000D0012070470AB1016170470904FBE7CF
:1006C00001488068704700000C00002002488168E3
:1006D00002781144816070470C000020074810B573
:1006E000016841F010010160032000F067F80F205D
:1006F00000F006F800F024F8002010BD00200240B1
:1007000070B50D4D04464FF47A712878B1FBF0F0C6
:100710000A490968B1FBF0F000F0AEFA48B9102CB4
:1007200007D200222146501E00F028F800206C60FD
:1007300070BD012070BD00000C00002018000020DA
:100740000C4808B5816941F001018161816901F0BE
:1007500001010091C16941F08051C161C06900F09F
:10076000805000900448416821F0E06141F08061D0
:10077000416008BD0010024000000140F0B40E4B83
:100780001B680C46C3F30223C3F10705042D00D9EF
:100790000425191D072901D2002300E0DB1E0126D4
:1007A00006FA05F1491E214099409E40761E1640EA
:1007B0003143F0BC00F0CDBB0CED00E0064900F089
:1007C000070208684FF6FF03184040EA0220034A78
:1007D00010430860704700000CED00E00000FA05CF
:1007E0002DE9F0470F46050061D0434E306800F018
:1007F0000700B84209D2306820F007003843306063
:10080000306800F00700B84251D128683B4C81079E
:1008100012D5400703D5606840F4E0606060287836
:10082000000703D5606840F4605060606068A968A4
:1008300020F0F000084360602878C00728D068687E
:10084000012810D02168022810D0890700292EDA4B
:10085000616821F0030101436160FFF731FF8046C9
:1008600041F288390DE021688903EFE78901EDE75E
:10087000FFF726FFA0EB0801494502D90320BDE898
:10088000F0876068696800F00C00B0EB810FEFD171
:10089000306800F00700B8420BD9306820F007003C
:1008A00038433060306800F00700B84201D00120C2
:1008B000E5E72878400705D56068E96820F4E0603E
:1008C000084360602878000706D56068296920F42D
:1008D000605040EAC100606000F018F86168084AA2
:1008E000C1F30311515CC84006490860064800681E
:1008F000FFF706FF0020C2E7002002400010024080
:10090000DE22000818000020100000200E4A516866
:100910000E4801F00C03042B11D0082B0FD10C480A
:10092000C1F38343C903C05C0AD55168084AC1F3C7
:100930004041921E515C054A5043B0FBF1F07047B4
:1009400004494843704700000010024000127A003A
:10095000CE22000800093D002DE9F84F040070D0B8
:100960002078C04DC00749D06868C0F381000128D5
:1009700007D06868C0F38100022809D16868C00305
:1009800006D52868800339D560680028E7D035E0AF
:100990006068B0F5803F0BD010B1B0F5A02F11D03A
:1009A000286820F480302860286820F4802002E045
:1009B000286840F480302860606890B1FFF780FEBE
:1009C00006460AE0286840F480202860F0E700BF6F
:1009D000FFF776FE801B642873D828688003F7D55C
:1009E0000CE0FFF76DFE064605E000BFFFF768FE6E
:1009F000801B6428F0D828688003F7D420789A4EAA
:100A000080074FF001094FF0000839D5686810F0F1
:100A10000C0F07D06868C0F38100022809D168680C
:100A2000C00306D42868800714D52069012808D19E
:100A300010E02069B0B1C6F80090FFF741FE07460C
:100A400005E00AE1FFF73CFEC01B0228C4D8286875
:100A50008007F7D52868616920F0F80040EAC100F6
:100A600028600DE0C6F80080FFF72AFE074604E084
:100A7000FFF726FEC01B022823D828688007F7D47A
:100A8000207800072CD57948A169D9B1C0F8009029
:100A9000FFF716FE074604E0FFF712FEC01B022810
:100AA0000FD8686A8007F7D571484FF4FA5100688B
:100AB000B0FBF1F0009000BF0098411E0091FAD207
:100AC0000EE080E0C0F80080FFF7FAFD074604E082
:100AD000FFF7F6FDC01B022875D8686A8007F7D4B7
:100AE0002078400760D5E8690027C00008D4E8698D
:100AF00040F08050E861E869012700F080500090E4
:100B00005C480168C90513D40168834641F48071CB
:100B10000160FFF7D5FD824606E000BFFFF7D0FD7C
:100B2000A0EB0A0064284ED8DBF80000C005F5D51C
:100B3000E06801280AD008B1052813D0286A20F0FF
:100B400001002862286A20F0040002E0286A40F0D0
:100B500001002862E06841F2883B98B1FFF7B0FDE0
:100B600082460BE0286A40F004002862EEE700BFEE
:100B7000FFF7A6FDA0EB0A0159455AD8286A80075D
:100B8000F6D50CE0FFF79CFD824605E0FFF798FDE7
:100B9000A0EB0A0159454CD8286A8007F6D41FB14A
:100BA000E86920F08050E861E06988B36968C1F3C2
:100BB0008101022944D00228C6F8608004D0FFF7E2
:100BC0007FFD044638E034E0FFF77AFD074604E095
:100BD000FFF776FDC01B02282BD828688001F7D4C8
:100BE000206AB0F5803F05D16868A16820F4003024
:100BF00008436860D4E908010843696821F4741166
:100C000008436860C6F86090FFF75AFD044606E0A6
:100C100025E000BFFFF754FD001B022809D8286813
:100C20008001F7D51BE000BFFFF74AFD001B02283B
:100C300002D90320BDE8F88F28688001F4D40EE0C3
:100C40000128F7D06868226A00F48031914204D10B
:100C5000616A00F47010884201D00120EAE70020A8
:100C6000E8E70000001002400000424280044242D7
:100C7000180000200070004010B5401EB0F1807FC9
:100C800001D3012010BD4FF0E02460610F216017F7
:100C900000F05FF90020A06107202061002010BD56
:100CA000FEE790F9002039B1521E51B201700029BF
:100CB00001DA022101707047521C51B20170032900
:100CC000F9DB0021F6E700002DE9F04186B00024B1
:100CD00023480094019402940394816941F008012F
:100CE0008161816901F008010491816941F010017D
:100CF0008161816901F010010491816941F0200155
:100D000081618069174F00F02000049000222021AB
:100D10003846FFF7D0FCDFF85080002248214046DB
:100D2000FFF7C9FC202001250326CDE90005CDE908
:100D3000024669463846FFF7BDFB4820CDE900056D
:100D4000CDE9024669464046FFF7B4FB2C208DE80A
:100D5000310069460548FFF7ADFB06B0BDE8F081FC
:100D600000100240000C014000140140001001403E
:100D7000FEE7FEE710B5FFF7A9FC01F0D5F8012862
:100D800003D0BDE8104000F099BE10BD10B590B082
:100D900028216846FFF7D3FA14210AA8FFF7CFFAF3
:100DA0000220009001200490102000240590079458
:100DB0006846FFF7D1FD0F20CDE90A040C940D948D
:100DC00000210AA80E94FFF70BFD10B010BD70476C
:100DD00008B51CA0DFF8708000686E460090002403
:100DE00008EBC40758F83400B988FFF75FFC0546E4
:100DF000305D01281DD1E5B9142000F089FDB988C6
:100E000058F83400FFF752FC050012D10F480121B9
:100E1000A14000230122806801F034F802E00A209A
:100E200000F076FDB98858F83400FFF73FFC002841
:100E3000F5D03555641C032CD2DB0A2000F068FD88
:100E4000CDE7000001010100A02200080000002001
:100E50001CB54FF000083C4E3C4D8DF804804FF01F
:100E6000FF39A87848B3002406EBC400002281882B
:100E700056F83400FFF71FFC641C032CF4DB4946D2
:100E80004B466A46002001F0C3F80098C10703D022
:100E9000697881F001016970810707D52978491CBB
:100EA000C9B22970052901D385F800804007D8D53B
:100EB000A87880F00100A870D3E79DF804700024A2
:100EC00006EBC4000022818856F83400FFF7F3FBDC
:100ED000641C032CF4DB06EBC7000122818856F862
:100EE0003700FFF7E8FB1848297830306A4650F899
:100EF00021004FF47A714843B0FBF1F349460020DA
:100F000001F086F8012804D0697801A8FFF7C9FE2E
:100F1000A7E70098C00706D0687880F001016970E3
:100F200001A8FFF7BEFE009880070BD52878401C6B
:100F3000C0B22870052801D385F80080697801A81F
:100F4000FFF7AFFE0098B1E78822000800000020FC
:100F5000FEE70907090E002804DB00F1E02080F815
:100F60000014704700F00F0000F1E02080F8141D1D
:100F70007047000070B500281BD00E4DA0F108048A
:100F800061686869014214D02268002A11D1814346
:100F9000616000F035FD606869680844686020465B
:100FA00000F044FA2869401C2861BDE8704001F057
:100FB000CDB870BD700000201CB5FFF78FFBFFF7A8
:100FC000E5FEFFF781FE0C490320CDE90001002377
:100FD00080220AA10B4800F029FF07490220091DC1
:100FE000CDE90001C201002307A1094800F01EFF5E
:100FF00000F0D8FCFEE70000040000204B657950AB
:101000006F6C6C00D10D00084C65644374726C0009
:10101000510E00082DE9F0410546002700F0F0FCD4
:10102000264E306808B900F05BF9706905420CD1B2
:101030005DB10835680704D005F00700C0F108006D
:10104000054415B17068854202D901F07FF82FE0A0
:101050001A48183001460C6801E020460C466168C9
:10106000A94202D221680029F7D131688C42ECD024
:1010700007682168016060680837411B102904D99E
:1010800060194160656000F0D1F961687068401ACC
:101090007060B268904200D2B06070690143002075
:1010A000C4E90001F068401CF06001F04FF80FB98E
:1010B00000F099FB3846BDE8F08100007000002088
:1010C0002DE9F041134C0F460546E6682068001DE7
:1010D00000F076FB681C07D137B12168BDE8F0410C
:1010E0000D48091D00F0A8BB20683544B542456095
:1010F000216805D2A06BBDE8F041091D00F084BB5A
:10110000606B091D00F080FBA06A854200D2A562D9
:10111000BDE8F0811C000020400500202DE9F041D1
:10112000054600F095FB2C4CA068401CA060206890
:101130002A4F10B1606930B32BE02560A068012808
:1011400027D1002606EB860007EB800000F04EFB5F
:10115000761C382EF6D3224800F048FB2048143085
:1011600000F044FB1E48283000F040FB1C483C3097
:1011700000F03CFB1A48503000F038FB1848606320
:101180001430A06305E02068E96AC06A884200D88C
:101190002560606A401C6062E86A2169884200D963
:1011A000206100EB800007EB8000291D00F044FB6C
:1011B00000F05CFB606900280CD02068E96AC06A16
:1011C000884207D207494FF080500860BFF34F8F25
:1011D000BFF36F8FBDE8F0811C000020900000205D
:1011E000F004002004ED00E010B500F031FB0E4CDF
:1011F0002068A0B90D4800F0F9FA0C48143000F04E
:10120000F5FA0A48E06014302061002210210A201B
:1012100000F06AFC206010B105A100F043FBBDE8BE
:10122000104000F023BB000058000020940500206F
:10123000546D72510000000030B4026C0B46002A5D
:101240000BD0C1681144C1608468A14201D3016818
:10125000C16030BC1846FFF725B830BC70472DE997
:10126000F041856B174604460026026C82B1C7B177
:10127000E068FFF717F8E168206C091AE16022685E
:10128000914202D2A168081AE060022F16D017E03E
:101290002068A8B9A06800F001FF06460020A06001
:1012A0000EE06068FEF7FEFF216C60680844606035
:1012B000A168884204D32068606001E005B16D1E1A
:1012C0006D1CA5633046BDE8F08110B50446006B87
:1012D000FFF750FE2046BDE81040FFF74BBE000070
:1012E00010484FF42051420706D0C01D0D4920F090
:1012F0000700411AC1F520510B4A00230144C2E9FD
:1013000000030839183A21F0070111604B600B60A7
:101310000B1AC0E9001393604FF000405360506116
:1013200070470000BC05002088000020144E154CBA
:10133000A6F29C474FF08058DFF84C9012E000BFB7
:1013400000F086FAF068C568281D00F039FAA06838
:10135000401EA0606068401E606000F087FA28466A
:10136000FFF7B3FF60680028EAD138680128F9D98F
:10137000C9F80080BFF34F8FBFF36F8FF2E7000013
:101380002C0500201C00002004ED00E02DE9F05F9A
:101390000F46DDE90B841546834691009A460A9E66
:1013A000A522206BFEF7C3FF6FF0030101EB85015F
:1013B000206B0025084420F0070967B1002022189F
:1013C000395C82F83410395C11B1401C1028F6D316
:1013D00084F8435001E084F83450382E00D3372687
:1013E000E662C4E91165201D00F00BFA04F1180053
:1013F00000F007FA2461C6F138006462A0610020A1
:1014000004EB8001401CCD640528F9D3256684F8DF
:10141000645052465946484600F0C0F92060B8F181
:10142000000F01D0C8F80040BDE8F09F30B5114969
:1014300000E011460A688242FBD34B685C18844284
:1014400003D1406818444860084643681C18944219
:1014500009D1084C183C2468A24209D052681A44A9
:1014600042600A6812680260814200D0086030BDA4
:101470000460F9E78800002070B5002441600B4D3E
:101480000061914206D8D11A8269914206D2011DAB
:10149000286907E09A4203D2994201D3012403E06C
:1014A000011DE86800F0B0F9204670BD580000202A
:1014B00010B5044600F0CCF9A06B28B15FF0000431
:1014C00000F0D4F9204610BD0124F9E730B589B009
:1014D000344D5DE00498002806DADDE90601059A3E
:1014E00090470498002853DB069C606910B1201DCA
:1014F00000F066F903A800F0BFF8024604980A2835
:1015000046D2DFE800F0050505252B390505252B1A
:1015100094F8240040F0010084F824000598A169A3
:10152000034601442046FFF7A7FF20B3216A204667
:10153000884794F8240040072AD500200090059899
:10154000A169002342181946204600F075FE1FE0ED
:1015500014F8240F20F00100207019E094F8240002
:10156000134640F0010084F824000598A06181181A
:101570002046FFF781FF0BE094F82400810703D495
:101580002046FFF7F7FC03E020F0010084F8240078
:10159000002204A9286800F0A9FB00289AD109B00C
:1015A00030BD0000580000202DE9FC410F460546E3
:1015B00000F026FA01A800F05FF80446019818B17F
:1015C00000F0C4FDBDE8FC81214EAFB13069006878
:1015D00090B30027291B3A46306800F077F900F0F5
:1015E000B5FD0028EED11B494FF080500860BFF3D5
:1015F0004F8FBFF36F8FE5E7A542EBD800F0A6FD54
:10160000F0682746C068C468201D00F0D9F894F837
:101610002400410711D5A0692B4641193A462046BE
:10162000FFF72AFF68B100200346014600902A46D2
:10163000204600F001FE04E007E020F0010084F8FD
:101640002400216A20468847BCE70127C2E7000042
:101650005800002004ED00E00648416B096829B1FC
:10166000416BC968C9684968816270474FF0FF31B2
:10167000FAE700001C00002070B5054600F062FC8F
:10168000064E0446B068844203D200F009F80120F7
:1016900000E0002028602046B46070BD58000020A3
:1016A000F8B5154D1FE0C068C4680668201D00F03D
:1016B00087F8216A2046884794F82400400712D50D
:1016C000A0693044B04206D924616060211DE868F9
:1016D00000F09AF807E000200346014600903246E9
:1016E000204600F0A9FDE86801680029DBD12969DE
:1016F000C5E90310F8BD000058000020502080F319
:101700001188BFF34F8FBFF36F8FFEE7074CE06880
:10171000016841B1C0680021D0F80000FFF744FF24
:10172000FFF7D4FEF3E701210020F7E7580000207F
:101730002DE9F041044600F08BF894F9455004F18E
:10174000240609E0606A48B1304600F0D1FC08B1D7
:1017500000F0FEF86D1E6DB2002DF3DC4FF0FF3689
:1017600084F8456000F082F800F072F894F9445073
:1017700004F1100709E0206948B1384600F0B8FCD0
:1017800008B100F0E5F86D1E6DB2002DF3DC84F8B1
:101790004460BDE8F04100F069B8000010B5031FD7
:1017A0004FF080741C601B1F21F001011960191F8C
:1017B000024B0B60143940380A6010BDFD1600085A
:1017C000D0E9013201699A60D0E901235A604A6880
:1017D000824201D182684A60002202610868401E8C
:1017E000086008687047FEE7FEE7704700F10801EF
:1017F0004FF0FF32C0E90112C160016100210160B8
:10180000704700210161704730B50B685A1C02D047
:1018100000F1080202E0026904E0224654682568EB
:101820009D42FAD953684B6099608A6051600861A3
:101830000168491C016030BD42684A6093688B6052
:1018400093685960916008610168491C01607047A4
:10185000502080F31188BFF34F8FBFF36F8F024882
:101860000168491C016070476C000020034908684A
:10187000401E086001D180F3118870476C00002081
:101880004FF0E02000210161816105494FF47A7237
:101890000968B1FBF2F1491E4161072101617047FE
:1018A0001800002010B5084B002200BF53F832404A
:1018B0001CB1521C082AF9D310BD43F8321003EBB7
:1018C000C201486010BD00005405002070B51546E7
:1018D0000E460446FFF7BCFF94F944100020491C53
:1018E00001D184F8440094F94510491C01D184F8D1
:1018F0004500FFF7BBFFA06B28B92A46314604F12B
:10190000240000F03BF82046BDE87040FFF710BF10
:1019100010B5020009D000F073F800211046FFF75F
:10192000CFFB00F013FC002807D104494FF0805092
:101930000860BFF34F8FBFF36F8F10BD04ED00E061
:1019400002490A6A0260C968416070471C000020B1
:1019500001490120C86170471C00002010B50C46E9
:10196000054909681831FFF74FFF2046BDE81040D0
:101970000121FFF7A5BB00001C00002070B50D463B
:101980000749144609681831FFF756FF0CB14FF0AC
:10199000FF3521462846BDE87040FFF791BB0000A7
:1019A0001C0000201CB512480024CDE9004023464D
:1019B000802210A1114800F039FA012816D100F058
:1019C0001DFC012812D1502080F31188BFF34F8FE6
:1019D000BFF36F8F06484FF0FF312C388162012131
:1019E0004161C460BDE81C4000F050B81CBD00005F
:1019F0004800002049444C45000000002D13000819
:101A00000248016B491C0163704700001C00002064
:101A100010B51C4C206B10B10120E06110BD0020FE
:101A2000E06120684FF0A531006B02688A4208D15E
:101A300042688A4205D182688A4202D1C0688842DF
:101A400004D0216820683431FFF7CEFE21690E48AA
:101A500000E0491E01EB810250F82220002AF8D054
:101A600001EB810200EB820000F10803426852683A
:101A700042609A4201D152684260D0682060216180
:101A800010BD00001C00002090000020094810B587
:101A9000016841F470010160016841F0704101602A
:101AA000FFF7EEFE044900200860FEF7A1FB0020CE
:101AB00010BD000020ED00E06C00002010B55020AB
:101AC00080F31188BFF34F8FBFF36F8F00F040FAA0
:101AD00018B104494FF080500860002080F311884D
:101AE00010BD000004ED00E070B50E4605467043E1
:101AF0004830FFF78FFA040009D004F1480120466E
:101B00003EB10160C0E90F56012100F005F8204602
:101B100070BD0060F6E7000070B50D460446FFF7A3
:101B200097FED4E90F12206801FB0200A06000209C
:101B3000A063206860600146E06B401E00FB02105D
:101B4000E0604FF0FF3084F8440084F8450004F171
:101B500010004DB1FFF74AFE04F12400FFF746FEE6
:101B6000FFF784FE012070BD21690029F8D000F044
:101B7000BFFA0028F4D004494FF080500860BFF34A
:101B80004F8FBFF36F8FEBE704ED00E02DE9FF47C8
:101B900000273B4E82B099468A460446B8464FF02D
:101BA000805500BFFFF754FEA06BE16B884206D35F
:101BB000B9F1020F03D00498C0B1D7B11DE04A4675
:101BC00051462046FFF74BFB616A19B104F124002E
:101BD00000F08EFA20B13560BFF34F8FBFF36F8FE7
:101BE000FFF744FE012006B0BDE8F087FFF73EFE98
:101BF00021E06846FFF7A4FE0127FFF737FEFFF755
:101C0000FFFEFFF725FE94F94400401C01D184F843
:101C1000448094F94500401C01D184F84580FFF7C9
:101C200025FE04A9684600F0D9F830B12046FFF738
:101C30007FFD00F08BFA0020D5E7FFF709FEA06BCF
:101C4000E16B884213D1FFF711FE04F110000499F3
:101C5000FFF784FE2046FFF76BFD00F077FA0028BF
:101C6000A0D13560BFF34F8FBFF36F8F9AE7FFF7B7
:101C7000FDFD2046FFF75CFD00F068FA92E70000EA
:101C800004ED00E02DE9F041044617465020EFF343
:101C9000118680F31188BFF34F8FBFF36F8FA26B54
:101CA000E06B824206D3022B04D0002086F3118819
:101CB000BDE8F08194F94550A06B1A462046FFF725
:101CC000CEFA681C04D06D1C84F845500120EDE765
:101CD000606A0028FAD004F1240000F009FA002814
:101CE000F4D0002FF2D001203860EFE72DE9F7475C
:101CF0000026DFF8E48083B08A460446B1464FF000
:101D0000805700BFFFF7A4FDA56BC5B15146204623
:101D1000FFF792FA6D1EA563206950B104F110001F
:101D200000F0E6F928B1C8F80070BFF34F8FBFF399
:101D30006F8FFFF79BFD012006B0BDE8F087059887
:101D400008B11EB106E0FFF791FD27E06846FFF7F6
:101D5000F7FD0126FFF78AFDFFF752FEFFF778FD3A
:101D600094F94400401C01D184F8449094F9450052
:101D7000401C01D184F84590FFF778FD05A968461D
:101D800000F02CF8002820460AD0FFF7D1FC00F024
:101D9000DDF92046FFF78CFB0028B3D00020CBE70D
:101DA000FFF786FB90B104F124000599FFF7D6FDFB
:101DB0002046FFF7BDFC00F0C9F90028A2D1C8F801
:101DC0000070BFF34F8FBFF36F8F9BE72046FFF785
:101DD000AFFC00F0BBF995E704ED00E02DE9F04120
:101DE0000C460546FFF734FD0F4BDA686E68216834
:101DF000901B4F1C07D02F681B6A9F4209D0964248
:101E000007D8012400E00024FFF730FD2046BDE89C
:101E1000F081814205D9081A20602846FFF790FD1D
:101E2000F1E700202060ECE71C0000202DE9FF5FB7
:101E30008346DDE90E87994616468A469000FFF7ED
:101E4000E9F805001AD06820FFF7E4F8040012D082
:101E500025630021CDE90241CDE900874B4632469A
:101E600051465846FFF792FA2046FFF757F90120EE
:101E700004B0BDE8F09F2846FFF77CF84FF0FF3034
:101E8000F6E700002DE9F0411F4690460D46012679
:101E90000446FFF7DDFC0FB1206E386094F8640053
:101EA000022184F86410B8F1050F0ED2DFE808F0C3
:101EB0000D03060C0A00216E294301E0216E491C26
:101EC000216602E0022803D02566012802D01FE027
:101ED00000261DE0201DFFF773FC104DE06A296904
:101EE000884200D928610E4900EB800001EB800098
:101EF000211DFFF7A1FCE06A2968C96A884207D959
:101F000008494FF080500860BFF34F8FBFF36F8FC9
:101F1000FFF7ACFC3046BDE8F08100001C0000205B
:101F20009000002004ED00E00548416919B1006B04
:101F300018B1002070470120704702207047000050
:101F40001C0000200148C068704700001C000020F1
:101F50002DE9F0412C4C0026206B38B1A069401CC3
:101F6000A061FFF742FC3046BDE8F081E5686D1CDA
:101F7000E56008D1606BA16B6163A063206A401CBF
:101F80002062FFF769FBA06ADFF88080854209D3F1
:101F9000606B006890B1606BC068C7687868854204
:101FA0000FD2A0622068C06A00EB800158F82100BF
:101FB000012800D90126A069F8B120E04FF0FF30D8
:101FC000EFE7381DFFF7FCFBB86A18B107F11800FE
:101FD000FFF7F6FBF86A2169884200D9206100EB1F
:101FE000800108EB8100391DFFF726FCF86A2168A3
:101FF000C96A8842CCD30126CAE7FFF7F6FBE0693D
:102000000028B0D00126AEE71C0000209000002080
:102010002DE9F0411E46154688460746FFF718FC95
:102020001C4C206890F86400022814D02068016ECF
:10203000B94301662168012081F864005EB1012185
:102040003046FFF73DF814494FF080500860BFF369
:102050004F8FBFF36F8FFFF709FCFFF7F9FB15B147
:102060002068006E2860206890F86400022801D083
:10207000002505E02068016E21EA080101660125BE
:102080002168002081F86400FFF7F0FB2846BDE8D6
:10209000F08100001C00002004ED00E010B50400F9
:1020A0004FF000011ED0A06C401EA064636CE26A79
:1020B0009A4217D0B0B9201DFFF782FB606CE06236
:1020C000C0F138000849A061E06A0A69904200D96D
:1020D0000861064900EB800001EB8000211DFFF73D
:1020E000ABFB0121084610BD1C0000209000002021
:1020F00070B5C068C46804F118000646FFF760FBBD
:102100000F4D286B10B131460E480DE0201DFFF732
:1021100057FBE06A2969884200D928610A4900EB27
:10212000800001EB8000211DFFF786FBE06A296833
:10213000C96A884202D90120E86170BD002070BDE3
:102140001C00002018050020900000202DE9F04719
:1021500000242746FFF77CFB254D286B401E286393
:10216000286BE0BBA968234E0120C1B3A6F5916995
:1021700080463068E0B1F068C46804F11800FFF7E9
:102180001FFB201DFFF71CFBE06A2969884200D96C
:10219000286100EB800109EB8100211DFFF74CFB5A
:1021A000E06A2968C96A8842E3D3C5F81C80E0E781
:1021B0000CB1FFF751FAAC6944B14646FFF7C8FECF
:1021C00000B1EE61641EF9D10020A861E86930B168
:1021D0000949012738070860BFF34F8F00E001E08D
:1021E000BFF36F8FFFF742FB3846BDE8F087000072
:1021F0001C0000201805002004ED00E01CB50024A0
:10220000FEF7F2FF0848006858B107490220091D8F
:10221000CDE90001C201002304A10648FFF706FE34
:10222000044620461CBD000058000020546D72205A
:10223000537663000D1700082DE9FF41114C1F462E
:102240000346266800200A9D002E0ED08DE80E0061
:1022500006290FDAFFF768FE02284FF0000307D0C7
:10226000002269462068FFF791FC04B0BDE8F081C8
:102270002A46F6E700233A4669463046FFF702FD54
:10228000F3E7000058000020000C0140200000008F
:10229000001401404000000000140140080000004C
:1022A0000010014020000000001001400400000068
:1022B0000010014008000000E80300005802000080
:1022C00090010000FA0000009600000001020203E5
:1022D0000405060708090A0B0C0D0E0F101000006C
:1022E00000000000000001020304060708090000C6
:1022F0001023000800000020900000006C0100087E
:10230000A0230008900000209033000088010008FE
:1023100000000000000000000000000001000000BC
:10232000100000000000000000127A000000000011
:10233000000000000000000000000000000000009D
:10234000000000000000000000000000000000008D
:10235000000000000000000000000000000000007D
:10236000000000000000000000000000000000006D
:10237000000000000000000000000000AAAAAAAAB5
:10238000000000000000000000000000000000004D
:10239000000000000000000000000000000000003D
:0400000508000131BD
:00000001FF
