:020000040800F2
:1000000008260020DD0100080F140008D5120008A2
:100010000D1400087D020008D91900080000000036
:100020000000000000000000000000004501000882
:100030007F02000800000000890100085D1600082A
:10004000F7010008F7010008F7010008F7010008B0
:10005000F7010008F7010008F7010008F7010008A0
:10006000F7010008F7010008F7010008F701000890
:10007000F7010008F7010008F7010008F701000880
:10008000F7010008F7010008F7010008F701000870
:10009000F7010008F7010008F7010008F701000860
:1000A000F7010008F7010008F7010008F701000850
:1000B000F7010008F7010008D9160008F701000849
:1000C000F7010008F7010008F7010008F701000830
:1000D000F7010008CD190008F7010008F701000832
:1000E000F7010008F7010008F7010008F701000810
:1000F000F7010008F7010008F7010008F701000800
:10010000F7010008F7010008F7010008F7010008EF
:10011000F7010008F7010008F7010008F7010008DF
:10012000F7010008F7010008F7010008F7010008CF
:10013000DFF80CD000F090F800480047191A0008CA
:1001400008260020224B19680868B0E8F00F80F3F9
:100150000988BFF36F8F4FF0000080F311884EF0D5
:100160000D0E70470000000006480068006880F32C
:10017000088862B661B6BFF34F8FBFF36F8F00DFA1
:1001800000BF00BF08ED00E0EFF30980BFF36F8F01
:100190000F4B1A6820E9F00F106008B54FF05000BF
:1001A00080F31188BFF34F8FBFF36F8F02F07CFB9A
:1001B0004FF0000080F31188BDE808401968086816
:1001C000B0E8F00F80F30988BFF36F8F704700BF6E
:1001D00024000020EFF305807047000006488047A8
:1001E00006480047FEE7FEE7FEE7FEE7FEE7FEE71C
:1001F000FEE7FEE7FEE7FEE7D5160008310100083E
:1002000040EA01039B0703D009E008C9121F08C098
:10021000042AFAD203E011F8013B00F8013B521E18
:10022000F9D27047D2B201E000F8012B491EFBD28F
:1002300070470022F6E710B513460A4604461946F1
:10024000FFF7F0FF204610BD421C10F8011B0029EB
:10025000FBD1801A70470000064C074D06E0E068AD
:1002600040F0010394E8070098471034AC42F6D3FD
:10027000FFF762FFF435000814360008FEE7704708
:1002800072B6FEE710B590F821100022022905D0C1
:100290000421816380F82020012010BD01680B68D3
:1002A00023F00E030B6001680B6823F001030B6061
:1002B00090F84030C46B012101FA03F3636080F8C9
:1002C000211080F82020104610BD00002DE9F05FBD
:1002D00090F821100024022903D004218163012415
:1002E00085E001680A6822F00E020A6001680A6867
:1002F00022F001020A603F4E3E4FB215DFF8F4C013
:10030000DFF8F090DFF8ECA0DFF8E8B0DFF8E4E029
:100310000168783F13011502ACF1640CA9F1500992
:10032000AAF13C0AABF1280BAEF1140E4FF4801881
:10033000B14227D9B9420ED0614512D049451DD0EE
:10034000514518D0594518D0714501D1424615E0A4
:10035000294EB14201D1012210E0274E1436B1429C
:1003600001D110220AE0244E2836B14206D0224A9A
:100370003C32914201D11A4600E02A461E49091F2B
:100380000A602BE0B94213D0614517D0494522D00D
:1003900051451DD059451DD0714501D142461AE045
:1003A000B14202D14FF0807215E0134EB14201D13B
:1003B000012210E0104E1436B14201D110220AE0A1
:1003C0000D4E2836B14206D00B4A3C32914201D143
:1003D0001A4600E02A46074980394A60012180F820
:1003E0002110002180F82010416B01B18847204680
:1003F000BDE8F09F80000240080402402DE9F84F5C
:10040000DFF8C8910024A9F1040B23460F2709F156
:10041000040AABF1040ED1E00125A54006EA05026D
:10042000AA4276D1DFF8A8C14E68A6EB0C08664553
:100430002BD00DDC032E34D005DC36B3012E19D0C1
:10044000022E2FD11BE0112E16D0122E2AD119E028
:10045000B8F5881F19D006DCB8F5803F15D0B8F57F
:10046000801F1FD111E0B8F5001F0ED0B8F5041F92
:1004700018D10AE0CB6815E0CB681B1D12E0CB68F1
:1004800008330FE0CB680C330CE08B682BB1012BE9
:100490004FF0080303D0456104E0042302E0056146
:1004A00000E00023FF2A01D8064601E000F104061F
:1004B0004FEA840501D9A5F12005D6F8008007FA96
:1004C00005FC28EA0C0803FA05F548EA0508C6F811
:1004D00000804D68ED0070D53E4DAE6946F00106D6
:1004E000AE61AD6924F0030605F0010500953A4DB3
:1004F00006EB050CDCF80850A607360F07FA06F8DD
:1005000025EA0805DFF8D480404503D14FF0000804
:1005100025E052E0DFF8C880404502D14FF00108E5
:100520001DE0DFF8C080404502D14FF0020816E020
:10053000DFF8B480404502D14FF003080FE0DFF848
:10054000AC80404502D14FF0040808E0DFF8A080FD
:10055000404502D14FF0050801E04FF0060808FAC7
:1005600006F848EA0508CCF808804D68D9F800601C
:10057000ED024D4601D5164300E096432E604D68CE
:10058000DAF80060AD02554601D5164300E0964307
:100590002E604D68DBF80060AD035D4601D5164363
:1005A00000E096432E604D68DEF80060ED0375466E
:1005B00001D5164300E096432E60641C0A68164677
:1005C000E2407FF429AFBDE8F88F00000804014045
:1005D000000011100010024000000140000801401E
:1005E000000C0140001001400014014000180140BF
:1005F000001C01408068084000D0012070470AB10B
:10060000016170470904FBE70148806870470000FA
:10061000140000200248816802781144816070470C
:1006200014000020074810B5016841F01001016076
:10063000032000F0A7F80F2000F006F800F050F8B3
:10064000002010BD0020024030B505461F4887B08D
:10065000C16941F00401C161C06906A900F004004C
:10066000009001A800F036F90498B0B100F052F9FA
:1006700040001749174AB0FBF1F11748491E0260C4
:10068000416040F2E7320021C0E9032181608161CD
:1006900000F018FB040003D015E000F03BF9E8E798
:1006A0000D4800F03DFB04000DD11E2000F03CF889
:1006B000102D07D2002229461E2000F043F80748DB
:1006C000056000E0012407B0204630BD0010024064
:1006D00040420F0000080040EC00002018000020FD
:1006E0000F4808B5816941F001018161816901F01C
:1006F00001010091C16941F08051C161C0690022CE
:1007000000F0805000900F21901E00F01BF805486B
:10071000416821F0E06141F00071416008BD0000D6
:100720000010024000000140002809DB00F01F0219
:10073000012191404009800000F1E020C0F8001143
:1007400070470000F0B40E4B1B680C46C3F3022345
:10075000C3F10705042D00D90425191D072901D26D
:10076000002300E0DB1E012606FA05F1491E2140A8
:1007700099409E40761E16403143F0BC01F02DB9E1
:100780000CED00E0064900F0070208684FF6FF0391
:10079000184040EA0220034A1043086070470000F6
:1007A0000CED00E00000FA052DE9F0470F460500CA
:1007B00061D0434E306800F00700B84209D230687B
:1007C00020F0070038433060306800F00700B8427E
:1007D00051D128683B4C810712D5400703D560688A
:1007E00040F4E06060602878000703D5606840F45A
:1007F000605060606068A96820F0F00008436060A5
:100800002878C00728D06868012810D021680228FD
:1008100010D0890700292EDA616821F00301014315
:100820006160FFF7F1FE804641F288390DE02168F2
:100830008903EFE78901EDE7FFF7E6FEA0EB08018A
:10084000494502D90320BDE8F0876068696800F077
:100850000C00B0EB810FEFD1306800F00700B84218
:100860000BD9306820F0070038433060306800F062
:100870000700B84201D00120E5E72878400705D5F8
:100880006068E96820F4E060084360602878000749
:1008900006D56068296920F4605040EAC1006060B4
:1008A00000F058F86168084AC1F30311515CC84070
:1008B0000649086006480068FFF7C6FE0020C2E748
:1008C0000020024000100240BE3500082000002039
:1008D000180000200F2202600C4A536803F0030343
:1008E0004360536803F0F0038360536803F4E063EC
:1008F000C36052684FF4E06303EAD2020261044825
:10090000006800F007000860704700000010024017
:10091000002002400448054900684968044AC1F3C0
:100920000221515CC84070472000002000100240A6
:10093000CE3500080448054900684968044AC1F3F7
:10094000C221515CC84070472000002000100240C6
:10095000CE3500080E4A51680E4801F00C03042BF6
:1009600011D0082B0FD10C48C1F38343C903C05CDD
:100970000AD55168084AC1F34041921E515C054AAC
:100980005043B0FBF1F07047044948437047000002
:100990000010024000127A00AE35000800093D0048
:1009A0002DE9F84F040070D02078C04DC00749D021
:1009B0006868C0F38100012807D06868C0F381002F
:1009C000022809D16868C00306D52868800339D594
:1009D00060680028E7D035E06068B0F5803F0BD054
:1009E00010B1B0F5A02F11D0286820F48030286015
:1009F000286820F4802002E0286840F480302860D5
:100A0000606890B1FFF700FE06460AE0286840F4EF
:100A100080202860F0E700BFFFF7F6FD801B642808
:100A200073D828688003F7D50CE0FFF7EDFD064684
:100A300005E000BFFFF7E8FD801B6428F0D82868B8
:100A40008003F7D420789A4E80074FF001094FF0C9
:100A5000000839D5686810F00C0F07D06868C0F33B
:100A60008100022809D16868C00306D4286880077D
:100A700014D52069012808D110E02069B0B1C6F86A
:100A80000090FFF7C1FD074605E00AE1FFF7BCFD56
:100A9000C01B0228C4D828688007F7D52868616978
:100AA00020F0F80040EAC10028600DE0C6F80080A0
:100AB000FFF7AAFD074604E0FFF7A6FDC01B0228CA
:100AC00023D828688007F7D4207800072CD57948E8
:100AD000A169D9B1C0F80090FFF796FD074604E080
:100AE000FFF792FDC01B02280FD8686A8007F7D570
:100AF00071484FF4FA510068B0FBF1F0009000BF6C
:100B00000098411E0091FAD20EE080E0C0F800800B
:100B1000FFF77AFD074604E0FFF776FDC01B0228C9
:100B200075D8686A8007F7D42078400760D5E869EF
:100B30000027C00008D4E86940F08050E861E86907
:100B4000012700F0805000905C480168C90513D46B
:100B50000168834641F480710160FFF755FD8246CC
:100B600006E000BFFFF750FDA0EB0A0064284ED856
:100B7000DBF80000C005F5D5E06801280AD008B10F
:100B8000052813D0286A20F001002862286A20F086
:100B9000040002E0286A40F001002862E06841F2A7
:100BA000883B98B1FFF730FD82460BE0286A40F0A1
:100BB00004002862EEE700BFFFF726FDA0EB0A0164
:100BC00059455AD8286A8007F6D50CE0FFF71CFD76
:100BD000824605E0FFF718FDA0EB0A0159454CD805
:100BE000286A8007F6D41FB1E86920F08050E861D8
:100BF000E06988B36968C1F38101022944D0022801
:100C0000C6F8608004D0FFF7FFFC044638E034E00B
:100C1000FFF7FAFC074604E0FFF7F6FCC01B0228CA
:100C20002BD828688001F7D4206AB0F5803F05D121
:100C30006868A16820F4003008436860D4E90801BE
:100C40000843696821F4741108436860C6F860902D
:100C5000FFF7DAFC044606E025E000BFFFF7D4FC0E
:100C6000001B022809D828688001F7D51BE000BFC7
:100C7000FFF7CAFC001B022802D90320BDE8F88F49
:100C800028688001F4D40EE00128F7D06868226A51
:100C900000F48031914204D1616A00F470108842FE
:100CA00001D00120EAE70020E8E700000010024040
:100CB00000004242800442422000002000700040B8
:100CC0007047704710B5040003D094F83D0010B190
:100CD00007E0012010BD002084F83C00204600F011
:100CE0001EF8022084F83D00211D206800F0FAFC67
:100CF000012084F8460084F83E0084F83F0084F820
:100D0000400084F8410084F8420084F8430084F8ED
:100D1000440084F8450084F83D00002010BD704771
:100D200090F83D10012901D001207047022180F880
:100D30003D100168CA6842F00102CA6000680E49AD
:100D400088420ED00D4988420BD0B0F1804F08D0B8
:100D50000B49884205D00B49884202D00A49884293
:100D600004D1816801F00701062903D0016841F030
:100D70000101016000207047002C01400034014057
:100D80000004004000080040000C004070472DE9BE
:100D9000F04104460068C66805694FF00007A907DE
:100DA00013D5B10711D5F91E016101202077206804
:100DB00080698007204602D0FFF7E8FF04E000F0DA
:100DC0007EF8204600F07CF82777680716D5700774
:100DD00014D521686FF00400086102202077206894
:100DE000806910F4407F204602D0FFF7CFFF04E077
:100DF00000F065F8204600F063F82777280715D53E
:100E0000300713D521686FF00800086104202077AF
:100E10002068C0698007204602D0FFF7B7FF04E0D2
:100E200000F04DF8204600F04BF82777E80616D57D
:100E3000F00614D521686FF01000086108202077B3
:100E40002068C06910F4407F204602D0FFF79EFF63
:100E500004E000F034F8204600F032F82777E80785
:100E600008D0F00706D021686FF001000861204625
:100E700000F028F8280608D5300606D521686FF05E
:100E8000800008612046FFF71BFF680608D5700642
:100E900006D521686FF040000861204600F01CF87C
:100EA000A8060AD5B00608D521686FF020000861B1
:100EB0002046BDE8F041FFF704BFBDE8F081704770
:100EC0007047000000680349884201D1FFF7A2BBC8
:100ED00070470000000800407047704770470000EE
:100EE000F8B5016804460868CA684B6910F00F0F2E
:100EF0004FF0000559D003F0010602F49077374314
:100F000065D0C10705D0D10503D5616C41F0010161
:100F10006164410705D5D90703D0616C41F0020136
:100F20006164810705D5D90703D0616C41F00401E4
:100F30006164010707D502F02001314303D0616CE1
:100F400041F008016164616C00293AD0800604D543
:100F5000900602D5204600F042FC20684069616C92
:100F6000C0F38010090700D460B3204600F010FCE5
:100F700020684069400621D52068143050E8001FE1
:100F800021F0400140E80012002AF5D1E06BA8B141
:100F90006D494163E06BFFF799F9002811D0E06BD0
:100FA000416B01B0BDE8F040084783060FD59306BA
:100FB0000DD52046BDE8F84000F011BC2046FFF7F3
:100FC0008DFFF8BD2046FFF789FF6564F8BD266BED
:100FD0002023012E7CD1C6067AD5D60678D508689E
:100FE0004868009048694FF00206400640D5E16B22
:100FF000086840680004000CE8D0A28D8242E5D960
:10100000E085886920282DD020680C3050E8001F2A
:1010100021F4807140E80012002AF5D120681430D4
:1010200050E8001F21F0010140E80012002AF5D12C
:101030002068143050E8001F21F0400140E8001201
:10104000002AF5D184F84230256320680C3050E83E
:10105000001F21F0100140E80012002AF5D1E06BDA
:10106000FFF710F96663A08DE18D401A81B22AE086
:10107000A08DE18D401A81B2E08D0028A6D0002914
:10108000A4D022680C3252E8000F20F4907042E89D
:101090000007002FF5D12068143050E8002F22F00F
:1010A000010240E80027002FF5D184F84230256383
:1010B00020680C3050E8002F22F0100240E8002396
:1010C000002BF5D166632046FFF707FFF8BDFFE769
:1010D00005062BD5150629D594F841002128F5D110
:1010E000A068B0F5805F01D12069B0B1206A411CD1
:1010F0002162216800784860E08C401E0004000CEA
:10110000E084E3D12068C16821F08001C1602068DB
:10111000C16841F04001C160D8E7206A0088C0F38F
:1011200008004860206A801C2062E5E74006CDD5B3
:101130005006CBD5CA68204622F04002CA6084F827
:10114000413000F0C6F8C1E78117000870B504000F
:1011500004D094F84100002510B106E0012070BDD4
:1011600084F84050204600F023F8242084F8410001
:101170002068C16821F40051C160204600F090FB56
:101180002068016921F4904101612068416921F0E2
:101190002A0141612068C16841F40051C160656461
:1011A000202084F8410084F842006563002070BD6F
:1011B00030B585B000240094019402940394006833
:1011C000184988422CD11848816941F480418161D5
:1011D000816901F480410491816941F004018161D8
:1011E0008069124D00F0040004904FF400700090EC
:1011F000022001900320039069462846FFF7FEF87D
:101200002815CDE90004694628460294FFF7F6F850
:10121000002205212520FFF795FA2520FFF784FA03
:1012200005B030BD00380140001002400008014008
:1012300070472DE9F843044690F841009846164659
:101240000D46202802D00220BDE8F88385B17EB18A
:1012500000206064212084F84100FFF7D5F9A684BE
:101260008146E684A0682027B0F5805F02D003E0C5
:101270000120E9E7206910B12E4600250EE0002686
:101280000CE08021204600F067FBA8B9C6B116F833
:10129000010B21684860E08C401EE084E08C4B46E6
:1012A0004FF00002CDF800800028EAD14FF0400155
:1012B000204600F051FB40B184F841700320C3E7A1
:1012C00035F8020BC0F30800E3E784F84170002012
:1012D000BAE77047FEE7000010B50B4A00210B4843
:1012E00000F06AFC0A4C084A0021A0602432094838
:1012F00000F062FC044AE06048320021064800F039
:101300005BFC206110BD00002835000811140008A6
:10131000000000208D140008691500082DE9F04137
:1013200086B00024274800940194029403948169B4
:1013300041F010018161816901F01001049181691E
:1013400041F004018161816901F004010491816926
:1013500041F020018161816901F0200104918169DE
:1013600041F0080181618069174F00F00800049086
:10137000002248213846FFF742F9DFF8508000226A
:1013800020214046FFF73BF92C2001258DE8310054
:1013900069460F48FFF732F848200326CDE90005DB
:1013A000CDE9024669463846FFF728F82020CDE906
:1013B0000005CDE9024669464046FFF71FF806B032
:1013C000BDE8F0810010024000140140000C014013
:1013D000001001400C4810B50A4901604FF4E1319A
:1013E0004160002181600C22C160C0E9041281616A
:1013F000C161FFF7ABFE002803D0BDE81040FEF747
:101400003FBF10BD00380140A4000020FEE7FEE70A
:101410000127DFF870A0DFF870B03E463D4620217E
:1014200054465046FFF7E6F8814604212046FFF770
:10143000E1F8804608212046FFF7DCF80446012F3A
:1014400007D1B9F1000F04D10121DBF80C0000F045
:101450002DFB012E07D1B8F1000F04D10221DBF8DA
:101460000C0000F023FB012D05D124B90421DBF889
:101470000C0000F01BFB4F4646462546142000F0AA
:10148000DAFACCE7001001400000002086B0002707
:101490007D1E182232496846FEF7B2FE314C4FF4E9
:1014A0007A784FF00049EA4660684FF47A71484311
:1014B000B0FBF8F20021072000F032FB0646484559
:1014C00024D8F00706D020784042207001212069FE
:1014D00000F0ECFAB0070FD5606861681E396160F2
:1014E0006168142901D2642161606168884203D077
:1014F0000121206900F0DAFA700707D5607850B34F
:10150000002060700121206900F0D0FA6078002886
:10151000CAD02078012820D0C7F1020046B2AE42DE
:1015200012D0002D07DB0AEBC5015AF83500898877
:101530000022FFF764F80AEBC6015AF836008988E2
:101540000122FFF75CF8354603207F1CB7FBF0F162
:1015500000FB1177A8E70120D3E77EB2DFE70000A8
:101560009435000800000020214C86B04FF0FF3574
:101570002A460021012000F0D3FA607818B12078C3
:10158000012805D00AE01BA007C88DE8070024E069
:101590006068642802D3182219A11BE094F90000A6
:1015A000401C05D16068642802D318221AA111E0FA
:1015B0002078012805D16068642802D214221CA179
:1015C00008E094F90000401CD2D160686428CFD2B2
:1015D00014221CA16846FEF713FE6846FEF734FE8F
:1015E00082B2642369461C48FFF723FEC0E700006F
:1015F00000000020D2D1D4DDCDA30D0A00000000F0
:10160000D5FDD4DAD5FDCFF2D4CBD0D0D6D02E2E86
:101610002E2E2E0D0A000000D5FDD4DAB7B4CFF27D
:10162000D4CBD0D0D6D02E2E2E2E2E0D0A000000D8
:10163000D5FDCFF2BCD3CBD9D6D02E2E2E2E2E0D4B
:101640000A000000B7B4CFF2BCD3CBD9D6D02E2E2F
:101650002E2E2E0D0A000000A400002010B54FF021
:10166000E020006901F064FD012803D0BDE81040CE
:1016700001F0A0B910BD30B58FB028216846FEF743
:10168000D8FD14210AA8FEF7D4FD01210804CDE9F4
:1016900000100024029402250491CDE907504FF474
:1016A000E01009906846FFF77BF908B172B6FEE7D3
:1016B0000F20CDE90A054FF48060CDE90C400221EE
:1016C0000AA80E94FFF770F8002801D072B6FEE762
:1016D0000FB030BD704700000148FFF758BB000055
:1016E000EC000020F0B50268204C214D214E224F25
:1016F000224B4FF0804CA04209D0984207D0604561
:1017000005D0A84203D0B04201D0B84204D122F0A3
:10171000700E4A6842EA0E02A04209D0984207D0F1
:10172000604505D0A84203D0B04201D0B84203D1F1
:1017300022F44075CA682A434D6922F080022A4388
:1017400002608A68C2620A688262A04201D098423E
:1017500001D109690163012141610169C90703D010
:10176000016921F001010161F0BD0000002C014080
:101770000004004000080040000C0040003401401C
:1017800010B5406A0021C185C184FFF7A7FB10BDD9
:1017900001680C3151E8002F22F4907241E80023D7
:1017A000002BF5D10168143151E8002F22F001021D
:1017B00041E80023002BF5D1016B012909D1016813
:1017C0000C3151E8002F22F0100241E80023002BD9
:1017D000F5D1202180F8421000210163704708B53F
:1017E00090F84210222901D0022008BD82684FF4EF
:1017F00080539A4201D1016921B1816A9A421BD07A
:101800004AB10AE00268816A5268C2F308020A809B
:10181000816A891C08E0026972B10268526802F0AC
:101820007F020A70816A491C8162C18D491E0904C8
:10183000090CC18503D01BE002685268F1E701681A
:10184000CA6822F02002CA600168CA6822F4807265
:10185000CA6001684A6922F001024A61202180F8C9
:10186000421000214163026B012A03D0FFF7E0FC24
:10187000002008BD016301680C3151E8002F22F0FF
:10188000100241E80023002BF5D101680A68D20656
:1018900002D50A6849680091818DFFF71EFBE7E7D2
:1018A00070B5044600680169E26821F440511143B3
:1018B00001612169A0680843616908432168CA6819
:1018C00041F20C639A430243CA6020684169A269ED
:1018D00021F44071114341611E492068884202D1C0
:1018E000FFF728F801E0FFF715F800EBC00101EB66
:1018F0000012606864218000B2FBF0F3B3FBF1F3E7
:101900006FF018067343B2FBF0F5B2FBF0F605EB8F
:101910008305322303EB0515B5FBF1F5B6FBF1F6B4
:1019200005F0F00505EB0615B2FBF0F6B2FBF0F0A2
:10193000B0FBF1F06FF01802504306EB800003EBB0
:101940000010B0FBF1F0216800F00F00284488601F
:1019500070BD0000003801402DE9F8439846174655
:101960000D460446089E24E0701C22D0FEF74CFE73
:10197000A0EB0800B0421AD8CEB12068C168490770
:1019800017D5802D15D0402D13D00168C943090704
:101990000FD401680025406800902046FFF7F8FE4C
:1019A0000820606484F840500120BDE8F8830320DB
:1019B000FBE72068006835EA000004D00020B84248
:1019C000D2D00020F1E70120F9E700000148FFF73D
:1019D00087BA0000A4000020FEE70907090E0028CE
:1019E00004DB00F1E02080F80014704700F00F00E5
:1019F00000F1E02080F8141D704702E008C8121FB3
:101A000008C1002AFAD170477047002001E001C1E7
:101A1000121F002AFBD17047FEF704FEFFF72BFED2
:101A2000FFF77CFCFFF7D6FC00F012F8FFF754FC40
:101A300000F020F8FEE710B5EFF3058111B16FF06B
:101A4000050403E0002408B100F07AFE204610BD32
:101A5000EFF3058010B16FF005007047044801688E
:101A600011B14FF0FF307047012101600020704735
:101A70007400002010B5EFF3058010B16FF0050081
:101A800010BD08480168012902D04FF0FF3010BD99
:101A9000054A002182F8141D0221016000F0B8FE01
:101AA000002010BD740000200BE000E03EB50400F3
:101AB00001D0002903DA6FF0030001902BE04FF012
:101AC000FF300190EFF30580D0B1002502A800900F
:101AD0002B4601220295204601F0A8FA002201AB14
:101AE00011462046009501F0A1FA029898B10B49E1
:101AF0004FF080500860BFF34F8FBFF36F8F0AE045
:101B000000230122204601F021FA002201AB1146F8
:101B1000204601F01BFA01983EBD000004ED00E0F4
:101B20002DE9F84F894605464FEA0206EFF3058096
:101B300010B16FF005041EE0002D02DA6FF003040F
:101B400019E05FEA897002D54FF0000800E0A8466E
:101B50000024924601F0FAFA8346E71E53466A468D
:101B60004146002001F05CFB012807D00EB36FF066
:101B700001040028F2D12046BDE8F88F00982C40DF
:101B800004435FEAC9700BD035EA0400F3D056B1C4
:101B900001F0DCFAA0EB0B00504506D9002006E06E
:101BA0002542E8D1F3E73C46E5E7AAEB0000824690
:101BB000D4E73C46DDE700002DE9FF414FEA010391
:101BC0004FF00005EFF30581039549BB40B3802733
:101BD000182100244AB3166806B1344696691EB12E
:101BE0003146761E382E02D21679F60703D0002031
:101BF00004B0BDE8F081566906B1B708D2F808C054
:101C0000BCF1000F0DD0D5685C2D18D312693AB124
:101C100036B18DE806103A46214601F06CF9039082
:101C20000DE0D6685EB912694AB903AACDE900127F
:101C3000BAB2214601F032F9012800D00395039889
:101C4000D6E700002DE9F041134C0F460546E66843
:101C50002068001D00F040FC681C07D137B12168E6
:101C6000BDE8F0410D48091D00F086BC20683544F0
:101C7000B5424560216805D2A06BBDE8F041091D61
:101C800000F062BC606B091D00F05EFCA06A85423A
:101C900000D2A562BDE8F0812400002024060020C7
:101CA0002DE9F041054600F073FC2D4CA068401C66
:101CB000A06020682B4F10B1606930B32BE0256025
:101CC000A068012827D1002606EB860007EB8000DC
:101CD00000F02CFC761C382EF6D3234800F026FCAE
:101CE0002148143000F022FC1F48283000F01EFC70
:101CF0001D483C3000F01AFC1B48503000F016FC28
:101D0000194860631430A06305E02068E96AC06A7E
:101D1000884200D82560606A401C60626864E86A96
:101D20002169884200D9206100EB800007EB800028
:101D3000291D00F021FC00F04BFC606900280CD04C
:101D40002068E96AC06A884207D208494FF080508B
:101D50000860BFF34F8FBFF36F8FBDE8F0810000C5
:101D60002400002074010020D405002004ED00E0D0
:101D700038B500F00DFC104C2068C8B90F4800F0D1
:101D8000D5FB0E48143000F0D1FB0C48E060143055
:101D900020610A4B0020F03B009003F1500210211B
:101DA0000A2000F01DFE206010B105A100F092FC99
:101DB000BDE8384000F00CBC60000020280700207F
:101DC000546D72510000000030B4026C0B46002AC2
:101DD0000BD0C1681144C1608468A14201D301687D
:101DE000C16030BC1846FEF70BBA30BC70472DE915
:101DF000F041856B174604460026026C82B1C7B1DC
:101E0000E068FEF7FDF9E168206C091AE1602268DC
:101E1000914202D2A168081AE060022F16D017E0A2
:101E20002068A8B9A06801F041FA06460020A06029
:101E30000EE06068FEF7E4F9216C606808446060B9
:101E4000A168884204D32068606001E005B16D1E7E
:101E50006D1CA5633046BDE8F08110B5044690F8CE
:101E6000590058B101280CD002280FD0502080F31F
:101E70001188BFF34F8FBFF36F8FFEE7206B00F029
:101E8000BBFB2046BDE8104000F0B6BB10BD000013
:101E900010484FF4A051420706D0C01D0D4920F054
:101EA0000700411AC1F5A0510B4A00230144C2E9C1
:101EB00000030839183A21F0070111604B600B60EC
:101EC0000B1AC0E9001393604FF00040536050615B
:101ED00070470000080E002090000020144E154CA2
:101EE000A6F29C474FF08058DFF84C9012E000BFFC
:101EF00000F04EFBF068C568281D00F0EDFAA06800
:101F0000401EA0606068401E606000F061FB2846D3
:101F1000FFF7A3FF60680028EAD138680128F9D9E3
:101F2000C9F80080BFF34F8FBFF36F8FF2E7000057
:101F3000100600202400002004ED00E070B51D46CE
:101F4000049C51B1C4F80020C4E90F0101212046CE
:101F500000F07AFD84F84C5070BD2460F4E7000076
:101F60002DE9F05F8846DDE90B9415468346910024
:101F70009A460A9EA522206BFEF754F96FF00301E2
:101F8000206B01EB8501084420F00707780707D094
:101F9000502080F31188BFF34F8FBFF36F8FFEE7A0
:101FA0000025B8F1000F0FD05FF00000221818F8DC
:101FB000001082F8341018F8001011B1401C1028DD
:101FC000F4D384F8435001E084F83450382E00D321
:101FD0003726E662C4E91365201D00F0B2FA04F169
:101FE000180000F0AEFA2461C6F138006462A06106
:101FF000656584F8585052465946384600F05AFAFA
:102000002060B9F1000F01D0C9F80040BDE8F09F91
:1020100030B5114900E011460A688242FBD34B6893
:102020005C18844203D140681844486008464368FD
:102030001C18944209D1084C183C2468A24209D0CB
:1020400052681A4442600A6812680260814200D0F5
:10205000086030BD0460F9E79000002070B50024EE
:1020600041600B4D0061914206D8D11A82699142BC
:1020700006D2011D286907E09A4203D2994201D392
:10208000012403E0011DE86800F05EFA204670BDFF
:102090006000002010B5044600F07AFAA06B28B169
:1020A0005FF0000400F094FA204610BD0124F9E727
:1020B00030B589B03C4D6EE00498002806DADDE9C1
:1020C0000601059A90470498002864DB069C606925
:1020D00010B1201D00F000FA03A800F0D7F8024666
:1020E00004980A2857D2DFE800F00505052D334A89
:1020F00005052D3394F8280040F0010084F82800ED
:102100000599A069059B01442046FFF7A7FF68B326
:10211000216A2046884794F8280040073BD50020D4
:1021200000900598A169002342181946204601F045
:10213000C7F9D8B9502080F31188BFF34F8FBFF390
:102140006F8FFEE714F8280F20F00100207022E0C6
:1021500094F8280040F0010084F828000598A06158
:1021600028B1811813462046FFF778FF13E050206E
:1021700080F31188BFF34F8FBFF36F8FFEE794F8A2
:102180002800810703D4204600F036FA03E020F04F
:10219000010084F82800002204A9286800F0A8FDA6
:1021A000002889D109B030BD600000202DE9FC4134
:1021B0000F46054600F070FB01A800F067F80446E2
:1021C000019818B101F0EAF8BDE8FC81254EAFB1E5
:1021D00030690068D0B30027291B3A46306800F008
:1021E0008DFA01F0DBF80028EED11F494FF0805046
:1021F0000860BFF34F8FBFF36F8FE5E7A542EBD8C1
:1022000001F0CCF8F0682746C068C468201D00F0D3
:1022100063F994F82800410719D5A0692B464119A4
:102220003A462046FFF71AFFA8B1002003460146B0
:1022300000902A46204601F043F960B9502080F30F
:102240001188BFF34F8FBFF36F8FFEE707E020F0D9
:10225000010084F82800216A20468847B4E7012756
:10226000BAE700006000002004ED00E00648416B82
:10227000096829B1416BC968C968496881627047BA
:102280004FF0FF31FAE700002400002070B505464A
:1022900000F05CFF064E0446B068844203D200F0B2
:1022A00009F8012000E0002028602046B46070BDDD
:1022B00060000020F8B5194D20E0C068C4680668C9
:1022C000201D00F009F9216A2046884794F828006B
:1022D000400713D5A0693044B04206D9246160603C
:1022E000211DE86800F030F908E0002003460146AF
:1022F00000903246204601F0E3F838B1E868016802
:102300000029DAD12969C5E90310F8BD502080F30E
:102310001188BFF34F8FBFF36F8FFEE7600000207F
:1023200008484068401C4FF0500080F3118804D0EA
:10233000BFF34F8FBFF36F8FFEE7BFF34F8FBFF336
:102340006F8FFEE798000020074CE068016841B1FC
:10235000C0680021D0F80000FFF728FFFFF7A8FEB3
:10236000F3E701210020F7E7600000202DE9F041AC
:10237000044600F00DF994F9455004F1240609E0F3
:10238000606A48B1304600F0D1FF08B100F006FAAB
:102390006D1E6DB2002DF3DC4FF0FF3684F8456002
:1023A00000F016F900F0F4F894F9445004F1100725
:1023B00009E0206948B1384600F0B8FF08B100F0E4
:1023C000EDF96D1E6DB2002DF3DC84F84460BDE8BC
:1023D000F04100F0FDB800002DE9F041054600276E
:1023E00000F05AFA324E306808B9FFF751FD7069B3
:1023F00005424ED1C5B3083568070ED005F0070079
:10240000C0F108000544680707D0502080F3118808
:10241000BFF34F8FBFF36F8FFEE72DB37068854218
:1024200037D82348183001460C6801E020460C4696
:102430006168A94202D221680029F7D131688C4233
:1024400027D007682168016060680837411B1029A0
:102450000FD96019420708D0502080F31188BFF3CC
:102460004F8FBFF36F8FFEE713E041606560FFF7AA
:10247000CFFD61687068401A7060B268904200D207
:10248000B060706901430020C4E90001F068401C9D
:10249000F06000F083FF780707D0502080F31188A8
:1024A000BFF34F8FBFF36F8FFEE73846BDE8F08173
:1024B0007800002010B5031F4FF080741C601B1FB4
:1024C00021F001011960191F024B0B6014394038CB
:1024D0000A6010BD21230008D0E9013201699A6029
:1024E000D0E901235A604A68824201D182684A6079
:1024F000002202610868401E0860086870470000FA
:10250000034B036003F15C0008608020106070479B
:1025100050070020044B036003F15C0008604FF497
:102520008070106070470000AC09002000F10801C5
:102530004FF0FF32C0E90112C1600161002101606A
:10254000704700210161704730B50B685A1C02D0FA
:1025500000F1080202E0026904E02246546825689E
:102560009D42FAD953684B6099608A605160086156
:102570000168491C016030BD42684A6093688B6005
:1025800093685960916008610168491C0160704757
:10259000502080F31188BFF34F8FBFF36F8F0A492C
:1025A0004868401C486001280CD10848006810F0B9
:1025B000FF0F07D0502080F31188BFF34F8FBFF378
:1025C0006F8FFEE7704700009800002004ED00E0E8
:1025D0000849486828B1401E486001D180F311883D
:1025E0007047502080F31188BFF34F8FBFF36F8F78
:1025F000FEE700009800002070B500282AD0164D94
:10260000A0F1080460686969084207D1502080F38E
:102610001188BFF34F8FBFF36F8FFEE722683AB187
:10262000502080F31188BFF34F8FBFF36F8FFEE709
:102630008843606000F030F9606869680844686049
:102640002046FFF7E5FC2869401C2861BDE8704082
:1026500000F0A4BE70BD0000780000204FF0E02024
:1026600000210161816105494FF47A720968B1FB6B
:10267000F2F1491E416107210161704720000020ED
:1026800010B5FDF7A7FD114910280ED300F1E02089
:1026900090F8F0030A78904207D2502080F3118816
:1026A000BFF34F8FBFF36F8FFEE70948006889685B
:1026B00000F4E060884207D9502080F31188BFF30E
:1026C0004F8FBFF36F8FFEE710BD00009800002012
:1026D0000CED00E010B5084B002200BF53F832406B
:1026E0001CB1521C082AF9D310BD43F8321003EB79
:1026F000C201486010BD00003401002070B51546CD
:102700000E460446FFF744FF94F944100020491C8C
:1027100001D184F8440094F94510491C01D184F892
:102720004500FFF755FFA06B28B92A46314604F152
:10273000240000F051F82046BDE87040FFF716BEB7
:1027400010B5020014D00F48006B38B1502080F350
:102750001188BFF34F8FBFF36F8FFEE700F09CF837
:1027600000211046FFF76EFA00F018FE002807D18E
:1027700005494FF080500860BFF34F8FBFF36F8F54
:1027800010BD00002400002004ED00E002490A6AA8
:102790000260C9684160704724000020014901209F
:1027A000C86170472400002010B50C4650B109499B
:1027B00009681831FFF7C8FE2046BDE81040012126
:1027C000FFF740BA502080F31188BFF34F8FBFF35B
:1027D0006F8FFEE72400002070B514460D4668B1E7
:1027E0000A4909681831FFF7C7FE0CB14FF0FF35F1
:1027F00021462846BDE87040FFF724BA502080F3F8
:102800001188BFF34F8FBFF36F8FFEE724000020C6
:1028100030B587B00024039405AA04A903A8049442
:10282000FFF76EFEDDE903010094CDE901100023FE
:1028300015A11748059A00F05EFB164D0028E862C6
:102840001FD000F00DFE012809D0401C19D15020E6
:1028500080F31188BFF34F8FBFF36F8FFEE75020D7
:1028600080F31188BFF34F8FBFF36F8F4FF0FF30AE
:10287000A86201206861EC6007B0BDE8304000F05C
:1028800045B807B030BD000049444C450000000089
:10289000DD1E0008240000200248016B491C016372
:1028A0007047000024000020164810B5016B11B1DC
:1028B0000121C16110BD0021C1610169124A01E01D
:1028C000B9B1491E01EB810352F82330002BF7D038
:1028D00001EB810302EB830202F1080453685B6899
:1028E0005360A34201D15B685360DA680260016102
:1028F00010BD502080F31188BFF34F8FBFF36F8F4F
:10290000FEE7000024000020740100201CB52649C9
:1029100008780190FF20087008788DF800009DF875
:1029200000009DF8002000F0F000904207D05020F9
:1029300080F31188BFF34F8FBFF36F8FFEE79DF8D1
:1029400000001A4C00F0500020700720A06005E045
:102950009DF8002052008DF80020401E9DF80020B8
:102960001206F5D4A060032807D0502080F3118808
:10297000BFF34F8FBFF36F8FFEE74FF44070A0603F
:10298000019808700A48016841F47001016001680B
:1029900041F070410160FFF761FE00206060FDF7CB
:1029A000E3FB00201CBD000000E400E098000020D4
:1029B00020ED00E010B5502080F31188BFF34F8F59
:1029C000BFF36F8F00F0C8FB18B104494FF080507F
:1029D0000860002080F3118810BD000004ED00E0C5
:1029E00038B5049D18B153B1CAB181B120E050206F
:1029F00080F31188BFF34F8FBFF36F8FFEE7502036
:102A000080F31188BFF34F8FBFF36F8FFEE7502025
:102A100080F31188BFF34F8FBFF36F8FFEE739B19B
:102A2000502080F31188BFF34F8FBFF36F8FFEE705
:102A300050241C46012384F846302B460094FFF7AF
:102A40007DFA204638BD000070B50D46040025D043
:102A5000FFF79EFDD4E90F20216802FB0011A16061
:102A60000021A163216861600A46D4E90F01401E7C
:102A700000FB0121E16021464FF0FF3001F8440FD7
:102A8000487004F110008DB1FFF750FD04F12400EF
:102A9000FFF74CFDFFF79CFD012070BD502080F337
:102AA0001188BFF34F8FBFF36F8FFEE721690029B5
:102AB000F0D000F03BFC0028ECD004494FF08050EF
:102AC0000860BFF34F8FBFF36F8FE3E704ED00E0C3
:102AD0002DE9FF4782B01D468A464FF000080400EA
:102AE00003D0BAF1000F08D011E0502080F3118814
:102AF000BFF34F8FBFF36F8FFEE7206C38B15020CC
:102B000080F31188BFF34F8FBFF36F8FFEE7022D65
:102B10000AD1E06B012807D0502080F31188BFF361
:102B20004F8FBFF36F8FFEE700F002FB3F4F4FF078
:102B300000094FF0805648B9049838B1502080F30E
:102B40001188BFF34F8FBFF36F8FFEE7FFF720FDB4
:102B5000A06BE16B884207D3022D05D00498D0B159
:102B6000B8F1000F1AD01EE02A4651462046FFF762
:102B70003EF9616A19B104F1240000F0D7FB20B1DD
:102B80003E60BFF34F8FBFF36F8FFFF721FD012032
:102B900006B0BDE8F087FFF71BFD22E06846FFF7AF
:102BA000F5FD4FF00108FFF713FDFFF775FEFFF786
:102BB000EFFC94F94400401C01D184F8449094F94E
:102BC0004500401C01D184F84590FFF701FD04A9A0
:102BD000684600F029F930B12046FFF7C7FB00F046
:102BE000DDFB0020D4E7FFF7D3FCA06BE16B88424C
:102BF00013D1FFF7EDFC04F110000499FFF7D4FDA9
:102C00002046FFF7B3FB00F0C9FB00289ED13E60D1
:102C1000BFF34F8FBFF36F8F98E7FFF7D9FC2046C4
:102C2000FFF7A4FB00F0BAFB90E7000004ED00E022
:102C30002DE9F0471F4690468946040003D0B9F1BC
:102C4000000F08D011E0502080F31188BFF34F8FA0
:102C5000BFF36F8FFEE7206C38B1502080F31188EE
:102C6000BFF34F8FBFF36F8FFEE7022F0AD1E06BE8
:102C7000012807D0502080F31188BFF34F8FBFF396
:102C80006F8FFEE7FFF7FCFC5020EFF3118680F317
:102C90001188BFF34F8FBFF36F8FA06BE16B88423A
:102CA00006D3022F04D0002086F31188BDE8F087F8
:102CB00094F94550A06B3A4649462046FFF797F8ED
:102CC000681C04D06D1C84F845500120ECE7606A54
:102CD0000028FAD004F1240000F028FB0028F4D0EA
:102CE000B8F1000FF1D00121C8F80010EDE70000A5
:102CF0002DE9F747002683B08A46040003D0BAF1D5
:102D0000000F08D011E0502080F31188BFF34F8FDF
:102D1000BFF36F8FFEE7206C38B1502080F311882D
:102D2000BFF34F8FBFF36F8FFEE700F001FADFF8BC
:102D3000F4804FF000094FF0805748B9059838B13A
:102D4000502080F31188BFF34F8FBFF36F8FFEE7E2
:102D5000FFF71EFCA56BC5B151462046FFF734F8BE
:102D60006D1EA563206950B104F1100000F0DEFA79
:102D700028B1C8F80070BFF34F8FBFF36F8FFFF714
:102D800027FC012006B0BDE8F087059808B11EB108
:102D900006E0FFF71DFC27E06846FFF7F7FC012679
:102DA000FFF716FCFFF778FDFFF7F2FB94F94400FC
:102DB000401C01D184F8449094F94500401C01D195
:102DC00084F84590FFF704FC05A9684600F02CF84C
:102DD000002820460AD0FFF7C9FA00F0DFFA2046A3
:102DE000FFF758F90028B3D00020CBE7FFF752F9DE
:102DF00090B104F124000599FFF7D6FC2046FFF7B7
:102E0000B5FA00F0CBFA0028A2D1C8F80070BFF3E1
:102E10004F8FBFF36F8F9BE72046FFF7A7FA00F0B5
:102E2000BDFA95E704ED00E02DE9F0410C46050000
:102E300011D0C4B1FFF7ACFB174BDA686E6820689D
:102E4000911B471C17D02F681B6A9F4219D09642CE
:102E500017D8012410E0502080F31188BFF34F8F62
:102E6000BFF36F8FFEE7502080F31188BFF34F8FC1
:102E7000BFF36F8FFEE70024FFF7AAFB2046BDE8F3
:102E8000F081884205D9401A20602846FFF77EFC71
:102E9000F1E700202060DCE7240000202DE9FF5F3F
:102EA0008346DDE90E87994616468A469000FFF76D
:102EB00093FA05001CD05C20FFF78EFA040014D0B2
:102EC0000020256384F85900CDE90240CDE9008750
:102ED0004B46324651465846FFF742F82046FEF729
:102EE000DFFE012004B0BDE8F09F2846FFF784FB19
:102EF0004FF0FF30F6E7F0B585B0DDE90B640A9DD1
:102F0000A6B1DCB15C2700972663022684F85960DD
:102F1000002604AFCDE90246CDE90057FFF720F8BF
:102F20002046FEF7BDFE049805B0F0BD502080F3AA
:102F30001188BFF34F8FBFF36F8FFEE7502080F3F0
:102F40001188BFF34F8FBFF36F8FFEE72DE9F0417C
:102F50001F4690460D46012690B10446FFF718FB28
:102F60000FB1606D386094F85800022184F8581051
:102F7000B8F1050F19D2DFE808F0230B0E14120088
:102F8000502080F31188BFF34F8FBFF36F8FFEE7A0
:102F9000616D294301E0616D491C616510E0022803
:102FA00001D065650CE0002634E0616D491C07D056
:102FB000502080F31188BFF34F8FBFF36F8FFEE770
:102FC000012827D1201DFFF787FA154DE06A2969EE
:102FD000884200D92861134900EB800001EB800092
:102FE000211DFFF7C9FAA06A38B1502080F311887B
:102FF000BFF34F8FBFF36F8FFEE7E06A2968C96A9E
:10300000884207D908494FF080500860BFF34F8FBE
:10301000BFF36F8FFFF7DCFA3046BDE8F0810000A8
:10302000240000207401002004ED00E02DE9F047A9
:103030001F46DDF8209092460D4604004FF001082F
:103040001AD0FFF71DFB5020EFF3118680F3118893
:10305000BFF34F8FBFF36F8F0FB1606D386094F87F
:103060005800022184F85810BAF1050F1AD2DFE88F
:103070000AF0240B0E141200502080F31188BFF3C5
:103080004F8FBFF36F8FFEE7616D294301E0616DE4
:10309000491C616511E0022801D065650DE04FF023
:1030A000000839E0616D491C07D0502080F3118879
:1030B000BFF34F8FBFF36F8FFEE701282CD1A06ABB
:1030C00038B1502080F31188BFF34F8FBFF36F8F5B
:1030D000FEE7144D286B18B104F1180112480DE0F9
:1030E000201DFFF7F9F9E06A2969884200D92861B3
:1030F0000E4900EB800001EB8000211DFFF73CFA38
:10310000E06A2968C96A884206D90120B9F1000F2E
:1031100001D0C9F80000E86186F311884046BDE897
:10312000F087000024000020FC050020740100202E
:103130000548416919B1006B18B1002070470120A2
:103140007047022070470000240000200148C0683A
:1031500070470000240000202DE9F0412E4C00278C
:10316000206B28B1A069401CA0613846BDE8F08101
:10317000E668761CE66013D1606B006838B15020B9
:1031800080F31188BFF34F8FBFF36F8FFEE7606B43
:10319000A16B6163A063206A401C2062FFF766F8A0
:1031A000A06ADFF87880864209D3606B0068A0B11E
:1031B000606BC068C5686868864211D2A0622068EA
:1031C000C06A00EB800158F82100012800D90127CE
:1031D000E0690028C9D00127C7E74FF0FF30EDE7CD
:1031E000281DFFF779F9A86A18B105F11800FFF753
:1031F00073F9E86A2169884200D9206100EB8001F7
:1032000008EB8100291DFFF7B7F9E86A2168C96A50
:103210008842CAD30127C8E7240000207401002097
:103220002DE9F0411E46154688460746FFF7B0F9DE
:103230001C4C206890F85800022814D02068416D7A
:10324000B94341652168012081F858005EB1012130
:103250003046FEF7F7FC14494FF080500860BFF38A
:103260004F8FBFF36F8FFFF7B3F9FFF791F915B1E8
:103270002068406D2860206890F85800022801D02E
:10328000002505E02068416D21EA0801416501251E
:103290002168002081F85800FFF79AF92846BDE818
:1032A000F08100002400002004ED00E070B504006F
:1032B0004FF0000133D01B4D2868844207D05020C6
:1032C00080F31188BFF34F8FBFF36F8FFEE7206D40
:1032D00038B1401E2065E36CE26A9A421FD040B1CB
:1032E0001DE0502080F31188BFF34F8FBFF36F8F25
:1032F000FEE7201DFFF7F0F8E06CE062C0F1380057
:10330000A061E06A2969884200D92861064900EB7A
:10331000800001EB8000211DFFF72EF901210846F6
:1033200070BD0000240000207401002070B5C0684A
:10333000C46854B104F118000646FFF7CDF8144DE7
:10334000286B50B13146134815E0502080F31188A6
:10335000BFF34F8FBFF36F8FFEE7201DFFF7BCF861
:10336000E06A2969884200D928610B4900EB800096
:1033700001EB8000211DFFF7FFF8E06A2968C96AA8
:10338000884202D90120E86170BD002070BD0000B4
:1033900024000020FC050020740100202DE9F047E6
:1033A0002C4D00242746286B38B1FFF7F1F8286B25
:1033B000401E2863286B40B146E0502080F31188FE
:1033C000BFF34F8FBFF36F8FFEE7A968224E012036
:1033D000D1B3A6F5916980463068E0B1F068C46861
:1033E00004F11800FFF778F8201DFFF775F8E06A80
:1033F0002969884200D9286100EB800109EB81002E
:10340000211DFFF7B9F8E06A2968C96A8842E3D349
:10341000C5F81C80E0E70CB1FEF728FFAC694CB1A1
:103420004FEA0806FFF798FE00B1EE61641EF9D17D
:103430000020A861E86938B1084901273807086009
:10344000BFF34F8FBFF36F8FFFF7C2F83846BDE869
:10345000F087000024000020FC05002004ED00E0BF
:1034600010B586B0FEF784FC114C2068B8B100207E
:103470000390049005AA04A903A8FFF74BF8DDE91F
:10348000032102208DE8070000230AA10B48059ABA
:10349000FFF731FD606010B106B0012010BD502073
:1034A00080F31188BFF34F8FBFF36F8FFEE70000EB
:1034B00060000020546D7220537663004923000899
:1034C0002DE9FF411E46134602000A9D4FF0000001
:1034D00016D0144C2768002F0FD0CDE900130292AC
:1034E000062917DAFFF724FE02284FF000030FD059
:1034F000002269462068FFF7EBFA04B0BDE8F081CE
:10350000502080F31188BFF34F8FBFF36F8FFEE71A
:103510002A46EEE70023324669463846FFF788FB25
:10352000EBE7000060000020EC3500080000000020
:103530000000000000000000000000000002000089
:10354000180000000000000000000000D83500084E
:10355000000000000000000000000000000000006B
:103560000002000008000000000000000000000051
:10357000E03500080000000000000000000000002E
:103580000000000000020000180000000000000021
:1035900000000000000C0140200000000014014069
:1035A0004000000000140140080000000102020376
:1035B0000405060708090A0B0C0D0E0F1010000079
:1035C00000000000000001020304060708090000D3
:1035D00000000102030400004C45445461736B0079
:1035E000556172745461736B000000004B6579542F
:1035F00061736B001436000800000020A400000076
:10360000FA190008B8360008A4000020642500005C
:103610000A1A000801010000640000000000000018
:103620000000000000000000010000001000000089
:103630000000000000127A000000000000000000FE
:10364000000000000000000000000000000000007A
:10365000000000000000000000000000000000006A
:10366000000000000000000000000000000000005A
:10367000000000000000000000000000000000004A
:10368000000000000000000000000000000000003A
:10369000000000000000000000000000000000002A
:1036A000000000000000000000000000000000001A
:0836B000AAAAAAAA000000006A
:0400000508000131BD
:00000001FF
