:020000040800F2
:100000009028002091020008C33400084333000800
:10001000C1340008652100088D3900080000000087
:10002000000000000000000000000000F9010008CE
:1000300067210008000000003D020008DD350008CF
:10004000AB020008AB020008AB020008AB020008DC
:10005000AB020008AB020008AB020008AB020008CC
:1000600069210008AB020008AB020008AB020008DF
:10007000AB020008AB020008AB020008AB020008AC
:10008000AB020008AB020008AB020008AB0200089C
:10009000AB020008AB020008AB020008AB0200088C
:1000A000AB020008AB020008AB020008AB0200087C
:1000B000AB020008AB02000859360008AB0200088A
:1000C000AB020008AB020008AB020008AB0200085C
:1000D000AB02000881390008AB020008AB0200083F
:1000E000AB020008AB020008AB020008AB0200083C
:1000F000AB020008AB020008AB020008AB0200082C
:10010000AB020008AB020008AB020008AB0200081B
:10011000AB020008AB020008AB020008AB0200080B
:10012000AB020008AB020008AB020008AB020008FB
:1001300000F002F800F050F80AA090E8000C8244A9
:100140008344AAF10107DA4501D100F045F8AFF286
:10015000090EBAE80F0013F0010F18BFFB1A43F0A5
:1001600001031847945C0000B45C0000103A24BFFF
:1001700078C878C1FAD8520724BF30C830C144BF0C
:1001800004680C607047000000230024002500264E
:10019000103A28BF78C1FBD8520728BF30C148BFEA
:1001A0000B607047662905F0BC84642900F0A480C8
:1001B000002070471FB500F02FFD04000020002133
:1001C00005F0F6F9401C60600020002105F0DAF926
:1001D000E0601FBD10B510BD00F04AFE1146FFF7EC
:1001E000E9FF03F0FBFC01F0EDF803B4FFF7F2FFC9
:1001F00003BC01F05BFB0000224B19680868B0E803
:10020000F00F80F30988BFF36F8F4FF0000080F389
:1002100011884EF00D0E704700000000064800687F
:10022000006880F3088862B661B6BFF34F8FBFF3F2
:100230006F8F00DF00BF00BF08ED00E0EFF3098023
:10024000BFF36F8F0F4B1A6820E9F00F106008B5ED
:100250004FF0500080F31188BFF34F8FBFF36F8FC3
:1002600004F01AFC4FF0000080F31188BDE808404C
:1002700019680868B0E8F00F80F30988BFF36F8F42
:10028000704700BF38000020EFF305807047000082
:100290000948804709480047FEE7FEE7FEE7FEE71A
:1002A000FEE7FEE7FEE7FEE7FEE7FEE70448054956
:1002B000054A064B7047000055360008310100081A
:1002C00090220020902800209024002090240020DC
:1002D0000FB41CB5074B06AA7B44694600900598ED
:1002E00000F02FFC0020694600F03EFC1CBC5DF8CD
:1002F00014FB00008D0800002DE9F04106460024A3
:1003000010687529314616A510D0AFF3008000287B
:1003100002DA404213A507E031688A0701D512A529
:1003200002E0490704D511A5012401E0AFF30080E4
:1003300000210A2206F1240709E0B0FBF2FCB0FB21
:10034000F2F302FB1C00303078541846491C002898
:10035000F3D123462A463046BDE8F04100F084B987
:10036000000000002D0000002B0000002000000015
:100370002DE9F0474FF0000A89460446C0F820A056
:100380002046E1688847002876D0252806D0D4E9A1
:1003900001219047206A401C2062F1E7E168204675
:1003A00000258847C4F81CA006460027C4F818A0FA
:1003B0002A2E09D0304603F08EFB38B304EB8708B1
:1003C000303EC8F8186019E059F8041B204604EBC9
:1003D00087029161E1688847012F064618D1E069DC
:1003E000002820DA25F020051DE0D8F8180000EBE1
:1003F000800006EB40003038C8F818002046E1685D
:100400008847064603F067FB0028EED1012F0AD08B
:100410002E2E08D12046E16888477F1C0646022F11
:1004200045F02005C4DBA069002803DA404245F00E
:100430000105A061E80701D025F01005B6B1A6F1CD
:100440004100192802D8203645F400654A46314655
:10045000204625604D46FFF7A5FE58B1012806D07D
:10046000ED1D25F0070000F1080989E704E005F11A
:10047000040985E730468AE7206ABDE8F08710B5B1
:10048000431C02E010F8011B71B18107FAD14FF053
:10049000013202C88C1A8C4314EAC211F9D0C01A76
:1004A0000A0603D0C01E10BDC01A10BD0A0401D038
:1004B000801E10BD0902FCD0401E10BD032A40F270
:1004C000308010F0030C00F0158011F8013BBCF1F6
:1004D000020F624498BF11F801CB00F8013B38BF0E
:1004E00011F8013BA2F1040298BF00F801CB38BF1C
:1004F00000F8013B11F0030300F02580083AC0F03A
:10050000088051F8043B083A51F804CBA0E80810E1
:10051000F5E7121D5CBF51F8043B40F8043BAFF314
:100520000080D20724BF11F8013B11F801CB48BF6E
:1005300011F8012B24BF00F8013B00F801CB48BFA4
:1005400000F8012B704710B5203AC0F00B80B1E8DD
:100550001850203AA0E81850B1E81850A0E81850F8
:10056000BFF4F5AF5FEA027C24BFB1E81850A0E801
:10057000185044BF18C918C0BDE810405FEA827C1B
:1005800024BF51F8043B40F8043B08BF7047D20732
:1005900028BF31F8023B48BF11F8012B28BF20F8D3
:1005A000023B48BF00F8012B704702F0FF0343EA0B
:1005B000032242EA024200F002B84FF0000204298E
:1005C000C0F0128010F0030C00F01B80CCF1040C82
:1005D000BCF1020F18BF00F8012BA8BF20F8022BB6
:1005E000A1EB0C0100F00DB85FEAC17C24BF00F85C
:1005F000012B00F8012B48BF00F8012B70474FF08A
:10060000000200B5134694469646203922BFA0E862
:100610000C50A0E80C50B1F12001BFF4F7AF09076E
:1006200028BFA0E80C5048BF0CC05DF804EB89005F
:1006300028BF40F8042B08BF704748BF20F8022BA2
:1006400011F0804F18BF00F8012B704770477047BA
:10065000704710B500F0E4FA006810BD10B504460C
:1006600000F0DEFA046010BD2DE9F0470D46994612
:100670009246044600F124080168880604D5E06922
:1006800021F01001216000E00120A84201DD471B9C
:1006900000E00027A1697A1902EB0900081AA0619D
:1006A0002078C00602D42046AFF30080002608E080
:1006B000D4E901211AF806009047206A401C761CF4
:1006C00020624E45F4DB2078C0060AD52046AFF301
:1006D000008006E0D4E9012130209047206A401CC8
:1006E0002062381EA7F10107F4DC07E0D4E90121FC
:1006F00018F805009047206A401C2062281EA5F1CA
:100700000105F3DC2046AFF300802078000602D517
:100710000220BDE8F0870120FBE770472DE9FF4F7D
:100720000C461E464FF0FF378BB0D2E90001DDF8D2
:1007300060800A908A46C1F30A5505B93D460021FA
:1007400008464FF00000BAF1000F00F4400005DA4F
:1007500000EB80004FF4400101EA50004FEA90594D
:10076000B9F1010F00DDB9460A9850EA4A000ED0EF
:1007700044F61050A5F2FF3545432F14B8F1000F91
:100780001ED07542291E1EDDC9F100021CE0B8F121
:10079000010F4FF0000001D0302103E0F24305E0EB
:1007A0002154401CB042FBDB304600220021215482
:1007B0000B99C1F80880C1E900200FB0BDE8F08FA7
:1007C000BD1B6D1CDEE74A4600DA694206A800F050
:1007D000D9FA06AB93E8070003AB83E8070050465D
:1007E0000A9901F08BF88DE80700A0F500501F383A
:1007F00000900398002D0ADD42F21F014A4608448A
:10080000002303A90390684601F036FB09E0A0F538
:1008100000504A461F38002303A90390684601F0A0
:1008200055FB8DE807000004000C03D04FF0FF30AB
:10083000410800E01046B8F1000F03D000220092FA
:1008400015461EE0751E05D400F0EEF930326255F3
:100850006D1EF9D5B3460122084302D000227F1C49
:1008600004E02078302801D100227F1E002A099759
:1008700084D01DE0112D07DA00F0D6F93032625530
:100880006D1C50EA0102F5D1084302D00098C8B1AE
:100890000EE00021681E05E0235C625C6354225474
:1008A000401E491C8142F7DBAB46A81B401E099045
:1008B000002004F80B000B98099AC0F80880C0E9E2
:1008C000002B7AE711264FF0000857E72DE9F04F8B
:1008D00088460446D21D22F0070191B0D1E90001FB
:1008E000CDE90A0103F053F802460B98C00F01D07E
:1008F0002D2007E02068810701D52B2002E0202170
:1009000001EAC000032A099001D0072A05DB03464B
:100910004146204600F0D6F90BE12078800601D54B
:10092000E06900E00620B8F1650F814606D0B8F115
:10093000660F18D0B8F1670F70D131E00020B9F11F
:10094000110F009001DB112301E009F101030AAA54
:1009500001A90CA8FFF7E2FEDDE90C70002609F101
:100960000105834647E001204B4600904FF00047C9
:100970000AAA01A90CA8FFF7D1FEDDE90DB00C9978
:100980005D46002610B909F101000D18B9EB05000C
:1009900003D4C0F1FF3609F10105A5EB09002BE0F6
:1009A000B9F1010F01DA4FF001090020B9F1110F7F
:1009B0000090484601DD112300E003460AAA01A980
:1009C0000CA8FFF7ABFEDDE90C704D460026834610
:1009D000207800070AD4AB4500DA5D4601A8012D56
:1009E00004DD411911F8011C302907D04F4502DA06
:1009F00017F1040F04DA012082460FE06D1EEEE7C6
:100A0000002F02DCED1B3E4403E0781CA84200DD11
:100A10007D1CB81B00F1010A4FF000472078000749
:100A200003D4AA4501DB4FF0FF3A0021B7F1004F94
:100A30000DF143088DF8431024D002202B23002F02
:100A400001DA7F422D230A21021EA0F1010000DC01
:100A50005FB197FBF1FC97FBF1F201FB1C7C1746A1
:100A60000CF1300C08F801CDEEE7A8F1010003709D
:100A70002188090501D5452100E06521A0F1010883
:100A800000F8011C09980FA9A1EB0807FF1D00B190
:100A90000120411901EBEA70A1693844081A401E8F
:100AA000A0612078C00602D42046AFF300800998E8
:100AB00028B1D4E901219047206A401C20622078A7
:100AC000C00622D52046AFF300801EE0002E04DBD6
:100AD000B34502DD01A8805D00E03020D4E90121AA
:100AE0009047206A401C2062761CAAF101005FEA50
:100AF000000A0AD100F090F8C0680168405CD4E9AF
:100B000001219047206A401C2062281EA5F10105A2
:100B1000DCDC07E0D4E9012118F8010B9047206ADA
:100B2000401C2062381EA7F10107F3DC2046AFF31A
:100B30000080032011B041E601694A1C0261087877
:100B4000704700B58FB0CDE901310021059105490D
:100B50007944CDE9031011466846FFF709FC0FB050
:100B600000BD0000E5FFFFFF0A6802F8010B0A6004
:100B7000704700000FB4002300B589B00CA90091A4
:100B80000B99CB60214B7B440693214B7B4407930D
:100B900004236FF00042CDE901321E4A7A446B46CD
:100BA00008920246002005F01EF809B05DF814FB1B
:100BB00070B506464FF0FF3015460C46324686B0FB
:100BC0000091CDE9010169460020049004A8FFF7D7
:100BD000D1FF02460498211825B108B1084600E06B
:100BE00020462860049800280DD0002A02DD0098D5
:100BF000884208D03246081B69460094CDE90104BA
:100C000004A8FFF7B7FF06B070BD0000BB010000ED
:100C1000D301000013010000004870474C2200205F
:100C2000004870472C22002030B5B0F10A024FEA8C
:100C3000900E71F100034EEA817EB0EB0E0061EB85
:100C400091014FEA101E4EEA017E10EB0E0041EBBF
:100C500011114FEA102E4EEA016E10EB0E0041EB1F
:100C600011214FEA104E4EEA014E10EB0E0041EBFF
:100C70001141401841F100014FEAD00040EA4170B3
:100C80004FEAD10110EB80054FEA810444EA9074E9
:100C900044EB01046D1944EB0404521BA3414FF0D3
:100CA000000348BF0A3200D530BD401C41F10001AD
:100CB00030BD10B5044600F001F90068005D00F099
:100CC000010010BD2DE9F0411F46044603260168CE
:100CD000072A01F4006004DB08B116A505E016A59B
:100CE00003E008B115A500E015A521F01000206073
:100CF000A069C01EA0610FB1401EA0612046AFF3E5
:100D000000804FB1D4E9012138469047206A401C49
:100D10002062C01C206206E0206AFAE7D4E90121C3
:100D200015F8010B9047761EF8D22046AFF30080ED
:100D3000BDE8F0814E414E006E616E00494E4600A6
:100D4000696E6600426842B1016811F8013B23B147
:100D5000521EC0E90012184670470121C160881E6A
:100D6000704742685AB1C368016843B983688B42CF
:100D700005D0491E521CC0E90012002070474FF0F8
:100D8000FF3070472DE9F047814616468AB0354856
:100D900078440DC88DE80D0032487844801C03ACBF
:100DA0000DC884E80D0041F69B300844372190FBC4
:100DB000F1F290FBF1F5A5F1800501FB12041B3C5B
:100DC00002D56442012000E00020DFF898A08046B0
:100DD0000027FA44AAF1BE0A0EE0E0070AD0324624
:100DE000684607EB470101230AEB810101F06EF829
:100DF0008DE8070064107F1C002CEED1194F7F4452
:100E0000AE3F19E0E80715D007EB04100DF1180A02
:100E100090E80E008AE80E00C068F04201D19819EF
:100E200008903246012306A903A801F04FF803AB4E
:100E300083E807006D10641C002DE3D14FF001031F
:100E400032466946B8F1000F03A802D001F014F849
:100E500001E001F03BF8C9E90001C9F808200AB037
:100E6000BDE8F08704500000004870472C220020A5
:100E70007546FFF7F9FFAE4605006946534620F078
:100E80000700854618B020B5FFF710FABDE82040EE
:100E90004FF000064FF000074FF000084FF0000B36
:100EA00021F00701AC46ACE8C009ACE8C009ACE8E9
:100EB000C009ACE8C0098D467047000010B5FFF7C7
:100EC000ABFE001D10BD00BFE94600002DE9FF4F3D
:100ED00006468BB00878FF2806D0491C2D2805D07F
:100EE00000244FF0000908E000200CE00124F8E79E
:100EF00009EB8903491C00EB43090878FF28F7D167
:100F000014B1C9F100008146107800252C46AA468C
:100F100029462D2801D02B2804D1521C2D2813D06E
:100F2000002082468B461078FF280FD04FF0000C2F
:100F30000A21521CA5FB017804FB018105FB0C1161
:100F4000C5194BEB0104EEE70120EAE70021084652
:100F50004FF00000BAF1000F02D000EB8000400813
:100F6000C0F38157012F01DD4FF0FF370E9955EA8D
:100F7000040009EB01080BD04FF0020918F5FA7FC5
:100F800016DA4FEACA70002F706008DD012007E012
:100F90004FEACA70C6E900B00FB0BDE8F08F00207C
:100FA0003060FFF73DFEC0F800901821084616E0BB
:100FB000B8F5FA7F18DD002F02DAF748784401E02F
:100FC000F6487844D0E90010C6E9001040EACA703B
:100FD0007060FFF725FEC0F80090142108460FB09E
:100FE000BDE8F04F04F09ABD002108464FF0000024
:100FF000B8F10001099002DAC7F1000200E03A46B8
:1010000001DAC8F1000106A8FFF7BCFE06AB93E8C1
:10101000070003AB83E8070044F23E005BEA0401EB
:101020000090584604D144F21E012C465D460091C2
:10103000210C0904014306D10099240444EA154413
:101040002D041039009104F07F41014306D100992D
:10105000240244EA15642D020839009104F070411D
:10106000014306D10099240144EA15742D01091F9A
:10107000009104F04041014306D10099A40044EAE4
:101080009574AD00891E009104F00041084304D11D
:1010900000986D196441401E00904FF001033A46DC
:1010A0006846B8F1000FCDE9014503A902DD00F063
:1010B00022FF01E000F0F5FEBAF1000F04460D46F4
:1010C00001D084F00044002108464FF00000099947
:1010D00040F2FF77484010F00C0F07D124F0004099
:1010E000284303D0C4F30A50B84212D1FFF798FD49
:1010F000C0F80090C4F30A50B8420AD1A848784416
:10110000D0E90010C6E9001004F000410843706007
:1011100042E7C6E900543FE72DE9FF4F1F464FF075
:10112000000A4FF0FF38454691B0D7E90146CDF8A7
:101130003CA0FFF771FDC0680168405C1090B96980
:1011400012986D1C8847396A814688470028F6D175
:10115000B9F1FF3F0AD0002E24F4D06411DDB9F1BB
:101160002B0F08D0B9F12D0F0BD102E0404615B07E
:1011700013E744F48064B96912986D1C8847761EA1
:101180008146600504A901D52D2000E02B20002E0A
:1011900001F1010B0DF130088DF810003FDDB9F1C0
:1011A000690F08D0B9F1490F05D0B9F16E0F02D01F
:1011B000B9F14E0F1CD13B4601A8009580E85002C2
:1011C000DDE912126FF0020004F011FDC11CCED156
:1011D0000EE0B96912986D1C884781461398761EF7
:1011E00044F4007405600F98401C002E0F9016DD2B
:1011F000B9F1300FEDD0B9F1780F02D0B9F1580F35
:101200000DD10F9801280AD13B46CDE90054DDE904
:101210001212001F029604F0E8FCC11CA7D110991D
:1012200089453ED144F0800406E01399681CAAF178
:10123000010A44F400740860B9696D1C1298761EA6
:10124000884730288146F0D02BE01099894505D198
:10125000200603D4761E44F0800418E0484602F0CD
:101260003AFC08B3761E0DF123018B4544F400745B
:1012700008D2A9F130000BF8010B200607D5AAF11E
:10128000010003E0200602D40AF101008246A00515
:1012900002D51399681C0860B96912986D1C8847BB
:1012A0008146002ED1DC53E0002E51DDB9F1650FEF
:1012B00002D0B9F1450F4BD1A00549D5B9696D1CD4
:1012C0001298761E24F440748847002E81460CDD67
:1012D0002B2804D0B9F12D0F07D144F48074B969DB
:1012E00012986D1C8847761E8146E00501D52D2198
:1012F00000E02B2108F8011BCDF8008021E0761ECC
:101300000DF13901884544F400740CD2A9F1300084
:1013100010F0FF0088F8000002D10099884509D933
:1013200008F1010806E0E00501D51E4801E042F29F
:101330000F708246B96912986D1C884781461398D0
:101340000560002E04DD484602F0C5FB0028D6D11A
:10135000F96912988847FF2053468BF8000088F8F7
:10136000000000200A900B9004AA0CA90AA8FFF71D
:10137000ADFDA00502D46FF00100F8E614F0240FD3
:1013800012D0E0071CD13868DDE90A12031D3B606A
:101390000068C0E9001213E0604E0000524E0000E9
:1013A000164D0000F1D8FFFF0AA9684602F022FBA3
:1013B000E00705D13868009A011D396000680260B5
:1013C0002846D4E610B50446AFF300802046BDE8B9
:1013D0001040FEF70ABF00004FF0013C50F8042B0C
:1013E00051F8043B9A4221D1A2EB0C03934313EA38
:1013F000CC1317D150F8042B51F8043B9A4215D165
:10140000A2EB0C03934313EACC130BD150F8042B3B
:1014100051F8043B9A4209D1A2EB0C03934313EA1F
:10142000CC13DBD04FF00000704700BFD01A01BAD8
:10143000B1FA81F101F0180122FA01F0CB40C1F1BB
:101440002001DBB2C0B2C01A2CFA01F3D11A9143C9
:1014500011EAC311E6D170472DE9FF4F1F464FF047
:101460003C0987B04FF00042DDE9141001F101089A
:10147000DDF858A002EA4050039000200590834612
:10148000054604460490B969461E08988847AAF1A3
:10149000010A0290BAF1000F3BDD02982E2815D008
:1014A000102100F01CFA00282EDB4FF0010B0599EB
:1014B000014317D0B9F1000F0BDB4A46C11700F00A
:1014C000FBF905430C43A9F1040905E00120049050
:1014D0000BE008B145F0010501200590049820B902
:1014E000361D02E0049800B1361FB969089808F16A
:1014F00001088847BBF1000FAAF1010A0290C9D088
:101500000999C1F80080C5E70298702808D05028D2
:1015100006D0F96908988847BBF1000F14D04FE056
:10152000002002900120BBF1000F049009D0B9699E
:10153000089808F101088847AAF10109B9F1000FDC
:1015400007DCF969089888476FF001000BB0BDE827
:10155000F08F2B2804D02D280CD14FF0FF300490B1
:10156000B969089808F101088847A9F10109B9F19A
:10157000000FE6DD411CE4D00A2100F0B0F900289C
:10158000DFDB029908F1010801EB810100EB41006A
:101590000290B969089888470A2100F0A0F9099AD1
:1015A000A9F10109B9F1000FC2F8008001DD00289E
:1015B000E7DAF969089888470499029800FB016600
:1015C00055EA040004D004F04041090002D006E0CE
:1015D000039898E0A40044EA9574AD00B61E04F0A8
:1015E0000041080002D16D196441761E159810F073
:1015F000240F03D04FF00B095C4803E04FF028099B
:101600006FF07D008246564507DAAAEB0601894451
:10161000B9F1410F01DD4FF0410901200021A9F18D
:10162000010200F049F9024628400B4621400843D8
:1016300001D0012100E00021501E029143F1FF3151
:1016400028402140084301D0012000E000200299F9
:10165000834651EA0B014FD0002108464FF00000AD
:10166000039900F4400039B100EB80004FF44001D1
:1016700000EBD07001EA60008015012802DD4FF018
:10168000FF3000E013D0401C36D0029860B3BBF1AD
:10169000000F0CD14A460120002100F00DF928402E
:1016A0002140084301D0012000E00020E0B10120EA
:1016B0004A46002100F000F9034640190A466141FC
:1016C0002D1A8C4111D3B9F1400F09DD159810F096
:1016D000240F02D0AAF1340603E0AAF1170600E0B5
:1016E000761C00254FF0004406E05B1E42F1FF32FD
:1016F00020EA030521EA0204CAF10100B04206DA39
:101700001B49039808430190002000900EE0039AC3
:10171000C4F3D321E80A0A43164940EA44500A4375
:101720003146CDE90002684602F0CAF9159810F07A
:10173000240F0BD01598C00715D13868DDE90012C9
:10174000031D3B600068C0E900120CE002A8694676
:1017500002F050F91598C00705D13868029A011DAA
:101760003960006802604046F0E6000002FCFFFFBE
:101770000000F07F0000F03F2DE9FF4F92461D462C
:1017800085B04FF00041DDE9124BDDE914727F1E98
:1017900001EA4B50414940F0FF4940EA010800216D
:1017A00022F020004928049102D04E2828D04CE095
:1017B0003BA0012607C88DE80700A9690698641CAC
:1017C00088477F1E014606D41DF8060018B121F097
:1017D000200181420BD0E96906988847032E34D056
:1017E000082E32D06FF0010009B0BDE8F08F761CF2
:1017F000032E01D0082EE0D1601CCAF80000DCE7FF
:10180000A9690698641C88477F1E2AD420F020000E
:10181000412826D1A9690698641C88477F1E20D4D8
:1018200020F020004E281CD1A9690698641C884726
:101830007F1E48F4002849F48009CAF8004001D40A
:10184000282806D0E969069888475FEACB7012D04D
:1018500022E0A9690698641C88477F1E01D40028ED
:1018600003DAE96906988847BCE72928F1D1641CA6
:10187000CAF80040E9E71BF0240F07D02868049954
:10188000031D2B600068C0E9001805E02868021DF0
:101890002A600068C0F800902046A5E70000F07FAD
:1018A000494E46494E49545900000000014918204C
:1018B000ABBEFEE726000200B2F120030AD5C2F15A
:1018C000200301FA02F120FA03F300FA02F041EAE0
:1018D0000301704700FA03F14FF0000070473A2807
:1018E00000D2303820F02002412A01D3A2F1370083
:1018F000884201D34FF0FF30704770475FEA400CD9
:1019000008BF91F0000F4FEA8C234FEAC12243EA4F
:1019100051514FEA1C5018BF00F5F0404FEA30001B
:1019200018BF41F000415FEA6C5C00F02980BCF117
:10193000FF3F08BF40F080407047130C06BF120401
:101940004FF0100C4FF0000C130E04BF12020CF1FC
:10195000080C130F04BF12010CF1040C930F04BF09
:1019600092000CF1020CD30F04BF52000CF1010CD9
:1019700011464FF00002A0F11F00A0EB0C007047D1
:1019800011F0004F08BF704731F000413FF4D5AF70
:101990000B0C06BF09044FF0100C4FF0000C0B0E9F
:1019A00004BF09020CF1080C0B0F04BF09010CF174
:1019B000040C8B0F04BF89000CF1020CCB0F04BF89
:1019C00049000CF1010CCCF12003A0EB0C0022FA31
:1019D00003F302FA0CF241EA030100F1010070473F
:1019E00020F07F4C80EA030023F07F47ACEB070335
:1019F00003F57C5300F0004003F1FF032DE980491B
:101A00004FEA154B09B44FEA144325EA0B4E24EA7A
:101A100003480FF2042606EB132749083E785FEAD5
:101A2000320203FB0667C7F5000707FB06F64FEA1D
:101A300054374FEAD64606F1020607FB066CCCF196
:101A4000005C4FEA1C472CEA074C07FB06F40CFB32
:101A500006F504EB15464FEA961634BF00204FF00A
:101A600000404FEAD13706FB07FC4FEA1C4C0CFB49
:101A70000BF7D21B03FB0CF761EB07010CFB0EF716
:101A8000B0EB074072EB17420CFB08F734BFA2EB38
:101A90000742B2EB074261EB17414FEA0C444FEAB1
:101AA000910706FB07FC4FEA1C4C0CFB0BF7B0EB55
:101AB000C74072EB573203FB0CF734BFA2EBC742AF
:101AC000B2EBC74261EB57310CFB0EF7B0EBC7002E
:101AD00072EB57720CFB08F734BFA2EBC702B2EBF4
:101AE000C70261EB5771039F4FEA816141EA92118E
:101AF00004EBCC044FEAD1374FEA826206FB07FCC5
:101B000042EA90124FEA80604FEA1C4C0CFB0BF744
:101B1000D21B03FB0CF761EB07010CFB0EF7B0EBDC
:101B2000074072EB17420CFB08F734BFA2EB0742E9
:101B3000B2EB074261EB17414FEA8C554FEA910730
:101B400004EB9C2406FB07FC4FEA1C4C0CFB0BF738
:101B5000B0EBC74072EB573203FB0CF734BFA2EB7C
:101B6000C742B2EBC74261EB57310CFB0EF7B0EB4B
:101B7000C70072EB57720CFB08F734BFA2EBC70229
:101B8000B2EBC70261EB577115EB4C254FEA81614F
:101B900041EA92114FEA82624FEAD13742EA90124B
:101BA00006FB07FC44F100044FEA80604FEA1C4C3E
:101BB0000CFB0BF7D21B03FB0CF761EB07010CFBD3
:101BC0000EF7B0EB074072EB17420CFB08F734BF7F
:101BD000A2EB0742B2EB074261EB174115EB1C1574
:101BE0004FEA813141EA92414FEA823242EA904221
:101BF0004FEA80304FEA0C7644F1000448EA034390
:101C00004EEA0B484FF0000EB2EB080C71EB0307E5
:101C100024BF624639464EEB0E0E4FF0000B001803
:101C2000524149414BEB0B0BB2EB080C71EB030734
:101C30007BF1000B24BF624639464EEB0E0E4FF08F
:101C4000000B0018524149414BEB0B0BB2EB080C57
:101C500071EB03077BF1000B24BF624639464EEB64
:101C60000E0E51EA020718BF46F0010616EB0E767B
:101C700055F1000254F1000103D5BDE88901BDE82A
:101C80000088BDE88901BDE80048B619524141EB22
:101C90000101A3F10103704780807F7E7D7C7B7A08
:101CA0007978777676757473727171706F6E6E6D08
:101CB0006C6C6B6A6A6968686766666564646363AE
:101CC00062616160605F5F5E5E5D5D5C5C5B5B5A34
:101CD0005A595958585757565655555554545353A1
:101CE00052525251515050504F4F4F4E4E4D4D4DFC
:101CF0004C4C4C4B4B4B4A4A4A4949494848484747
:101D00004747474646464545454444444443434384
:101D1000434242424241414146EA0646A3F57053DE
:101D20004FEA164646EA42564FEAD22242EA41526A
:101D300010B54FEAD121A3F1010300F02FF820F0F4
:101D4000004000F1020C00F0004701EB005011468A
:101D5000BCF5006F40EA070000D210BDBAF1000FD9
:101D60000AD01CB503B44FF004004FF004014FF04B
:101D700000000FBCBDE810404FF00001BBF1010FA7
:101D8000B9BF04484FF0FF310348002140EA070083
:101D900010BD00BFFFFFEF7F0000F07F002B9C46CF
:101DA00030D477002BD01CB54FEA370703B44FF07F
:101DB00010004FF01001BAF1000F06D0BCF1000F77
:101DC000DCBF40F0080040F008014FF000000FBCFD
:101DD000BDE810400BF1010BBBF1010F08BF5FEA3A
:101DE000170722BF12F1010211F101014FF000416A
:101DF00043F1000300F0004043EA00007047F9D3CC
:101E00005708D0E746EA064613F1400F4FEA164658
:101E10001FDD13F1200FDFBF16430A4600212033D8
:101E20005B42BED0C3F1200746EA064602FA07F736
:101E30004FEA164646EA0706C3F1200722FA03F2E4
:101E400001FA07F721FA03F14FF0000342EA070213
:101E5000A7E746EA020646EA06464FEA164646EA7B
:101E60000106BCBF46EA0646360C4FF000034FF0B1
:101E700000024FF0000194E72DE9804C9A4693460A
:101E800070B491E8380007C831EA400C48BF34EA22
:101E9000430C03D5FFF7A4FDFFF780FFF0BCBDE8BE
:101EA000008C2DE9804C9A46934670B491E8380036
:101EB00007C831EA400C48BF34EA430C03D5FFF7AA
:101EC0008FFDFFF729FFF0BCBDE8008C2DE9804CA9
:101ED0009A46934670B491E8380007C810F0804FD6
:101EE00008BF13F0804F03D100F01AF8FFF756FF38
:101EF000F0BCBDE8008C2DE9804C9A46934670B446
:101F000091E8380007C810F0804F08BF13F0804FE9
:101F100003D100F005F8FFF7FFFEF0BCBDE8008C30
:101F200020F07F4780EA030023F07F4C07EB0C038F
:101F3000A3F57C5300F00040A3F1FE0392F0000FE4
:101F400000F0B38095F0000F00F077802DE9014993
:101F50004FEA11404FEA144621EA004800FB06FC14
:101F600024EA064708FB06F607FB08F800FB07F71C
:101F700018EB06484CEB164C4FEA124B18EB07488F
:101F80004FEA15464CEB174022EA0B4E0BFB06FCC2
:101F900025EA06470EFB06F607FB0EFE0BFB07F7CE
:101FA0001EEB064E4CEB164C4FF000061EEB074E98
:101FB0004CEB174B18EB0B0840F1000018EB0E0B25
:101FC00058EB000840F100008F1A4FF000013CBFB1
:101FD000C943661B14BFB5EB040C00213CBFC943C9
:101FE000F61B4FEA17444EEA8E0E27EA04454FEAE5
:101FF0001C4704FB07622CEA074C05FB07F70CFBA8
:1020000005F604FB0CFC16EB074642EB174216EBF9
:102010000C4642EB1C421BEB060658EB0202414108
:1020200046EA9E0601D5BDE80189B619524141EB49
:102030000101A3F10103BDE801894FEA14454FEA0C
:10204000114724EA054621EA074C05FB07F406FB85
:1020500007F70CFB06F105FB0CFC11EB074144EB09
:1020600017444FEA124711EB0C4144EB1C4422EA9F
:10207000074C05FB07F206FB07F70CFB06F605FB12
:102080000CFC16EB074642EB174216EB0C4642EBF4
:102090001C456A1854F1000148BF7047B6195241F7
:1020A00041EB0101A3F10103704795F0000F37D018
:1020B0004FEA11424FEA144721EA024624EA074C4C
:1020C00002FB07F106FB07F70CFB06F402FB0CFC16
:1020D00014EB074441EB17414FEA154714EB0C444E
:1020E00041EB1C4125EA074C02FB07F506FB07F70D
:1020F0000CFB06F602FB0CFC16EB074645EB1745FE
:1021000016EB0C4645EB1C42121951F1000148BF79
:102110007047B619524141EB0101A3F10103704729
:102120004FEA14454FEA114724EA054621EA074CD5
:1021300005FB07F106FB07F70CFB06F24FF0000664
:1021400005FB0CFC12EB074241EB174112EB0C4272
:1021500051EB1C4148BF7047921841EB0101A3F1BC
:1021600001037047FEE77047042000F0BFB872B665
:10217000FEE710B590F821100022022905D00421B5
:10218000816380F82020012010BD01680B6823F0D6
:102190000E030B6001680B6823F001030B6090F8DD
:1021A0004030C46B012101FA03F3636080F8211011
:1021B00080F82020104610BD2DE9F05F90F8211026
:1021C0000024022903D004218163012485E00168F1
:1021D0000A6822F00E020A6001680A6822F0010211
:1021E0000A603F4E3E4FB215DFF8F4C0DFF8F090C2
:1021F000DFF8ECA0DFF8E8B0DFF8E4E00168783F52
:1022000013011502ACF1640CA9F15009AAF13C0AC2
:10221000ABF1280BAEF1140E4FF48018B14227D960
:10222000B9420ED0614512D049451DD0514518D054
:10223000594518D0714501D1424615E0294EB142A9
:1022400001D1012210E0274E1436B14201D11022F3
:102250000AE0244E2836B14206D0224A3C3291424E
:1022600001D11A4600E02A461E49091F0A602BE0E8
:10227000B94213D0614517D0494522D051451DD0F0
:1022800059451DD0714501D142461AE0B14202D1F3
:102290004FF0807215E0134EB14201D1012210E0DF
:1022A000104E1436B14201D110220AE00D4E2836EC
:1022B000B14206D00B4A3C32914201D11A4600E0AD
:1022C0002A46074980394A60012180F821100021FF
:1022D00080F82010416B01B188472046BDE8F09F8F
:1022E000800002400804024070470000044910B515
:1022F0000A68024202D00860FFF7F6FF10BD000036
:10230000140401402DE9F84FDFF8C8910024A9F129
:10231000040B23460F2709F1040AABF1040ED1E0A8
:102320000125A54006EA0502AA4276D1DFF8A8C138
:102330004E68A6EB0C0866452BD00DDC032E34D07E
:1023400005DC36B3012E19D0022E2FD11BE0112E41
:1023500016D0122E2AD119E0B8F5881F19D006DC44
:10236000B8F5803F15D0B8F5801F1FD111E0B8F542
:10237000001F0ED0B8F5041F18D10AE0CB6815E095
:10238000CB681B1D12E0CB6808330FE0CB680C3321
:102390000CE08B682BB1012B4FF0080303D0456193
:1023A00004E0042302E0056100E00023FF2A01D8D5
:1023B000064601E000F104064FEA840501D9A5F1C3
:1023C0002005D6F8008007FA05FC28EA0C0803FA75
:1023D00005F548EA0508C6F800804D68ED0070D59F
:1023E0003E4DAE6946F00106AE61AD6924F00306CC
:1023F00005F0010500953A4D06EB050CDCF8085098
:10240000A607360F07FA06F825EA0805DFF8D48094
:10241000404503D14FF0000825E052E0DFF8C880C6
:10242000404502D14FF001081DE0DFF8C080404573
:1024300002D14FF0020816E0DFF8B480404502D127
:102440004FF003080FE0DFF8AC80404502D14FF0B9
:10245000040808E0DFF8A080404502D14FF00508ED
:1024600001E04FF0060808FA06F848EA0508CCF83B
:1024700008804D68D9F80060ED024D4601D516433D
:1024800000E096432E604D68DAF80060AD025546D4
:1024900001D5164300E096432E604D68DBF80060DE
:1024A000AD035D4601D5164300E096432E604D68AE
:1024B000DEF80060ED03754601D5164300E0964353
:1024C0002E60641C0A681646E2407FF429AFBDE81E
:1024D000F88F0000080401400000111000100240B5
:1024E0000000014000080140000C014000100140C4
:1024F0000014014000180140001C01400AB10161B4
:1025000070470904FBE7000001488068704700003D
:1025100028000020024881680278114481607047D9
:1025200028000020074810B5016841F01001016043
:10253000032000F0A7F80F2000F006F800F050F894
:10254000002010BD0020024030B505461F4887B06E
:10255000C16941F00401C161C06906A900F004002D
:10256000009001A800F036F90498B0B100F052F9DB
:1025700040001749174AB0FBF1F11748491E0260A5
:10258000416040F2E7320021C0E9032181608161AE
:1025900000F018FB040003D015E000F03BF9E8E779
:1025A0000D4800F03DFB04000DD11E2000F03CF86A
:1025B000102D07D2002229461E2000F043F80748BC
:1025C000056000E0012407B0204630BD0010024045
:1025D00040420F0000080040100100202C000020A5
:1025E0000F4808B5816941F001018161816901F0FD
:1025F00001010091C16941F08051C161C0690022AF
:1026000000F0805000900F21901E00F01BF805484C
:10261000416821F0E06141F00071416008BD0000B7
:102620000010024000000140002809DB00F01F02FA
:10263000012191404009800000F1E020C0F8001124
:1026400070470000F0B40E4B1B680C46C3F3022326
:10265000C3F10705042D00D90425191D072901D24E
:10266000002300E0DB1E012606FA05F1491E214089
:1026700099409E40761E16403143F0BC01F09BB954
:102680000CED00E0064900F0070208684FF6FF0372
:10269000184040EA0220034A1043086070470000D7
:1026A0000CED00E00000FA052DE9F0470F460500AB
:1026B00061D0434E306800F00700B84209D230685C
:1026C00020F0070038433060306800F00700B8425F
:1026D00051D128683B4C810712D5400703D560686B
:1026E00040F4E06060602878000703D5606840F43B
:1026F000605060606068A96820F0F0000843606086
:102700002878C00728D06868012810D021680228DE
:1027100010D0890700292EDA616821F003010143F6
:102720006160FFF7F1FE804641F288390DE02168D3
:102730008903EFE78901EDE7FFF7E6FEA0EB08016B
:10274000494502D90320BDE8F0876068696800F058
:102750000C00B0EB810FEFD1306800F00700B842F9
:102760000BD9306820F0070038433060306800F043
:102770000700B84201D00120E5E72878400705D5D9
:102780006068E96820F4E06008436060287800072A
:1027900006D56068296920F4605040EAC100606095
:1027A00000F058F86168084AC1F30311515CC84051
:1027B0000649086006480068FFF7C6FE0020C2E729
:1027C0000020024000100240025D0008340000209A
:1027D0002C0000200F2202600C4A536803F0030310
:1027E0004360536803F0F0038360536803F4E063CD
:1027F000C36052684FF4E06303EAD2020261044806
:10280000006800F0070008607047000000100240F8
:10281000002002400448054900684968044AC1F3A1
:102820000221515CC8407047340000200010024073
:10283000125D00080448054900684968044AC1F36C
:10284000C221515CC8407047340000200010024093
:10285000125D00080E4A51680E4801F00C03042B6B
:1028600011D0082B0FD10C48C1F38343C903C05CBE
:102870000AD55168084AC1F34041921E515C054A8D
:102880005043B0FBF1F070470449484370470000E3
:102890000010024000127A00F25C000800093D00BE
:1028A0002DE9F84F040070D02078C04DC00749D002
:1028B0006868C0F38100012807D06868C0F3810010
:1028C000022809D16868C00306D52868800339D575
:1028D00060680028E7D035E06068B0F5803F0BD035
:1028E00010B1B0F5A02F11D0286820F480302860F6
:1028F000286820F4802002E0286840F480302860B6
:10290000606890B1FFF700FE06460AE0286840F4D0
:1029100080202860F0E700BFFFF7F6FD801B6428E9
:1029200073D828688003F7D50CE0FFF7EDFD064665
:1029300005E000BFFFF7E8FD801B6428F0D8286899
:102940008003F7D420789A4E80074FF001094FF0AA
:10295000000839D5686810F00C0F07D06868C0F31C
:102960008100022809D16868C00306D4286880075E
:1029700014D52069012808D110E02069B0B1C6F84B
:102980000090FFF7C1FD074605E00AE1FFF7BCFD37
:10299000C01B0228C4D828688007F7D52868616959
:1029A00020F0F80040EAC10028600DE0C6F8008081
:1029B000FFF7AAFD074604E0FFF7A6FDC01B0228AB
:1029C00023D828688007F7D4207800072CD57948C9
:1029D000A169D9B1C0F80090FFF796FD074604E061
:1029E000FFF792FDC01B02280FD8686A8007F7D551
:1029F00071484FF4FA510068B0FBF1F0009000BF4D
:102A00000098411E0091FAD20EE080E0C0F80080EC
:102A1000FFF77AFD074604E0FFF776FDC01B0228AA
:102A200075D8686A8007F7D42078400760D5E869D0
:102A30000027C00008D4E86940F08050E861E869E8
:102A4000012700F0805000905C480168C90513D44C
:102A50000168834641F480710160FFF755FD8246AD
:102A600006E000BFFFF750FDA0EB0A0064284ED837
:102A7000DBF80000C005F5D5E06801280AD008B1F0
:102A8000052813D0286A20F001002862286A20F067
:102A9000040002E0286A40F001002862E06841F288
:102AA000883B98B1FFF730FD82460BE0286A40F082
:102AB00004002862EEE700BFFFF726FDA0EB0A0145
:102AC00059455AD8286A8007F6D50CE0FFF71CFD57
:102AD000824605E0FFF718FDA0EB0A0159454CD8E6
:102AE000286A8007F6D41FB1E86920F08050E861B9
:102AF000E06988B36968C1F38101022944D00228E2
:102B0000C6F8608004D0FFF7FFFC044638E034E0EC
:102B1000FFF7FAFC074604E0FFF7F6FCC01B0228AB
:102B20002BD828688001F7D4206AB0F5803F05D102
:102B30006868A16820F4003008436860D4E908019F
:102B40000843696821F4741108436860C6F860900E
:102B5000FFF7DAFC044606E025E000BFFFF7D4FCEF
:102B6000001B022809D828688001F7D51BE000BFA8
:102B7000FFF7CAFC001B022802D90320BDE8F88F2A
:102B800028688001F4D40EE00128F7D06868226A32
:102B900000F48031914204D1616A00F470108842DF
:102BA00001D00120EAE70020E8E700000010024021
:102BB0000000424280044242340000200070004085
:102BC0007047704710B5040003D094F83D0010B171
:102BD00007E0012010BD002084F83C00204600F0F2
:102BE0001EF8022084F83D00211D206800F03AFD07
:102BF000012084F8460084F83E0084F83F0084F801
:102C0000400084F8410084F8420084F8430084F8CE
:102C1000440084F8450084F83D00002010BD704752
:102C200090F83D10012901D001207047022180F861
:102C30003D100168CA6842F00102CA6000680E498E
:102C400088420ED00D4988420BD0B0F1804F08D099
:102C50000B49884205D00B49884202D00A49884274
:102C600004D1816801F00701062903D0016841F011
:102C70000101016000207047002C01400034014038
:102C80000004004000080040000C004070472DE99F
:102C9000F04104460068C66805694FF00007A907BF
:102CA00013D5B10711D5F91E0161012020772068E5
:102CB00080698007204602D0FFF7E8FF04E000F0BB
:102CC0007EF8204600F07CF82777680716D5700755
:102CD00014D521686FF00400086102202077206875
:102CE000806910F4407F204602D0FFF7CFFF04E058
:102CF00000F065F8204600F063F82777280715D51F
:102D0000300713D521686FF0080008610420207790
:102D10002068C0698007204602D0FFF7B7FF04E0B3
:102D200000F04DF8204600F04BF82777E80616D55E
:102D3000F00614D521686FF0100008610820207794
:102D40002068C06910F4407F204602D0FFF79EFF44
:102D500004E000F034F8204600F032F82777E80766
:102D600008D0F00706D021686FF001000861204606
:102D700000F028F8280608D5300606D521686FF03F
:102D8000800008612046FFF71BFF680608D5700623
:102D900006D521686FF040000861204600F01CF85D
:102DA000A8060AD5B00608D521686FF02000086192
:102DB0002046BDE8F041FFF704BFBDE8F081704751
:102DC0007047000000680349884201D1FFF7A2BBA9
:102DD00070470000000800407047704770470000CF
:102DE000F8B5016804460868CA684B6910F00F0F0F
:102DF0004FF0000559D003F0010602F490773743F5
:102E000065D0C10705D0D10503D5616C41F0010142
:102E10006164410705D5D90703D0616C41F0020117
:102E20006164810705D5D90703D0616C41F00401C5
:102E30006164010707D502F02001314303D0616CC2
:102E400041F008016164616C00293AD0800604D524
:102E5000900602D5204600F082FC20684069616C33
:102E6000C0F38010090700D460B3204600F050FC86
:102E700020684069400621D52068143050E8001FC2
:102E800021F0400140E80012002AF5D1E06BA8B122
:102E90006D494163E06BFFF78FF9002811D0E06BBB
:102EA000416B01B0BDE8F040084783060FD593069B
:102EB0000DD52046BDE8F84000F051BC2046FFF794
:102EC0008DFFF8BD2046FFF789FF6564F8BD266BCE
:102ED0002023012E7CD1C6067AD5D60678D508687F
:102EE0004868009048694FF00206400640D5E16B03
:102EF000086840680004000CE8D0A28D8242E5D941
:102F0000E085886920282DD020680C3050E8001F0B
:102F100021F4807140E80012002AF5D120681430B5
:102F200050E8001F21F0010140E80012002AF5D10D
:102F30002068143050E8001F21F0400140E80012E2
:102F4000002AF5D184F84230256320680C3050E81F
:102F5000001F21F0100140E80012002AF5D1E06BBB
:102F6000FFF707F96663A08DE18D401A81B22AE070
:102F7000A08DE18D401A81B2E08D0028A6D00029F5
:102F8000A4D022680C3252E8000F20F4907042E87E
:102F90000007002FF5D12068143050E8002F22F0F0
:102FA000010240E80027002FF5D184F84230256364
:102FB00020680C3050E8002F22F0100240E8002377
:102FC000002BF5D166632046FFF707FFF8BDFFE74A
:102FD00005062BD5150629D594F841002128F5D1F1
:102FE000A068B0F5805F01D12069B0B1206A411CB2
:102FF0002162216800784860E08C401E0004000CCB
:10300000E084E3D12068C16821F08001C1602068BC
:10301000C16841F04001C160D8E7206A0088C0F370
:1030200008004860206A801C2062E5E74006CDD594
:103030005006CBD5CA68204622F04002CA6084F808
:10304000413000F07DF9C1E70137000870B5040098
:1030500004D094F84100002510B106E0012070BDB5
:1030600084F84050204600F023F8242084F84100E2
:103070002068C16821F40051C160204600F0D0FBF7
:103080002068016921F4904101612068416921F0C3
:103090002A0141612068C16841F40051C160656442
:1030A000202084F8410084F842006563002070BD50
:1030B00030B585B000240094019402940394006814
:1030C000184988422CD11848816941F480418161B6
:1030D000816901F480410491816941F004018161B9
:1030E0008069124D00F0040004904FF400700090CD
:1030F000022001900320039069462846FFF702F959
:103100002815CDE90004694628460294FFF7FAF82D
:10311000002205212520FFF795FA2520FFF784FAE4
:1031200005B030BD003801400010024000080140E9
:1031300090F84230202B01D00220704721B11AB103
:103140000023036300F0C8BB0120704770B500681E
:103150003F4992B0884278D13E4C002520466278A3
:10316000C0784AB12146C9783039012A08D0022AEC
:103170000DD0032A17D056E04C2854D101200BE083
:103180003138022805D8A170022060704BE0462833
:1031900001D0657047E003206070257010212E4833
:1031A000FDF70BFA3FE00D2806D00A2804D00929C4
:1031B00042D92E2840D034E0274800F093FC02F09A
:1031C0000DFA06462549A0F17E5088421BD8A0780A
:1031D0008DF83C002248002310961A460FA900687B
:1031E00000F0AEFD304602F041FBCDE90001A278CF
:1031F0001CA102A8FDF76CF802A8FDF740F982B205
:10320000642302A90AE020221CA16846FDF79BF96D
:103210006846FDF734F982B2642369461F4800F01E
:103220003FF86570257012B00A49BDE87040012270
:10323000C91C1A48FFF77CBF21780F29F3D2064A30
:103240005054491C2170EEE7FFE712B070BD00003A
:103250000038014000000020B80000200000FA04FF
:10326000240000204C4544256420467265713A20B4
:10327000252E326620487A0D0A0000004572726FD2
:10328000723A2046726571206D75737420626520F4
:10329000317E3130303020487A0D0A00C8000020DD
:1032A0002DE9F843044690F84100984616460D462D
:1032B000202802D00220BDE8F88385B17EB100202D
:1032C0006064212084F84100FFF71EF9A68481463E
:1032D000E684A0682027B0F5805F02D003E00120DB
:1032E000E9E7206910B12E4600250EE000260CE02B
:1032F0008021204600F00BFBA8B9C6B116F8010BDF
:1033000021684860E08C401EE084E08C4B464FF022
:103310000002CDF800800028EAD14FF0400120469D
:1033200000F0F5FA40B184F841700320C3E735F8A6
:10333000020BC0F30800E3E784F841700020BAE70D
:103340007047FEE710B5154A08210A2000F0CCFCB2
:10335000134C124A00212062B43A124800F024FDB6
:103360000E4AE060903A00210F4800F01DFD0B4A24
:1033700020616C3A00210D4800F016FD074A60619B
:10338000483A00210A4800F00FFD044AA061243A9F
:103390000021084800F008FDE06110BDD85C00087D
:1033A00004000020C534000899350008CD34000819
:1033B00011350008553500082DE9F04186B000248C
:1033C0002C480094019402940394816941F0100107
:1033D0008161816901F010010491816941F004016A
:1033E0008161816901F004010491816941F020014A
:1033F0008161816901F020010491816941F0080136
:10340000816180691C4F00F008000490002248216F
:103410003846FFF773F8DFF8648000222021404629
:10342000FFF76CF8042000901548CDE901046946C7
:103430001448FEF767FF482001250326CDE9000563
:10344000CDE9024669463846FEF75CFF2020CDE90B
:103450000005CDE9024669464046FEF753FF0022CB
:1034600005210820FFF7EEF80820FFF7DDF806B089
:10347000BDE8F0810010024000140140000C014042
:1034800000002110001001400C4810B50A490160ED
:103490004FF4E1314160002181600C22C160C0E93C
:1034A00004128161C161FFF7D1FD002803D0BDE89E
:1034B0001040FEF75CBE10BD00380140C80000207F
:1034C000FEE7FEE7012000F0A1FBFBE70D4E0E4FEB
:1034D0000E4D3846316802F0F5F902F0B5FA0446AF
:1034E000012220212846FFF709F8204600F08EFB34
:1034F000002220212846FFF701F8204600F086FB35
:10350000E7E70000040000200000FA43000C01403F
:103510000D4E0E4F0E4D3846716802F0D3F902F091
:1035200093FA0446012240212846FEF7E7FF204691
:1035300000F06CFB002240212846FEF7DFFF20460A
:1035400000F064FBE7E70000040000200000FA43FD
:10355000001401400D4E0E4F0E4D3846B16802F07A
:10356000B1F902F071FA0446012208212846FEF75B
:10357000C5FF204600F04AFB002208212846FEF73E
:10358000BDFF204600F042FBE7E7000004000020FA
:103590000000FA43001401401CB50F4C4FF0FF35FA
:1035A0002B4600226946206A00F06CFB80B99DF82A
:1035B0000000012804D0022805D0032808D105E026
:1035C0000198206004E00198606001E00198A0602B
:1035D0000A2000F01BFBE3E70400002010B54FF0C9
:1035E000E020006901F018FE012803D0BDE810407A
:1035F00001F0D8BA10BD30B58FB028216846FCF76D
:10360000FEFF14210AA8FCF7FAFF01210804CDE906
:1036100000100024029402250491CDE907504FF4D4
:10362000E01009906846FFF73BF908B172B6FEE773
:103630000F20CDE90A054FF48060CDE90C4002214E
:103640000AA80E94FFF730F8002801D072B6FEE702
:103650000FB030BD704700000148FFF718BB0000F5
:1036600010010020F0B50268204C214D214E224F60
:10367000224B4FF0804CA04209D0984207D06045C1
:1036800005D0A84203D0B04201D0B84204D122F004
:10369000700E4A6842EA0E02A04209D0984207D052
:1036A000604505D0A84203D0B04201D0B84203D152
:1036B00022F44075CA682A434D6922F080022A43E9
:1036C00002608A68C2620A688262A04201D098429F
:1036D00001D109690163012141610169C90703D071
:1036E000016921F001010161F0BD0000002C0140E1
:1036F0000004004000080040000C0040003401407D
:1037000010B5406A0021C185C184FFF767FB10BD79
:1037100001680C3151E8002F22F4907241E8002337
:10372000002BF5D10168143151E8002F22F001027D
:1037300041E80023002BF5D1016B012909D1016873
:103740000C3151E8002F22F0100241E80023002B39
:10375000F5D1202180F8421000210163704708B59F
:1037600090F84210222901D0022008BD82684FF44F
:1037700080539A4201D1016921B1816A9A421BD0DA
:103780004AB10AE00268816A5268C2F308020A80FC
:10379000816A891C08E0026972B10268526802F00D
:1037A0007F020A70816A491C8162C18D491E090429
:1037B000090CC18503D01BE002685268F1E701687B
:1037C000CA6822F02002CA600168CA6822F48072C6
:1037D000CA6001684A6922F001024A61202180F82A
:1037E000421000214163026B012A03D0FFF7AEFCB7
:1037F000002008BD016301680C3151E8002F22F060
:10380000100241E80023002BF5D101680A68D206B6
:1038100002D50A6849680091818DFFF7DEFAE7E773
:1038200070B5044600680169E26821F44051114313
:1038300001612169A0680843616908432168CA6879
:1038400041F20C639A430243CA6020684169A2694D
:1038500021F44071114341611E492068884202D120
:10386000FEF7E8FF01E0FEF7D5FF00EBC00101EB3A
:103870000012606864218000B2FBF0F3B3FBF1F347
:103880006FF018067343B2FBF0F5B2FBF0F605EBF0
:103890008305322303EB0515B5FBF1F5B6FBF1F615
:1038A00005F0F00505EB0615B2FBF0F6B2FBF0F003
:1038B000B0FBF1F06FF01802504306EB800003EB11
:1038C0000010B0FBF1F0216800F00F002844886080
:1038D00070BD00000038014081628285C2850021F0
:1038E0004164222180F84210016921B10168CA684F
:1038F00042F48072CA6001684A6942F001024A617A
:103900000068C16841F02001C160002070472DE9C6
:10391000F843984617460D460446089E24E0701C5E
:1039200022D0FEF7F1FDA0EB0800B0421AD8CEB1CC
:103930002068C168490717D5802D15D0402D13D0B8
:103940000168C94309070FD4016800254068009049
:103950002046FFF7DDFE0820606484F84050012017
:10396000BDE8F8830320FBE72068006835EA000023
:1039700004D00020B842D2D00020F1E70120F9E7BE
:103980000148FFF72DBA0000C8000020FEE74900FB
:1039900050EAC12018BF04204A0D18BF40F00100B2
:1039A00040F2FF72B2EB515F08BF40F00200012805
:1039B00008BF052070470907090E002804DB00F145
:1039C000E02080F80014704700F00F0000F1E020C4
:1039D00080F8141D704740F2013200204FF0E041A2
:1039E00002F0D3B8024A0020110702F0CEB800005E
:1039F00001FDFFFF10B50446D1E9000100F002F817
:103A0000206010BDF8B504460D466A4600F080F807
:103A100000987E30009000281EDC002213462046CD
:103A2000294601F021FE17D0002140F608004FF092
:103A3000000006462046294601F0D0FD044640F627
:103A4000080006EA00014FF0000034F0004004BF17
:103A50000220FCF703FE29E00098FF2828DB002164
:103A600008464FF0000000F44006002213462046AE
:103A7000294601F0C5FE8CBF002501250220FCF778
:103A8000EDFD4FF0FF4446B1002D0CBF4FF4000098
:103A90004FF48000B04218BF084C042108464FF094
:103AA0000000002D04BF84F00040F8BD2046F8BDA2
:103AB00020462946BDE8F84001F090BDFFFF7F7F1A
:103AC00010B504460A46D4E90003194600F04CF844
:103AD000C4E9000110BD30380A2801D20120704726
:103AE0000020704730B583B00446FCF7B2FD0546B0
:103AF0000020CDE90000024621466846FDF758F84F
:103B00002846FCF7ABFDDDE9000103B030BD000045
:103B100010B5144600222260114A21F0004393425E
:103B2000A8BF10BD53EA000208BF10BDB3F5801F47
:103B3000A8BF226807DA362202F027F86FF03502B4
:103B400021F000432260DFF81CC06FF31E510CEB24
:103B500023531A4441F0FF5141F00051226010BD3F
:103B60000000F07F02FCFFFF2DE9F04106460C4605
:103B700040F2FF75174635EA14502BD00022134649
:103B8000304601F071FD25D03A463046214601F01D
:103B9000FCFF06460C4635EA145010D000221346AE
:103BA000304601F061FD15D10220FCF757FDFFF70B
:103BB00019FF0A46214662F31E01BDE8F08102208A
:103BC000FCF74CFDFFF707FF0A46214662F31E0192
:103BD000BDE8F08130462146BDE8F081FEF7A2FC49
:103BE000FFF709FDFFF7E8FBFFF74EFC012205494F
:103BF0000548FFF79DFA00F017F8FFF7A3FB00F068
:103C000025F8FEE703000020C800002010B5EFF300
:103C1000058111B16FF0050403E0002408B100F044
:103C200087FE204610BD0000EFF3058010B16FF055
:103C3000050070470448016811B14FF0FF3070472C
:103C400001210160002070478800002010B5EFF3CB
:103C5000058010B16FF0050010BD0848016801290A
:103C600002D04FF0FF3010BD054A002182F8141D2C
:103C70000221016000F0C4FE002010BD8800002079
:103C80000BE000E0F8B51D466FF003026FF002068E
:103C90004FF00004EFF30583A3B1F0B1E9B1E5B94A
:103CA000002200926A4601F0D7F9012817D1009846
:103CB000B0B10C494FF080500860BFF34F8FBFF395
:103CC0006F8F0DE048B141B12A4601F029F9012872
:103CD00006D025B16FF0010402E0144600E034463E
:103CE0002046F8BD04ED00E0F8B514464FF000059D
:103CF000EFF3058212BB08B301B3A4B1D4E90232D9
:103D000063B1502A1AD32269C2B1676900FB01F678
:103D1000B74213D3009500F07CFF07E072B9226927
:103D200062B9626952B9002200F052FF050005D065
:103D30000CB1216800E0002100F0C4FD2846F8BD68
:103D4000F8B51D466FF003026FF002064FF0000455
:103D5000EFF30583ABB100B3F9B1F5B90022134617
:103D600000926A4601F07CF8012818D10098B8B199
:103D70000C494FF080500860BFF34F8FBFF36F8F37
:103D80000EE050B149B100232A4600F0B9FF0128E6
:103D900006D025B16FF0010402E0144600E034467D
:103DA0002046F8BD04ED00E02DE9FF414FEA010394
:103DB0004FF00005EFF30581039549BB40B3802721
:103DC000182100244AB3166806B1344696691EB11C
:103DD0003146761E382E02D21679F60703D000201F
:103DE00004B0BDE8F081566906B1B708D2F808C042
:103DF000BCF1000F0DD0D5685C2D18D312693AB113
:103E000036B18DE806103A46214601F0DAF9039002
:103E10000DE0D6685EB912694AB903AACDE900126D
:103E2000BAB2214601F0A0F9012800D00395039809
:103E3000D6E700002DE9F041134C0F460546E66831
:103E40002068001D00F040FC681C07D137B12168D4
:103E5000BDE8F0410D48091D00F086BC20683544DE
:103E6000B5424560216805D2A06BBDE8F041091D4F
:103E700000F062BC606B091D00F05EFCA06A854228
:103E800000D2A562BDE8F08138000020480600207D
:103E90002DE9F041054600F073FC2D4CA068401C54
:103EA000A06020682B4F10B1606930B32BE0256013
:103EB000A068012827D1002606EB860007EB8000CA
:103EC00000F02CFC761C382EF6D3234800F026FC9C
:103ED0002148143000F022FC1F48283000F01EFC5E
:103EE0001D483C3000F01AFC1B48503000F016FC16
:103EF000194860631430A06305E02068E96AC06A6D
:103F0000884200D82560606A401C60626864E86A84
:103F10002169884200D9206100EB800007EB800016
:103F2000291D00F021FC00F04BFC606900280CD03A
:103F30002068E96AC06A884207D208494FF0805079
:103F40000860BFF34F8FBFF36F8FBDE8F0810000B3
:103F50003800002098010020F805002004ED00E062
:103F600038B500F00DFC104C2068C8B90F4800F0BF
:103F7000D5FB0E48143000F0D1FB0C48E060143043
:103F800020610A4B0020F03B009003F15002102109
:103F90000A2000F03EFE206010B105A100F092FC66
:103FA000BDE8384000F00CBC740000204C07002035
:103FB000546D72510000000030B4026C0B46002AB0
:103FC0000BD0C1681144C1608468A14201D301686B
:103FD000C16030BC1846FCF771BA30BC70472DE99F
:103FE000F041856B174604460026026C82B1C7B1CA
:103FF000E068FCF763FAE168206C091AE160226866
:10400000914202D2A168081AE060022F16D017E090
:104010002068A8B9A06801F077F906460020A060E2
:104020000EE06068FCF74AFA216C60680844606042
:10403000A168884204D32068606001E005B16D1E6C
:104040006D1CA5633046BDE8F08110B5044690F8BC
:10405000590058B101280CD002280FD0502080F30D
:104060001188BFF34F8FBFF36F8FFEE7206B00F017
:10407000BBFB2046BDE8104000F0B6BB10BD000001
:1040800010484FF4A051420706D0C01D0D4920F042
:104090000700411AC1F5A0510B4A00230144C2E9AF
:1040A00000030839183A21F0070111604B600B60DA
:1040B0000B1AC0E9001393604FF000405360506149
:1040C000704700002C0E0020A4000020144E154C58
:1040D000A6F29C474FF08058DFF84C9012E000BFEA
:1040E00000F04EFBF068C568281D00F0EDFAA068EE
:1040F000401EA0606068401E606000F061FB2846C2
:10410000FFF7A3FF60680028EAD138680128F9D9D1
:10411000C9F80080BFF34F8FBFF36F8FF2E7000045
:10412000340600203800002004ED00E070B51D4684
:10413000049C51B1C4F80020C4E90F0101212046BC
:1041400000F09AFD84F84C5070BD2460F4E7000044
:104150002DE9F05F8846DDE90B9415468346910012
:104160009A460A9EA522206BFCF71FFA6FF0030106
:10417000206B01EB8501084420F00707780707D082
:10418000502080F31188BFF34F8FBFF36F8FFEE78E
:104190000025B8F1000F0FD05FF00000221818F8CA
:1041A000001082F8341018F8001011B1401C1028CB
:1041B000F4D384F8435001E084F83450382E00D30F
:1041C0003726E662C4E91365201D00F0B2FA04F157
:1041D000180000F0AEFA2461C6F138006462A061F4
:1041E000656584F8585052465946384600F05AFAE8
:1041F0002060B9F1000F01D0C9F80040BDE8F09F80
:1042000030B5114900E011460A688242FBD34B6881
:104210005C18844203D140681844486008464368EB
:104220001C18944209D1084C183C2468A24209D0B9
:1042300052681A4442600A6812680260814200D0E3
:10424000086030BD0460F9E7A400002070B50024C8
:1042500041600B4D0061914206D8D11A82699142AA
:1042600006D2011D286907E09A4203D2994201D380
:10427000012403E0011DE86800F05EFA204670BDED
:104280007400002010B5044600F07AFAA06B28B143
:104290005FF0000400F094FA204610BD0124F9E715
:1042A00030B589B03C4D6EE00498002806DADDE9AF
:1042B0000601059A90470498002864DB069C606913
:1042C00010B1201D00F000FA03A800F0D7F8024654
:1042D00004980A2857D2DFE800F00505052D334A77
:1042E00005052D3394F8280040F0010084F82800DB
:1042F0000599A069059B01442046FFF7A7FF68B315
:10430000216A2046884794F8280040073BD50020C2
:1043100000900598A169002342181946204601F033
:10432000FDF8D8B9502080F31188BFF34F8FBFF349
:104330006F8FFEE714F8280F20F00100207022E0B4
:1043400094F8280040F0010084F828000598A06146
:1043500028B1811813462046FFF778FF13E050205C
:1043600080F31188BFF34F8FBFF36F8FFEE794F890
:104370002800810703D4204600F036FA03E020F03D
:10438000010084F82800002204A9286800F0C8FD74
:10439000002889D109B030BD740000202DE9FC410E
:1043A0000F46054600F070FB01A800F067F80446D0
:1043B000019818B101F020F8BDE8FC81254EAFB19D
:1043C00030690068D0B30027291B3A46306800F0F6
:1043D0008DFA01F011F80028EED11F494FF08050FE
:1043E0000860BFF34F8FBFF36F8FE5E7A542EBD8AF
:1043F00001F002F8F0682746C068C468201D00F08C
:1044000063F994F82800410719D5A0692B46411992
:104410003A462046FFF71AFFA8B10020034601469E
:1044200000902A46204601F079F860B9502080F3C8
:104430001188BFF34F8FBFF36F8FFEE707E020F0C7
:10444000010084F82800216A20468847B4E7012744
:10445000BAE700007400002004ED00E00648416B5C
:10446000096829B1416BC968C968496881627047A8
:104470004FF0FF31FAE700003800002070B5054624
:1044800000F0D8FE064E0446B068844203D200F025
:1044900009F8012000E0002028602046B46070BDCB
:1044A00074000020F8B5194D20E0C068C4680668A3
:1044B000201D00F009F9216A2046884794F8280059
:1044C000400713D5A0693044B04206D9246160602A
:1044D000211DE86800F030F908E00020034601469D
:1044E00000903246204601F019F838B1E8680168BA
:1044F0000029DAD12969C5E90310F8BD502080F3FD
:104500001188BFF34F8FBFF36F8FFEE77400002059
:1045100008484068401C4FF0500080F3118804D0D8
:10452000BFF34F8FBFF36F8FFEE7BFF34F8FBFF324
:104530006F8FFEE7AC000020074CE068016841B1D6
:10454000C0680021D0F80000FFF728FFFFF7A8FEA1
:10455000F3E701210020F7E7740000202DE9F04186
:10456000044600F00DF994F9455004F1240609E0E1
:10457000606A48B1304600F007FF08B100F006FA63
:104580006D1E6DB2002DF3DC4FF0FF3684F84560F0
:1045900000F016F900F0F4F894F9445004F1100713
:1045A00009E0206948B1384600F0EEFE08B100F09D
:1045B000EDF96D1E6DB2002DF3DC84F84460BDE8AA
:1045C000F04100F0FDB800002DE9F041054600275C
:1045D00000F05AFA324E306808B9FFF751FD7069A1
:1045E00005424ED1C5B3083568070ED005F0070067
:1045F000C0F108000544680707D0502080F31188F7
:10460000BFF34F8FBFF36F8FFEE72DB37068854206
:1046100037D82348183001460C6801E020460C4684
:104620006168A94202D221680029F7D131688C4221
:1046300027D007682168016060680837411B10298E
:104640000FD96019420708D0502080F31188BFF3BA
:104650004F8FBFF36F8FFEE713E041606560FFF798
:10466000CFFD61687068401A7060B268904200D2F5
:10467000B060706901430020C4E90001F068401C8B
:10468000F06000F0B9FE780707D0502080F3118861
:10469000BFF34F8FBFF36F8FFEE73846BDE8F08161
:1046A0008C00002010B5031F4FF080741C601B1F8E
:1046B00021F001011960191F024B0B6014394038B9
:1046C0000A6010BD11450008D0E9013201699A6005
:1046D000D0E901235A604A68824201D182684A6067
:1046E000002202610868401E0860086870470000E8
:1046F000034B036003F15C0008608020106070478A
:1047000074070020044B036003F15C0008604FF461
:104710008070106070470000D009002000F108018F
:104720004FF0FF32C0E90112C16001610021016058
:10473000704700210161704730B50B685A1C02D0E8
:1047400000F1080202E0026904E02246546825688C
:104750009D42FAD953684B6099608A605160086144
:104760000168491C016030BD42684A6093688B60F3
:1047700093685960916008610168491C0160704745
:10478000502080F31188BFF34F8FBFF36F8F0A491A
:104790004868401C486001280CD10848006810F0A7
:1047A000FF0F07D0502080F31188BFF34F8FBFF366
:1047B0006F8FFEE770470000AC00002004ED00E0C2
:1047C0000849486828B1401E486001D180F311882B
:1047D0007047502080F31188BFF34F8FBFF36F8F66
:1047E000FEE70000AC00002070B500282AD0164D6E
:1047F000A0F1080460686969084207D1502080F37D
:104800001188BFF34F8FBFF36F8FFEE722683AB175
:10481000502080F31188BFF34F8FBFF36F8FFEE7F7
:104820008843606000F030F9606869680844686037
:104830002046FFF7E5FC2869401C2861BDE8704070
:1048400000F0DABD70BD00008C0000204FF0E020C9
:1048500000210161816105494FF47A720968B1FB59
:10486000F2F1491E416107210161704734000020C7
:1048700010B5FBF709FD114910280ED300F1E02017
:1048800090F8F0030A78904207D2502080F3118804
:10489000BFF34F8FBFF36F8FFEE709480068896849
:1048A00000F4E060884207D9502080F31188BFF3FC
:1048B0004F8FBFF36F8FFEE710BD0000AC000020EC
:1048C0000CED00E010B5084B002200BF53F8324059
:1048D0001CB1521C082AF9D310BD43F8321003EB67
:1048E000C201486010BD00005801002070B5154697
:1048F0000E460446FFF744FF94F944100020491C7B
:1049000001D184F8440094F94510491C01D184F880
:104910004500FFF755FFA06B28B92A46314604F140
:10492000240000F051F82046BDE87040FFF716BEA5
:1049300010B5020014D00F48006B38B1502080F33E
:104940001188BFF34F8FBFF36F8FFEE700F09CF825
:1049500000211046FFF76EFA00F04EFD002807D147
:1049600005494FF080500860BFF34F8FBFF36F8F42
:1049700010BD00003800002004ED00E002490A6A82
:104980000260C96841607047380000200149012079
:10499000C86170473800002010B50C4650B1094975
:1049A00009681831FFF7C8FE2046BDE81040012114
:1049B000FFF740BA502080F31188BFF34F8FBFF349
:1049C0006F8FFEE73800002070B514460D4668B1C1
:1049D0000A4909681831FFF7C7FE0CB14FF0FF35DF
:1049E00021462846BDE87040FFF724BA502080F3E6
:1049F0001188BFF34F8FBFF36F8FFEE738000020A1
:104A000030B587B00024039405AA04A903A8049430
:104A1000FFF76EFEDDE903010094CDE901100023EC
:104A200015A11748059A00F0CCFB164D0028E86246
:104A30001FD000F043FD012809D0401C19D150209F
:104A400080F31188BFF34F8FBFF36F8FFEE75020C5
:104A500080F31188BFF34F8FBFF36F8F4FF0FF309C
:104A6000A86201206861EC6007B0BDE8304000F04A
:104A700045B807B030BD000049444C450000000077
:104A8000CD400008380000200248016B491C01633A
:104A90007047000038000020164810B5016B11B1B6
:104AA0000121C16110BD0021C1610169124A01E00B
:104AB000B9B1491E01EB810352F82330002BF7D026
:104AC00001EB810302EB830202F1080453685B6887
:104AD0005360A34201D15B685360DA6802600161F0
:104AE00010BD502080F31188BFF34F8FBFF36F8F3D
:104AF000FEE7000038000020980100201CB5264980
:104B000008780190FF20087008788DF800009DF863
:104B100000009DF8002000F0F000904207D05020E7
:104B200080F31188BFF34F8FBFF36F8FFEE79DF8BF
:104B300000001A4C00F0500020700720A06005E033
:104B40009DF8002052008DF80020401E9DF80020A6
:104B50001206F5D4A060032807D0502080F31188F6
:104B6000BFF34F8FBFF36F8FFEE74FF44070A0602D
:104B7000019808700A48016841F4700101600168F9
:104B800041F070410160FFF761FE00206060FBF7BB
:104B900045FB00201CBD000000E400E0AC0000204C
:104BA00020ED00E010B5502080F31188BFF34F8F47
:104BB000BFF36F8F00F044FB18B104494FF08050F1
:104BC0000860002080F3118810BD000004ED00E0B3
:104BD000F8B517460E46050013D005FB06F0503019
:104BE000FFF7F2FC04000AD0002084F8460004F12C
:104BF00050023B46314628460094FFF797FA20467C
:104C0000F8BD502080F31188BFF34F8FBFF36F8F33
:104C1000FEE738B5049D18B153B1CAB181B120E0A7
:104C2000502080F31188BFF34F8FBFF36F8FFEE7E3
:104C3000502080F31188BFF34F8FBFF36F8FFEE7D3
:104C4000502080F31188BFF34F8FBFF36F8FFEE7C3
:104C500039B1502080F31188BFF34F8FBFF36F8FAE
:104C6000FEE750241C46012384F846302B4600946E
:104C7000FFF75CFA204638BD70B50D46040025D01C
:104C8000FFF77EFDD4E90F20216802FB0011A1602F
:104C90000021A163216861600A46D4E90F01401E2A
:104CA00000FB0121E16021464FF0FF3001F8440F85
:104CB000487004F110008DB1FFF730FD04F12400BD
:104CC000FFF72CFDFFF77CFD012070BD502080F325
:104CD0001188BFF34F8FBFF36F8FFEE72169002963
:104CE000F0D000F051FB0028ECD004494FF0805088
:104CF0000860BFF34F8FBFF36F8FE3E704ED00E071
:104D00002DE9FF4782B01D468A464FF00008040097
:104D100003D0BAF1000F08D011E0502080F31188C1
:104D2000BFF34F8FBFF36F8FFEE7206C38B1502079
:104D300080F31188BFF34F8FBFF36F8FFEE7022D13
:104D40000AD1E06B012807D0502080F31188BFF30F
:104D50004F8FBFF36F8FFEE700F05EFA3F4F4FF0CB
:104D600000094FF0805648B9049838B1502080F3BC
:104D70001188BFF34F8FBFF36F8FFEE7FFF700FD82
:104D8000A06BE16B884207D3022D05D00498D0B107
:104D9000B8F1000F1AD01EE02A4651462046FFF710
:104DA0001EF9616A19B104F1240000F0EDFA20B196
:104DB0003E60BFF34F8FBFF36F8FFFF701FD012000
:104DC00006B0BDE8F087FFF7FBFC22E06846FFF77E
:104DD000D5FD4FF00108FFF7F3FCFFF755FEFFF795
:104DE000CFFC94F94400401C01D184F8449094F91C
:104DF0004500401C01D184F84590FFF7E1FC04A96F
:104E0000684600F077F930B12046FFF7A7FB00F0C5
:104E1000F3FA0020D4E7FFF7B3FCA06BE16B884204
:104E200013D1FFF7CDFC04F110000499FFF7B4FD96
:104E30002046FFF793FB00F0DFFA00289ED13E608A
:104E4000BFF34F8FBFF36F8F98E7FFF7B9FC204692
:104E5000FFF784FB00F0D0FA90E7000004ED00E0DB
:104E60002DE9F0471F4690468946040003D0B9F16A
:104E7000000F08D011E0502080F31188BFF34F8F4E
:104E8000BFF36F8FFEE7206C38B1502080F311889C
:104E9000BFF34F8FBFF36F8FFEE7022F0AD1E06B96
:104EA000012807D0502080F31188BFF34F8FBFF344
:104EB0006F8FFEE7FFF7DCFC5020EFF3118680F3E5
:104EC0001188BFF34F8FBFF36F8FA06BE16B8842E8
:104ED00006D3022F04D0002086F31188BDE8F087A6
:104EE00094F94550A06B3A4649462046FFF777F8BB
:104EF000681C04D06D1C84F845500120ECE7606A02
:104F00000028FAD004F1240000F03EFA0028F4D082
:104F1000B8F1000FF1D00121C8F80010EDE7000052
:104F20002DE9F747002683B08A46040003D0BAF182
:104F3000000F08D011E0502080F31188BFF34F8F8D
:104F4000BFF36F8FFEE7206C38B1502080F31188DB
:104F5000BFF34F8FBFF36F8FFEE700F05DF9DFF80F
:104F6000F4804FF000094FF0805748B9059838B1E8
:104F7000502080F31188BFF34F8FBFF36F8FFEE790
:104F8000FFF7FEFBA56BC5B151462046FFF714F8AD
:104F90006D1EA563206950B104F1100000F0F4F912
:104FA00028B1C8F80070BFF34F8FBFF36F8FFFF7C2
:104FB00007FC012006B0BDE8F087059808B11EB1D6
:104FC00006E0FFF7FDFB27E06846FFF7D7FC012668
:104FD000FFF7F6FBFFF758FDFFF7D2FB94F944000B
:104FE000401C01D184F8449094F94500401C01D143
:104FF00084F84590FFF7E4FB05A9684600F07AF8CD
:10500000002820460AD0FFF7A9FA00F0F5F920465B
:10501000FFF738F90028B3D00020CBE7FFF732F9CB
:1050200090B104F124000599FFF7B6FC2046FFF784
:1050300095FA00F0E1F90028A2D1C8F80070BFF39A
:105040004F8FBFF36F8F9BE72046FFF787FA00F083
:10505000D3F995E704ED00E02DE9F0479046894645
:10506000040003D0B9F1000F08D011E0502080F304
:105070001188BFF34F8FBFF36F8FFEE7206C38B1FD
:10508000502080F31188BFF34F8FBFF36F8FFEE77F
:10509000FFF7EEFB5020EFF3118680F31188BFF38A
:1050A0004F8FBFF36F8FA76BF7B194F94450494608
:1050B0002046FEF781FF7F1EA763681C04D06D1C8D
:1050C00084F84450012010E020690028FAD004F14F
:1050D000100000F059F90028F4D0B8F1000FF1D019
:1050E0000121C8F80010EDE7002086F31188BDE823
:1050F000F08700002DE9F0410C46050011D0C4B145
:10510000FFF73EFB174BDA686E682068911B471C5F
:1051100017D02F681B6A9F4219D0964217D80124D6
:1051200010E0502080F31188BFF34F8FBFF36F8FD3
:10513000FEE7502080F31188BFF34F8FBFF36F8FCE
:10514000FEE70024FFF73CFB2046BDE8F0818842E3
:1051500005D9401A20602846FFF710FCF1E700202F
:105160002060DCE7380000202DE9FF5F8346DDE9A1
:105170000E87994616468A469000FFF725FA0500E5
:105180001CD05C20FFF720FA040014D00020256317
:1051900084F85900CDE90240CDE900874B463246FC
:1051A00051465846FEF7D4FF2046FEF771FE012017
:1051B00004B0BDE8F09F2846FFF716FB4FF0FF3024
:1051C000F6E7F0B585B0DDE90B640A9DA6B1DCB168
:1051D0005C2700972663022684F85960002604AFF6
:1051E000CDE90246CDE90057FEF7B2FF2046FEF7B3
:1051F0004FFE049805B0F0BD502080F31188BFF336
:105200004F8FBFF36F8FFEE7502080F31188BFF3FD
:105210004F8FBFF36F8FFEE70548416919B1006BEF
:1052200018B100207047012070470220704700002D
:10523000380000200148C068704700003800002096
:105240002DE9F0412E4C0027206B28B1A069401CAD
:10525000A0613846BDE8F081E668761CE66013D1AF
:10526000606B006838B1502080F31188BFF34F8F16
:10527000BFF36F8FFEE7606BA16B6163A063206A71
:10528000401C2062FFF7EAF8A06ADFF878808642C7
:1052900009D3606B0068A0B1606BC068C5686868BE
:1052A000864211D2A0622068C06A00EB800158F8E3
:1052B0002100012800D90127E0690028C9D0012771
:1052C000C7E74FF0FF30EDE7281DFFF7FDF9A86AAB
:1052D00018B105F11800FFF7F7F9E86A216988426B
:1052E00000D9206100EB800108EB8100291DFFF748
:1052F0003BFAE86A2168C96A8842CAD30127C8E72D
:10530000380000209801002070B504004FF0000123
:1053100033D01B4D2868844207D0502080F3118879
:10532000BFF34F8FBFF36F8FFEE7206D38B1401E84
:105330002065E36CE26A9A421FD040B11DE0502024
:1053400080F31188BFF34F8FBFF36F8FFEE7201DEF
:10535000FFF7BAF9E06CE062C0F13800A061E06AE2
:105360002969884200D92861064900EB800001EBD9
:105370008000211DFFF7F8F90121084670BD0000EB
:10538000380000209801002070B5C068C46854B18E
:1053900004F118000646FFF797F9144D286B50B139
:1053A0003146134815E0502080F31188BFF34F8F2A
:1053B000BFF36F8FFEE7201DFFF786F9E06A2969CA
:1053C000884200D928610B4900EB800001EB800086
:1053D000211DFFF7C9F9E06A2968C96A884202D924
:1053E0000120E86170BD002070BD00003800002081
:1053F00020060020980100202DE9F0472C4D0024C4
:105400002746286B38B1FFF7BBF9286B401E28638D
:10541000286B40B146E0502080F31188BFF34F8FD6
:10542000BFF36F8FFEE7A968224E0120D1B3A6F526
:10543000916980463068E0B1F068C46804F11800F2
:10544000FFF742F9201DFFF73FF9E06A296988421A
:1054500000D9286100EB800109EB8100211DFFF7D5
:1054600083F9E06A2968C96A8842E3D3C5F81C80D9
:10547000E0E70CB1FEF7F2FFAC694CB14FEA080669
:10548000FFF7DEFE00B1EE61641EF9D10020A861D5
:10549000E86938B10849012738070860BFF34F8F22
:1054A000BFF36F8FFFF78CF93846BDE8F087000037
:1054B000380000202006002004ED00E010B586B082
:1054C000FEF74EFD114C2068B8B100200390049007
:1054D00005AA04A903A8FFF715F9DDE903210220B5
:1054E0008DE8070000230AA10B48059AFFF769FE23
:1054F000606010B106B0012010BD502080F311880B
:10550000BFF34F8FBFF36F8FFEE7000074000020E2
:10551000546D722053766300394500082DE9FF4130
:105520001E46134602000A9D4FF0000016D0144C90
:105530002768002F0FD0CDE900130292062917DA51
:10554000FFF76AFE02284FF000030FD000226946E1
:105550002068FFF7D5FB04B0BDE8F081502080F350
:105560001188BFF34F8FBFF36F8FFEE72A46EEE738
:105570000023324669463846FFF772FCEBE700002D
:105580007400002010B500290AD00878002807D040
:1055900005487844FBF720FF002801D0002010BD0B
:1055A0000248784410BD0000960800008E080000F4
:1055B00010B500290AD00878002807D0054878449B
:1055C000FBF70AFF002801D0002010BD02487844F4
:1055D00010BD0000860800007E08000021F0004297
:1055E000A2F16052B2F5801F01F0004328BFD2F152
:1055F0007F6C0BD95FEA001C43EAC20242EB507099
:1056000018BF704728BF20F001007047B2F5801F17
:10561000BCBF184670474FEA410C1CF5001F02D270
:10562000084600F076BA70B500F096F800000089E0
:10563000FFF7F6BF4FF00040A0F580007047000074
:1056400002494FF0000000F06EBA00BF0000F87F82
:10565000491058BFC1F140415B1058BFC3F14043EE
:105660008B42EFF30080704751EA030C17D41CF50E
:10567000801F58BFBCF5801F00F10680994218BFFB
:10568000704708BF9042704707D711F5801F58BF79
:1056900013F5801F19D499427047894270471CF551
:1056A000801F08D5BCF5801FF7D58B4218BF704707
:1056B00008BF824270474FF4001C1CEB410F38BFFB
:1056C0001CEB430F01D28B42704770B500F044F8D9
:1056D000922449004FF000514FF08053FFF7B8BFBC
:1056E00051EA030C17D41CF5801F58BFBCF5801F6E
:1056F00000F10680994218BF704708BF904270477A
:1057000007D711F5801F58BF13F5801F19D4994290
:105710007047894270471CF5801F08D5BCF5801F73
:10572000F7D58B4218BF704708BF824270474FF4CD
:10573000001C1CEB410F38BF1CEB430F01D28B4206
:10574000704770B500F008F8922449004FF00051FE
:105750004FF08053FFF77CBF0EF1020E2EF0030EC8
:105760005EF8046B364205D4012A43EB030515F5B8
:10577000001F12D8012841EB010C1CF5001F0CD8AA
:105780000ED14FEAD17C15F5001F0CEB4C0C0CF13F
:10579000020C08BF4CEBD37C04E04FF0080C01E096
:1057A0004FEAD37C0CEB4C0526FA05F606F007060B
:1057B000B6F1040C06D20EEB860CBDE870404CF03E
:1057C000010C6047DFE80CF0090B02024FF00041CA
:1057D0004FF00000A1F5002170BD194610460128C8
:1057E00051EB010418BFD4F5001484BF002001F070
:1057F000004170BD0808A0F500114FEA3101704763
:1058000053EA010C17D41CF5801F58BFBCF5801F4C
:1058100000F106808B4218BF704708BF8242704774
:1058200007D713F5801F58BF11F5801F19D48B427D
:1058300070479B4270471CF5801F08D5BCF5801F40
:10584000F7D5994218BF704708BF904270474FF490
:10585000001C1CEB430F38BF1CEB410F01D29942D7
:1058600070470FB40CBC03BCFFF76BBF43004FEA9B
:10587000D30C4FEA3C0C43401FBF40070CF1605172
:1058800013F0FE4F70471CF0006F03D100200CF0A6
:10589000004170470CF0004343EA507010B540EAF5
:1058A000CC0000F0F0F800BF000000924FEA0001C9
:1058B000FFF7A0BF4FF000414FF00000A1F500211D
:1058C000704700004FF47F0C1CEAD0121EBF1CEA88
:1058D000D11392EA0C0F93EA0C0F00F0858090EA46
:1058E000010F48BF42F4807240F4000C41F4000004
:1058F0002CF07F4120F07F4000B58142A2EB0302F3
:105900000FF2081CACEB504EC0F100009EF800E016
:105910004FEA4E0E00FB0EFC38BF49004FEA2C1C2C
:1059200002F5FA020CFB0EF34FEACE1E4FEA112CE1
:105930004FEAC1210EEB635E42EB22420EFB0CFCF0
:105940004FEA1C5300FB03114FEA112C4FEA0131BF
:105950000EFB0CFC4FEADC4C00FB0C11C14228BFD3
:1059600009184CEB03335DF804EB10EB410143EBFA
:10597000C250B2F57C0F38BF704729D512F0F00F36
:105980001CBF00F1C04000F00040704700818283DE
:105990008485868788898B8C8D8E8F91929395963E
:1059A00097999A9C9D9FA0A2A3A5A7A8AAACAEB0C8
:1059B000B2B3B5B7B9BCBEC0C2C5C7C9CCCED1D4CD
:1059C000D7D9DCDFE2E6E9ECF0F3F7FAFE000000FD
:1059D0004FEA400C0CF1807CBCF17E4F28BF704731
:1059E000B0F1C04000F095B890EA010F0CEAD11375
:1059F00048BF42F48072624538BF634507D213F452
:105A00007F0F16D080EA010000F00040704710B50B
:105A100000F039F8097EFC3E00F005B880EA01008C
:105A200000F00040704780EA010000F0004000F004
:105A300070B812F47F0F04BF0248704780EA01007B
:105A400000F067B80000C07FC10DD1F19E0206DBF7
:105A50004FEA002343F0004323FA02F0704700426C
:105A600007D54FEA4001B1F1FE4F02D24FF00000DE
:105A7000704710B500F007F8499224800020704765
:105A80006FEA200070470EF1020E2EF0030E5EF852
:105A9000044B244204D44FEA4102B2F17F4F11D8A3
:105AA0004FEA4003B3F17F4F0CD80ED14FEAD07CC0
:105AB000B2F17F4F0CEB4C0C0CF1020C08BF4CEB1D
:105AC000D17C04E04FF0080C01E04FEAD17C0CEBF4
:105AD0004C0324FA03F404F00704B4F1040C06D2D6
