:020000040800F2
:10000000C034002085020008371900086B1800086A
:10001000351900082B0A0008AD1D0008000000007B
:10002000000000000000000000000000ED010008DA
:100030002D0A0008000000003102000839190008EC
:100040009F0200089F0200089F0200089F0200080C
:100050009F0200089F0200089F0200089F020008FC
:100060009F0200089F0200089F0200089F020008EC
:100070009F0200089F0200089F0200089F020008DC
:100080009F0200089F0200089F0200089F020008CC
:100090009F0200089F0200089F0200089F020008BC
:1000A0009F0200089F0200089F0200089F020008AC
:1000B0009F0200089F0200089F0200089F0200089C
:1000C0009F0200089F0200089F0200089F0200088C
:1000D0009F020008A11D00089F0200089F0200085F
:1000E0009F0200089F0200089F0200089F0200086C
:1000F0009F0200089F0200089F0200089F0200085C
:100100009F0200089F0200089F0200089F0200084B
:100110009F0200089F0200089F0200089F0200083B
:100120009F0200089F0200089F0200089F0200082B
:1001300000F002F800F04BF80AA090E8000C8244AE
:100140008344AAF10107DA4501D100F040F8AFF28B
:10015000090EBAE80F0013F0010F18BFFB1A43F0A5
:1001600001031847402F0000602F0000103A24BF01
:1001700078C878C1FAD8520724BF30C830C144BF0C
:1001800004680C607047000000230024002500264E
:10019000103A28BF78C1FBD8520728BF30C148BFEA
:1001A0000B607047642900F0A380752900F0A080DF
:1001B000002070471FB500F0D5FB0400002000218F
:1001C00002F038FF401C60601FBD10B510BD00F08C
:1001D000A4FB1146FFF7EEFF01F01CFE00F0D4FB7C
:1001E00003B4FFF7F2FF03BC00F018FC224B1968C0
:1001F0000868B0E8F00F80F30988BFF36F8F4FF005
:10020000000080F311884EF00D0E704700000000D2
:1002100006480068006880F3088862B661B6BFF3DC
:100220004F8FBFF36F8F00DF00BF00BF08ED00E00E
:10023000EFF30980BFF36F8F0F4B1A6820E9F00FBF
:10024000106008B54FF0500080F31188BFF34F8F56
:10025000BFF36F8F02F04AFB4FF0000080F311886C
:10026000BDE8084019680868B0E8F00F80F3098815
:10027000BFF36F8F704700BF34000020EFF305809D
:10028000704700000948804709480047FEE7FEE73D
:10029000FEE7FEE7FEE7FEE7FEE7FEE7FEE7FEE736
:1002A00004480549054A064B7047000093190008A9
:1002B00031010008C02E0020C0340020C0300020D2
:1002C000C03000200FB41CB5084B06AA7B44694619
:1002D0000090059800F021FA04460020694600F0DD
:1002E0002FFA20461CBC5DF814FB000071040000CE
:1002F0002DE9F0410646002410687529314616A5FF
:1003000010D0AFF30080002802DA404213A507E0C6
:1003100031688A0701D512A502E0490704D511A565
:10032000012401E0AFF3008000210A2206F1240736
:1003300009E0B0FBF2FCB0FBF2F302FB1C00303032
:1003400078541846491C0028F3D123462A463046E3
:10035000BDE8F04100F082B9000000002D0000006F
:100360002B000000200000002DE9F0410F4605465B
:10037000002028622846E968884770B3252805D000
:10038000D5E901219047286A401CF2E7E968284630
:10039000002688476C2804460AD0682C08D04C2CCC
:1003A00035D06A2C31D0742C31D07A2C2FD016E075
:1003B000E968064628468847B042044608D16C2EB4
:1003C00023D04FF480662846E9688847044606E053
:1003D0006C2E03D04FF4807601E01EE04026E4B19D
:1003E000A4F14100192802D8203446F400663A46A8
:1003F000214628462E60FFF7D5FE60B1012808D0BF
:10040000FF1D27F007070837B4E78026DBE7002643
:10041000D9E73F1DAEE72046B2E7286ABDE8F08184
:1004200070B5064600F016F90468054630460A2203
:10043000002100F08AF92C6070BD10B5431C02E069
:1004400010F8011B71B18107FAD14FF0013202C8D7
:100450008C1A8C4314EAC211F9D0C01A0A0603D0D0
:10046000C01E10BDC01A10BD0A0401D0801E10BDF0
:100470000902FCD0401E10BD40EA010370B59B0785
:100480002ED14FF00136042A2AD308C810C99D1B6B
:100490009D43121F15EAC61517D0D8B2E1B2401A13
:1004A00050EA056110D198B2A1B2401A50EA054154
:1004B0000AD123F07F4024F07F41401A50EA052101
:1004C00002D1180EA0EB146070BDA342DBD018BAA5
:1004D00021BA884201D9012070BD4FF0FF3070BDB4
:1004E0000AB9002070BD10F8013B11F8014B63B14F
:1004F000A3420AD1521E08D010F8013B11F8014B5B
:100500001BB1A34201D1521EEDD1181B70BD032AAD
:1005100040F2308010F0030C00F0158011F8013B20
:10052000BCF1020F624498BF11F801CB00F8013B07
:1005300038BF11F8013BA2F1040298BF00F801CBCB
:1005400038BF00F8013B11F0030300F03681083A90
:10055000C0F0088051F8043B083A51F804CBA0E8F9
:100560000810F5E7121D5CBF51F8043B40F8043B4E
:10057000AFF30080D20724BF11F8013B11F801CB83
:1005800048BF11F8012B24BF00F8013B00F801CB54
:1005900048BF00F8012B704702F0FF0343EA032233
:1005A00042EA024200F03DB94FF0000200B51346A6
:1005B00094469646203922BFA0E80C50A0E80C5083
:1005C000B1F12001BFF4F7AF090728BFA0E80C5034
:1005D00048BF0CC05DF804EB890028BF40F8042B2D
:1005E00008BF704748BF20F8022B11F0804F18BF9A
:1005F00000F8012B704710B5044610F0030F08BF38
:1006000011F0030F40F015804FF0013E121FC0F2B1
:100610000E8051F8043BA3EB0E0C2CEA030C1CEAF1
:10062000CE1C08BF40F8043BF0D0A1F1040102F158
:100630000402521E08DB11F8013B002B00F8013BBD
:10064000F7D1114600F0EBF8204610BD7047704717
:1006500070470000004870475C2E00202DE9F047ED
:100660000D4699469246044600F124080168880622
:1006700004D5E06921F01001216000E00120A842CA
:1006800001DD471B00E00027A1697A1902EB090090
:10069000081AA0612078C00602D42046AFF300807B
:1006A000002608E0D4E901211AF806009047206AE4
:1006B000401C761C20624E45F4DB2078C0060AD52B
:1006C0002046AFF3008006E0D4E9012130209047B6
:1006D000206A401C2062381EA7F10107F4DC07E005
:1006E000D4E9012118F805009047206A401C2062D7
:1006F000281EA5F10105F3DC2046AFF30080207829
:10070000000602D50220BDE8F0870120FBE70000CB
:1007100001694A1C02610878704700B58FB0CDE9C5
:1007200001310021059105497944CDE903101146B5
:100730006846FFF719FE0FB000BD0000E5FFFFFFA0
:100740000A6802F8010B0A6070472DE9F0479146EC
:100750000F4680460446002614F8015B2DB100F0D8
:1007600085F80068405DC007F6D12B2D02D02D2DF5
:1007700018D0641E4A463946204600F07FF827B15B
:100780003968A14201D1C7F800804FF00204710519
:100790000BD54042002803DDFFF75CFF0460A00793
:1007A000BDE8F08746F48066E4E70028F8DAFFF752
:1007B00051FF04606FF00040F2E710B5203AC0F03E
:1007C0000B80B1E81850203AA0E81850B1E8185052
:1007D000A0E81850BFF4F5AF5FEA027C24BFB1E88F
:1007E0001850A0E8185044BF18C918C0BDE8104000
:1007F0005FEA827C24BF51F8043B40F8043B08BF09
:100800007047D20728BF31F8023B48BF11F8012BCF
:1008100028BF20F8023B48BF00F8012B70474FF07B
:1008200000020429C0F0128010F0030C3FF4BEAEA9
:10083000CCF1040CBCF1020F18BF00F8012BA8BFCB
:1008400020F8022BA1EB0C01FFF7B0BE5FEAC17CE0
:1008500024BF00F8012B00F8012B48BF00F8012B42
:1008600070470000004870475C2E002010B500F073
:1008700079F8001D10BD00BFBD2700002DE9F05F15
:10088000824615468B4600270AF10104B9460078D6
:10089000302801D09DB113E014F8010B012778280E
:1008A00003D0582801D045B10AE00DB1102D07D171
:1008B000002714F8010B102502E0082500E00A25A6
:1008C0000026B0460EE005FB080005FB06F10127F7
:1008D0001FFA80F801EB1046B6F5803F00D3B94609
:1008E00014F8010B294600F041F80028EBDABBF1BF
:1008F000000F05D00FB1641E00E05446CBF8004055
:10090000B9F1000F06D0FFF7A5FE02210160C81E55
:10091000BDE8F09F48EA0640FAE77546FFF7A2FFF8
:10092000AE4605006946534620F00700854618B0DC
:1009300020B5FFF7B5FCBDE820404FF000064FF0B2
:1009400000074FF000084FF0000B21F00701AC4604
:10095000ACE8C009ACE8C009ACE8C009ACE8C00923
:100960008D467047004870477C2E00203A2800D200
:10097000303820F02002412A01D3A2F1370088420A
:1009800001D34FF0FF30704710B50446AFF300803D
:100990002046BDE81040FFF723BC00004FF0013CAB
:1009A00050F8042B51F8043B9A4221D1A2EB0C03DE
:1009B000934313EACC1317D150F8042B51F8043B9E
:1009C0009A4215D1A2EB0C03934313EACC130BD13B
:1009D00050F8042B51F8043B9A4209D1A2EB0C03C6
:1009E000934313EACC13DBD04FF00000704700BFF5
:1009F000D01A01BAB1FA81F101F0180122FA01F01E
:100A0000CB40C1F12001DBB2C0B2C01A2CFA01F315
:100A1000D11A914311EAC311E6D170470149182058
:100A2000ABBEFEE7260002007047FEE7704710B538
:100A300090F821100022022905D00421816380F85A
:100A40002020012010BD01680B6823F00E030B600D
:100A500001680B6823F001030B6090F84030C46B11
:100A6000012101FA03F3636080F8211080F820204F
:100A7000104610BD2DE9F05F90F8211000240229E6
:100A800003D004218163012485E001680A6822F013
:100A90000E020A6001680A6822F001020A603F4EF5
:100AA0003E4FB215DFF8F4C0DFF8F090DFF8ECA0AD
:100AB000DFF8E8B0DFF8E4E00168783F13011502E1
:100AC000ACF1640CA9F15009AAF13C0AABF1280B76
:100AD000AEF1140E4FF48018B14227D9B9420ED0AE
:100AE000614512D049451DD0514518D0594518D0FF
:100AF000714501D1424615E0294EB14201D1012292
:100B000010E0274E1436B14201D110220AE0244EE3
:100B10002836B14206D0224A3C32914201D11A46CF
:100B200000E02A461E49091F0A602BE0B94213D093
:100B3000614517D0494522D051451DD059451DD09A
:100B4000714501D142461AE0B14202D14FF08072A4
:100B500015E0134EB14201D1012210E0104E1436BF
:100B6000B14201D110220AE00D4E2836B14206D022
:100B70000B4A3C32914201D11A4600E02A4607490D
:100B800080394A60012180F82110002180F820106E
:100B9000416B01B188472046BDE8F09F80000240CC
:100BA000080402402DE9F84FDFF8C8910024A9F1AC
:100BB000040B23460F2709F1040AABF1040ED1E020
:100BC0000125A54006EA0502AA4276D1DFF8A8C1B0
:100BD0004E68A6EB0C0866452BD00DDC032E34D0F6
:100BE00005DC36B3012E19D0022E2FD11BE0112EB9
:100BF00016D0122E2AD119E0B8F5881F19D006DCBC
:100C0000B8F5803F15D0B8F5801F1FD111E0B8F5B9
:100C1000001F0ED0B8F5041F18D10AE0CB6815E00C
:100C2000CB681B1D12E0CB6808330FE0CB680C3398
:100C30000CE08B682BB1012B4FF0080303D045610A
:100C400004E0042302E0056100E00023FF2A01D84C
:100C5000064601E000F104064FEA840501D9A5F13A
:100C60002005D6F8008007FA05FC28EA0C0803FAEC
:100C700005F548EA0508C6F800804D68ED0070D516
:100C80003E4DAE6946F00106AE61AD6924F0030643
:100C900005F0010500953A4D06EB050CDCF808500F
:100CA000A607360F07FA06F825EA0805DFF8D4800C
:100CB000404503D14FF0000825E052E0DFF8C8803E
:100CC000404502D14FF001081DE0DFF8C0804045EB
:100CD00002D14FF0020816E0DFF8B480404502D19F
:100CE0004FF003080FE0DFF8AC80404502D14FF031
:100CF000040808E0DFF8A080404502D14FF0050865
:100D000001E04FF0060808FA06F848EA0508CCF8B2
:100D100008804D68D9F80060ED024D4601D51643B4
:100D200000E096432E604D68DAF80060AD0255464B
:100D300001D5164300E096432E604D68DBF8006055
:100D4000AD035D4601D5164300E096432E604D6825
:100D5000DEF80060ED03754601D5164300E09643CA
:100D60002E60641C0A681646E2407FF429AFBDE895
:100D7000F88F00000804014000001110001002402C
:100D80000000014000080140000C0140001001403B
:100D90000014014000180140001C01400AB101612B
:100DA00070470904FBE700000148806870470000B5
:100DB0002400002002488168027811448160704755
:100DC00024000020074810B5016841F010010160BF
:100DD000032000F075F80F2000F006F800F024F86A
:100DE000002010BD0020024070B50D4D04464FF4A8
:100DF0007A712878B1FBF0F00A490968B1FBF0F08C
:100E000000F0DCFA48B9102C07D200222146501E0F
:100E100000F036F800206C6070BD012070BD00004D
:100E200024000020300000200C4808B5816941F002
:100E300001018161816901F001010091C16941F005
:100E40008051C161C06900F0805000900448416841
:100E500021F0E06141F08061416008BD0010024076
:100E600000000140002809DB00F01F020121914031
:100E70004009800000F1E020C0F800117047000038
:100E8000F0B40E4B1B680C46C3F30223C3F10705F5
:100E9000042D00D90425191D072901D2002300E0E3
:100EA000DB1E012606FA05F1491E214099409E40AD
:100EB000761E16403143F0BC00F079BF0CED00E027
:100EC000064900F0070208684FF6FF03184040EAA1
:100ED0000220034A10430860704700000CED00E058
:100EE0000000FA052DE9F0470F46050061D0434E9A
:100EF000306800F00700B84209D2306820F00700DF
:100F000038433060306800F00700B84251D128689B
:100F10003B4C810712D5400703D5606840F4E06080
:100F200060602878000703D5606840F46050606016
:100F30006068A96820F0F000084360602878C00766
:100F400028D06868012810D02168022810D08907AD
:100F500000292EDA616821F0030101436160FFF787
:100F600023FF804641F288390DE021688903EFE7CD
:100F70008901EDE7FFF718FFA0EB0801494502D909
:100F80000320BDE8F0876068696800F00C00B0EBF2
:100F9000810FEFD1306800F00700B8420BD93068FC
:100FA00020F0070038433060306800F00700B84296
:100FB00001D00120E5E72878400705D56068E96899
:100FC00020F4E060084360602878000706D5606878
:100FD000296920F4605040EAC100606000F038F8F0
:100FE0006168084AC1F30311515CC84006490860B2
:100FF00006480068FFF7F8FE0020C2E70020024024
:10100000001002408A300008300000202800002034
:101010000448054900684968044AC1F30221515C4B
:10102000C840704730000020001002409A3000088D
:101030000448054900684968044AC1F3C221515C6B
:10104000C840704730000020001002409A3000086D
:101050000E4A51680E4801F00C03042B11D0082BE6
:101060000FD10C48C1F38343C903C05C0AD5516852
:10107000084AC1F34041921E515C054A5043B0FBFF
:10108000F1F07047044948437047000000100240E7
:1010900000127A007A30000800093D002DE9F84F6F
:1010A000040070D02078C04DC00749D06868C0F3F4
:1010B0008100012807D06868C0F38100022809D1A7
:1010C0006868C00306D52868800339D560680028A1
:1010D000E7D035E06068B0F5803F0BD010B1B0F5D7
:1010E000A02F11D0286820F480302860286820F4D0
:1010F000802002E0286840F480302860606890B169
:10110000FFF752FE06460AE0286840F48020286077
:10111000F0E700BFFFF748FE801B642873D82868FB
:101120008003F7D50CE0FFF73FFE064605E000BF61
:10113000FFF73AFE801B6428F0D828688003F7D4B4
:1011400020789A4E80074FF001094FF0000839D5FA
:10115000686810F00C0F07D06868C0F3810002289F
:1011600009D16868C00306D42868800714D52069AF
:10117000012808D110E02069B0B1C6F80090FFF74F
:1011800013FE074605E00AE1FFF70EFEC01B02282A
:10119000C4D828688007F7D52868616920F0F8006E
:1011A00040EAC10028600DE0C6F80080FFF7FCFDB2
:1011B000074604E0FFF7F8FDC01B022823D8286883
:1011C0008007F7D4207800072CD57948A169D9B1D8
:1011D000C0F80090FFF7E8FD074604E0FFF7E4FDE4
:1011E000C01B02280FD8686A8007F7D571484FF4F2
:1011F000FA510068B0FBF1F0009000BF0098411E6A
:101200000091FAD20EE080E0C0F80080FFF7CCFD3C
:10121000074604E0FFF7C8FDC01B022875D8686ABE
:101220008007F7D42078400760D5E8690027C00020
:1012300008D4E86940F08050E861E869012700F0CF
:10124000805000905C480168C90513D4016883464A
:1012500041F480710160FFF7A7FD824606E000BF00
:10126000FFF7A2FDA0EB0A0064284ED8DBF80000CF
:10127000C005F5D5E06801280AD008B1052813D0CB
:10128000286A20F001002862286A20F0040002E0A9
:10129000286A40F001002862E06841F2883B98B17A
:1012A000FFF782FD82460BE0286A40F004002862C6
:1012B000EEE700BFFFF778FDA0EB0A0159455AD8C9
:1012C000286A8007F6D50CE0FFF76EFD824605E040
:1012D000FFF76AFDA0EB0A0159454CD8286A800740
:1012E000F6D41FB1E86920F08050E861E06988B366
:1012F0006968C1F38101022944D00228C6F86080E0
:1013000004D0FFF751FD044638E034E0FFF74CFD10
:10131000074604E0FFF748FDC01B02282BD82868C9
:101320008001F7D4206AB0F5803F05D16868A168D4
:1013300020F4003008436860D4E908010843696874
:1013400021F4741108436860C6F86090FFF72CFD23
:10135000044606E025E000BFFFF726FD001B02283B
:1013600009D828688001F7D51BE000BFFFF71CFDF6
:10137000001B022802D90320BDE8F88F28688001ED
:10138000F4D40EE00128F7D06868226A00F48031B6
:10139000914204D1616A00F47010884201D00120AA
:1013A000EAE70020E8E700000010024000004242A7
:1013B00080044242300000200070004010B5401E02
:1013C000B0F1807F01D3012010BD4FF0E0246061B7
:1013D0000F21601700F0EBFC0020A06107202061C6
:1013E000002010BD70477047F8B5016804460868D2
:1013F000CA684B6910F00F0F4FF0000559D003F089
:10140000010602F49077374365D0C10705D0D105B6
:1014100003D5616C41F001016164410705D5D9072D
:1014200003D0616C41F002016164810705D5D907E1
:1014300003D0616C41F004016164010707D502F03B
:101440002001314303D0616C41F008016164616C9B
:1014500000293AD0800604D5900602D5204600F037
:101460008EFB20684069616CC0F38010090700D4CE
:1014700060B3204600F05CFB20684069400621D53F
:101480002068143050E8001F21F0400140E80012AD
:10149000002AF5D1E06BA8B16D494163E06BFFF71D
:1014A000E9FA002811D0E06B416B01B0BDE8F040D3
:1014B000084783060FD593060DD52046BDE8F840B2
:1014C00000F05DBB2046FFF78EFFF8BD2046FFF71A
:1014D0008AFF6564F8BD266B2023012E7CD1C606E9
:1014E0007AD5D60678D508684868009048694FF0E4
:1014F0000206400640D5E16B086840680004000C15
:10150000E8D0A28D8242E5D9E085886920282DD0D7
:1015100020680C3050E8001F21F4807140E8001270
:10152000002AF5D12068143050E8001F21F0010195
:1015300040E80012002AF5D12068143050E8001F5E
:1015400021F0400140E80012002AF5D184F8423031
:10155000256320680C3050E8001F21F0100140E89E
:101560000012002AF5D1E06BFFF761FA6663A08DE7
:10157000E18D401A81B22AE0A08DE18D401A81B23E
:10158000E08D0028A6D00029A4D022680C3252E8B1
:10159000000F20F4907042E80007002FF5D120687A
:1015A000143050E8002F22F0010240E80027002FFD
:1015B000F5D184F84230256320680C3050E8002FC4
:1015C00022F0100240E80023002BF5D1666320468C
:1015D000FFF708FFF8BDFFE705062BD5150629D54F
:1015E00094F841002128F5D1A068B0F5805F01D1C1
:1015F0002069B0B1206A411C2162216800784860EE
:10160000E08C401E0004000CE084E3D12068C16837
:1016100021F08001C1602068C16841F04001C160D3
:10162000D8E7206A0088C0F308004860206A801C60
:101630002062E5E74006CDD55006CBD5CA682046E6
:1016400022F04002CA6084F8413000F00DF9C1E791
:10165000211B000870B5040004D094F84100002557
:1016600010B106E0012070BD84F84050204600F023
:1016700023F8242084F841002068C16821F4005137
:10168000C160204600F0DCFA2068016921F4904135
:1016900001612068416921F02A0141612068C16827
:1016A00041F40051C1606564202084F8410084F851
:1016B00042006563002070BD30B585B00024009401
:1016C0000194029403940068184988422CD1184868
:1016D000816941F480418161816901F48041049113
:1016E000816941F0040181618069124D00F00400BC
:1016F00004904FF4007000900220019003200390AA
:1017000069462846FFF74EFA2815CDE900046946D8
:1017100028460294FFF746FA002211462520FFF7DB
:10172000AFFB2520FFF79EFB05B030BD0038014020
:10173000001002400008014090F84230202B01D0F8
:101740000220704721B11AB10023036300F0D4BA1C
:101750000120704730B50068184991B088422AD1FD
:10176000174C184A2046617800780A2910D00D29B4
:101770000ED03F2802D21154401C207011B01049E5
:101780001048BDE830400122491C4838FFF7D4BF5B
:101790000028F3D0002515543F220A496846FEF779
:1017A0002AFF8DF83F5000231A466946606901F010
:1017B000D7F92570E2E711B030BD000000380140D4
:1017C00000000020F00000202DE9F843044690F8C6
:1017D0004100984616460D46202802D00220BDE85A
:1017E000F88385B17EB100206064212084F8410037
:1017F000FFF7DAFAA6848146E684A0682027B0F5D0
:10180000805F02D003E00120E9E7206910B12E4695
:1018100000250EE000260CE08021204600F087FA2B
:10182000A8B9C6B116F8010B21684860E08C401ECB
:10183000E084E08C4B464FF00002CDF80080002899
:10184000EAD14FF04001204600F071FA40B184F82F
:1018500041700320C3E735F8020BC0F30800E3E74B
:1018600084F841700020BAE77047FEE72DE9F041A7
:1018700086B000241C48009401940294039481696A
:1018800041F008018161816901F0080104918169D9
:1018900041F0200181618069144F00F02000049024
:1018A000002220213846FFF779FADFF84480002231
:1018B00048214046FFF772FA202001250326CDE992
:1018C0000005CDE9024669463846FFF76BF9482026
:1018D000CDE90005CDE9024669464046FFF762F9C9
:1018E00006B0BDE8F081000000100240000C01408D
:1018F000001401400E4810B50C4901604FF4E1316D
:101900004160002181600C22C160C0E90412816144
:10191000C161FFF79FFE002206212520FFF7B0FAE4
:10192000BDE810402520FFF79DBA000000380140B7
:10193000A8000020FEE7FEE710B5FFF73BFA01F034
:101940000FFA012803D0BDE8104001F025B810BD02
:1019500010B590B028216846FEF726FE14210AA88B
:10196000FEF722FE022000900120049010200024A7
:10197000059007946846FFF791FB0F20CDE90A0414
:101980000C940D9400210AA80E94FFF7ABFA10B046
:1019900010BD704708B5044601F0F0F9144D154F1D
:1019A0004FF47A7805EBC4060090B18855F83400FE
:1019B0000122FFF7F3F957F824004FF47A71400839
:1019C0004843B0FBF8F1684600F0FEFEB18855F8D8
:1019D00034000022FFF7E2F957F824004FF47A713F
:1019E00040084843B0FBF8F1684600F0EDFEDCE744
:1019F00060300008180000209CB027A42046FEF7A5
:101A00001CFD82B24FF0FF352B4621462E48FFF7D2
:101A1000DBFE2E4E6F462A466946706901F0D4F807
:101A20000128F8D105222AA16846FEF725FD60B1FC
:101A3000052229A16846FEF71FFD40B1052228A115
:101A40006846FEF719FD20B11BE0002402E00124E6
:101A500000E00224781DFEF7E3FC0346322810D391
:101A600042F2107083420CD81848183040F82430E5
:101A7000621C1DA110A8FEF725FC82B22B4610A9FE
:101A800006E01FA42046FEF7D8FC82B22B46214672
:101A90000D48FFF799FEBEE752656164792E205527
:101AA000736167653A204C4544313A3C6D733E2082
:101AB0004C4544323A3C6D733E204C4544333A3CED
:101AC0006D733E0D0A000000A800002000000020F9
:101AD0004C4544313A0000004C4544323A00000085
:101AE0004C4544333A0000004C4544256420706561
:101AF00072696F64203D20256C75206D730D0A009E
:101B00004552523A20757365204C4544313A3C6D3C
:101B1000733E202835307E3130303030290D0A00B8
:101B200010B5406A0021C185C184FFF75CFC10BD7F
:101B300001680C3151E8002F22F4907241E8002333
:101B4000002BF5D10168143151E8002F22F0010279
:101B500041E80023002BF5D1016B012909D101686F
:101B60000C3151E8002F22F0100241E80023002B35
:101B7000F5D1202180F8421000210163704708B59B
:101B800090F84210222901D0022008BD82684FF44B
:101B900080539A4201D1016921B1816A9A421BD0D6
:101BA0004AB10AE00268816A5268C2F308020A80F8
:101BB000816A891C08E0026972B10268526802F009
:101BC0007F020A70816A491C8162C18D491E090425
:101BD000090CC18503D01BE002685268F1E7016877
:101BE000CA6822F02002CA600168CA6822F48072C2
:101BF000CA6001684A6922F001024A61202180F826
:101C0000421000214163026B012A03D0FFF7A2FDBD
:101C1000002008BD016301680C3151E8002F22F05B
:101C2000100241E80023002BF5D101680A68D206B2
:101C300002D50A6849680091818DFFF7D3FBE7E779
:101C400070B5044600680169E26821F4405111430F
:101C500001612169A0680843616908432168CA6875
:101C600041F20C639A430243CA6020684169A26949
:101C700021F44071114341611E492068884202D11C
:101C8000FFF7D6F901E0FFF7C3F900EBC00101EB64
:101C90000012606864218000B2FBF0F3B3FBF1F343
:101CA0006FF018067343B2FBF0F5B2FBF0F605EBEC
:101CB0008305322303EB0515B5FBF1F5B6FBF1F611
:101CC00005F0F00505EB0615B2FBF0F6B2FBF0F0FF
:101CD000B0FBF1F06FF01802504306EB800003EB0D
:101CE0000010B0FBF1F0216800F00F00284488607C
:101CF00070BD00000038014081628285C2850021EC
:101D00004164222180F84210016921B10168CA684A
:101D100042F48072CA6001684A6942F001024A6175
:101D20000068C16841F02001C160002070472DE9C2
:101D3000F843984617460D460446089E24E0701C5A
:101D400022D0FFF731F8A0EB0800B0421AD8CEB18C
:101D50002068C168490717D5802D15D0402D13D0B4
:101D60000168C94309070FD4016800254068009045
:101D70002046FFF7DDFE0820606484F84050012013
:101D8000BDE8F8830320FBE72068006835EA00001F
:101D900004D00020B842D2D00020F1E70120F9E7BA
:101DA0000148FFF721BB0000A8000020FEE709075B
:101DB000090E002804DB00F1E02080F800147047D1
:101DC00000F00F0000F1E02080F8141D70470000C3
:101DD00070B500281BD00E4DA0F108046168686939
:101DE000014214D02268002A11D18143616000F0C1
:101DF00075FD6068696808446860204600F072FA02
:101E00002869401C2861BDE8704001F075B870BDBC
:101E1000880000201CB5FEF7D5FFFFF799FDFFF7FE
:101E200025FDFFF767FD00224021082000F0CAFDD4
:101E30001A4900234FF480724861091D0320CDE93F
:101E4000000117A1184800F05FFF14480224083071
:101E5000CDE900400023802214A1164800F054FF71
:101E60000E4801230C30CDE90040802212A1114818
:101E700000F04AFF094802231030CDE900408022DB
:101E80000FA10C4800F040FF04490122491C0E48F4
:101E9000FFF752FC00F0F4FCFEE700000000002019
:101EA0005561727452780000F91900084C6564316C
:101EB00000000000951900084C6564320000000025
:101EC0004C65643300000000A80000202DE9F041BB
:101ED0000546002700F002FD264E306808B900F0E4
:101EE0005BF9706905420CD15DB10835680704D013
:101EF00005F00700C0F10800054415B1706885427F
:101F000002D900F0F9FF2FE01A48183001460C689A
:101F100001E020460C466168A94202D221680029EE
:101F2000F7D131688C42ECD00768216801606068A5
:101F30000837411B102904D960194160656000F021
:101F4000D1F961687068401A7060B268904200D23E
:101F5000B060706901430020C4E90001F068401CD2
:101F6000F06000F0C9FF0FB900F099FB3846BDE8FA
:101F7000F0810000880000202DE9F041134C0F464D
:101F80000546E6682068001D00F076FB681C07D156
:101F900037B12168BDE8F0410D48091D00F0A8BB2C
:101FA00020683544B5424560216805D2A06BBDE884
:101FB000F041091D00F084BB606B091D00F080FB3F
:101FC000A06A854200D2A562BDE8F08134000020FD
:101FD000E00500202DE9F041054600F095FB2C4C72
:101FE000A068401CA06020682A4F10B1606930B31F
:101FF0002BE02560A068012827D1002606EB86008B
:1020000007EB800000F04EFB761C382EF6D32248FA
:1020100000F048FB2048143000F044FB1E482830F4
:1020200000F040FB1C483C3000F03CFB1A485030AC
:1020300000F038FB184860631430A06305E02068A6
:10204000E96AC06A884200D82560606A401C606204
:10205000E86A2169884200D9206100EB800007EB23
:102060008000291D00F044FB00F05CFB6069002843
:102070000CD02068E96AC06A884207D207494FF04D
:1020800080500860BFF34F8FBFF36F8FBDE8F081C2
:1020900034000020300100209005002004ED00E015
:1020A00010B500F031FB0E4C2068A0B90D4800F0CF
:1020B000F9FA0C48143000F0F5FA0A48E0601430E0
:1020C0002061002210210A2000F07CFC206010B169
:1020D00005A100F043FBBDE8104000F023BB000069
:1020E0007000002034060020546D72510000000082
:1020F00030B4026C0B46002A0BD0C1681144C16099
:102100008468A14201D30168C16030BC1846FEF763
:10211000FEB930BC70472DE9F041856B1746044687
:102120000026026C82B1C7B1E068FEF7F0F9E16801
:10213000206C091AE1602268914202D2A168081A53
:10214000E060022F16D017E02068A8B9A06800F060
:102150007BFE06460020A0600EE06068FEF7D7F91F
:10216000216C606808446060A168884204D32068DC
:10217000606001E005B16D1E6D1CA5633046BDE8D1
:10218000F08110B50446006BFFF722FE2046BDE843
:102190001040FFF71DBE000010484FF420514207C9
:1021A00006D0C01D0D4920F00700411AC1F520518D
:1021B0000B4A00230144C2E900030839183A21F010
:1021C000070111604B600B600B1AC0E900139360AC
:1021D0004FF0004053605061704700005C060020E3
:1021E000A0000020144E154CA6F29C474FF08058DA
:1021F000DFF84C9012E000BF00F086FAF068C56886
:10220000281D00F039FAA068401EA0606068401EDA
:10221000606000F087FA2846FFF7B3FF6068002887
:10222000EAD138680128F9D9C9F80080BFF34F8F87
:10223000BFF36F8FF2E70000CC05002034000020D0
:1022400004ED00E02DE9F05F0F46DDE90B84154653
:10225000834691009A460A9EA522206BFEF79CF9C0
:102260006FF0030101EB8501206B0025084420F08D
:10227000070967B100202218395C82F83410395CF4
:1022800011B1401C1028F6D384F8435001E084F8C3
:102290003450382E00D33726E662C4E91165201D7C
:1022A00000F00BFA04F1180000F007FA2461C6F1FF
:1022B00038006462A061002004EB8001401CCD6402
:1022C0000528F9D3256684F8645052465946484695
:1022D00000F0C0F92060B8F1000F01D0C8F800404C
:1022E000BDE8F09F30B5114900E011460A6882420E
:1022F000FBD34B685C18844203D1406818444860A3
:10230000084643681C18944209D1084C183C2468BC
:10231000A24209D052681A4442600A6812680260F8
:10232000814200D0086030BD0460F9E7A0000020C1
:1023300070B5002441600B4D0061914206D8D11A5E
:102340008269914206D2011D286907E09A4203D2B0
:10235000994201D3012403E0011DE86800F0B0F9BF
:10236000204670BD7000002010B5044600F0CCF986
:10237000A06B28B15FF0000400F0D4F9204610BD36
:102380000124F9E730B589B0344D5DE004980028A8
:1023900006DADDE90601059A90470498002853DB28
:1023A000069C606910B1201D00F066F903A800F0DA
:1023B000BFF8024604980A2846D2DFE800F0050577
:1023C00005252B390505252B94F8240040F0010044
:1023D00084F824000598A169034601442046FFF7CC
:1023E000A7FF20B3216A2046884794F824004007BD
:1023F0002AD5002000900598A169002342181946AB
:10240000204600F0EFFD1FE014F8240F20F001003B
:10241000207019E094F82400134640F0010084F87D
:1024200024000598A06181182046FFF781FF0BE08A
:1024300094F82400810703D42046FFF7C9FC03E089
:1024400020F0010084F82400002204A9286800F08C
:10245000BBFB00289AD109B030BD000070000020FD
:102460002DE9FC410F46054600F038FA01A800F0BE
:102470005FF80446019818B100F03EFDBDE8FC810C
:10248000214EAFB13069006890B30027291B3A464E
:10249000306800F077F900F02FFD0028EED11B49DD
:1024A0004FF080500860BFF34F8FBFF36F8FE5E7A9
:1024B000A542EBD800F020FDF0682746C068C4684C
:1024C000201D00F0D9F894F82400410711D5A06927
:1024D0002B4641193A462046FFF72AFF68B10020F3
:1024E0000346014600902A46204600F07BFD04E0AA
:1024F00007E020F0010084F82400216A2046884784
:10250000BCE70127C2E700007000002004ED00E0F6
:102510000648416B096829B1416BC968C9684968B7
:10252000816270474FF0FF31FAE70000340000206D
:1025300070B5054600F022FC064E0446B0688442A1
:1025400003D200F009F8012000E0002028602046B6
:10255000B46070BD70000020F8B5154D1FE0C06874
:10256000C4680668201D00F087F8216A2046884765
:1025700094F82400400712D5A0693044B04206D92F
:1025800024616060211DE86800F09AF807E00020EF
:102590000346014600903246204600F023FDE868DD
:1025A00001680029DBD12969C5E90310F8BD0000E5
:1025B00070000020502080F31188BFF34F8FBFF3CD
:1025C0006F8FFEE7074CE068016841B1C0680021E9
:1025D000D0F80000FFF744FFFFF7D4FEF3E7012136
:1025E0000020F7E7700000202DE9F041044600F0DC
:1025F0008BF894F9455004F1240609E0606A48B16B
:10260000304600F04BFC08B100F010F96D1E6DB2C1
:10261000002DF3DC4FF0FF3684F8456000F082F8BF
:1026200000F072F894F9445004F1100709E02069B1
:1026300048B1384600F032FC08B100F0F7F86D1EE2
:102640006DB2002DF3DC84F84460BDE8F04100F089
:1026500069B8000010B5031F4FF080741C601B1F89
:1026600021F001011960191F024B0B601439403829
:102670000A6010BDB5250008D0E9013201699A60F1
:10268000D0E901235A604A68824201D182684A60D7
:10269000002202610868401E086008687047FEE773
:1026A000FEE7704700F108014FF0FF32C0E9011268
:1026B000C160016100210160704700210161704724
:1026C00030B50B685A1C02D000F1080202E0026922
:1026D00004E02246546825689D42FAD953684B604D
:1026E00099608A60516008610168491C016030BDD1
:1026F00042684A6093688B60936859609160086192
:102700000168491C01607047502080F31188BFF3B5
:102710004F8FBFF36F8F02480168491C01607047FB
:102720008400002003490868401E086001D180F33E
:1027300011887047840000204FF0E02000210161E3
:10274000816105494FF47A720968B1FBF2F1491EC3
:1027500041610721016170473000002010B5084B2E
:10276000002200BF53F832401CB1521C082AF9D392
:1027700010BD43F8321003EBC201486010BD0000E9
:10278000F405002070B515460E460446FFF7BCFF61
:1027900094F944100020491C01D184F8440094F9B4
:1027A0004510491C01D184F84500FFF7BBFFA06B21
:1027B00028B92A46314604F1240000F04DF820469D
:1027C000BDE87040FFF710BF70B50D46044600F03D
:1027D00085F81048C26823685919934204D98B427E
:1027E0000AD9914202D807E08B42FAD9881A2160AF
:1027F0000021FFF7C1FB00E0216000F07DFB002815
:1028000007D105494FF080500860BFF34F8FBFF3E9
:102810006F8F70BD3400002004ED00E002490A6AA9
:102820000260C968416070473400002001490120FE
:10283000C86170473400002010B50C46054909688E
:102840001831FFF73DFF2046BDE810400121FFF79A
:1028500093BB00003400002070B50D4607491446B4
:1028600009681831FFF744FF0CB14FF0FF352146DE
:102870002846BDE87040FFF77FBB00003400002011
:102880001CB512480024CDE900402346802210A147
:10289000114800F039FA012816D100F085FB012813
:1028A00012D1502080F31188BFF34F8FBFF36F8F89
:1028B00006484FF0FF312C38816201214161C4602C
:1028C000BDE81C4000F050B81CBD000060000020B6
:1028D00049444C4500000000E52100080248016B16
:1028E000491C0163704700003400002010B51C4CE7
:1028F000206B10B10120E06110BD0020E061206874
:102900004FF0A531006B02688A4208D142688A42C2
:1029100005D182688A4202D1C068884204D0216809
:1029200020683431FFF7BCFE21690E4800E0491EE3
:1029300001EB810250F82220002AF8D001EB81023D
:1029400000EB820000F108034268526842609A423C
:1029500001D152684260D0682060216110BD000042
:102960003400002030010020094810B5016841F40E
:1029700070010160016841F070410160FFF7DCFE09
:10298000044900200860FDF743FC002010BD000052
:1029900020ED00E08400002010B5502080F3118865
:1029A000BFF34F8FBFF36F8F00F0EEF918B10449FA
:1029B0004FF080500860002080F3118810BD0000A7
:1029C00004ED00E070B50E46054670434830FFF751
:1029D0007DFA040009D004F1480120463EB10160AF
:1029E000C0E90F56012100F005F8204670BD0060D7
:1029F000F6E7000070B50D460446FFF785FED4E902
:102A00000F12206801FB0200A0600020A063206874
:102A100060600146E06B401E00FB0210E0604FF07A
:102A2000FF3084F8440084F8450004F110004DB1F3
:102A3000FFF738FE04F12400FFF734FEFFF772FEC3
:102A4000012070BD21690029F8D000F027FA002884
:102A5000F4D004494FF080500860BFF34F8FBFF3AC
:102A60006F8FEBE704ED00E02DE9FF4700273B4EB9
:102A700082B099468A460446B8464FF0805500BF5A
:102A8000FFF742FEA06BE16B884206D3B9F1020F5B
:102A900003D00498C0B1D7B11DE04A465146204644
:102AA000FFF739FB616A19B104F1240000F0F6F96F
:102AB00020B13560BFF34F8FBFF36F8FFFF732FE4A
:102AC000012006B0BDE8F087FFF72CFE21E0684644
:102AD000FFF7A4FE0127FFF725FEFFF7FFFEFFF734
:102AE00013FE94F94400401C01D184F8448094F909
:102AF0004500401C01D184F84580FFF713FE04A96E
:102B0000684600F0D9F830B12046FFF76DFD00F0BF
:102B1000F3F90020D5E7FFF7F7FDA06BE16B8842E2
:102B200013D1FFF7FFFD04F110000499FFF784FEB5
:102B30002046FFF759FD00F0DFF90028A0D13560ED
:102B4000BFF34F8FBFF36F8F9AE7FFF7EBFD204680
:102B5000FFF74AFD00F0D0F992E7000004ED00E035
:102B60002DE9F041044617465020EFF3118680F31B
:102B70001188BFF34F8FBFF36F8FA26BE06B824260
:102B800006D3022B04D0002086F31188BDE8F08123
:102B900094F94550A06B1A462046FFF7BCFA681C12
:102BA00004D06D1C84F845500120EDE7606A0028D0
:102BB000FAD004F1240000F071F90028F4D0002FBD
:102BC000F2D001203860EFE72DE9F7470026DFF863
:102BD000E48083B08A460446B1464FF0805700BF78
:102BE000FFF792FDA56BC5B151462046FFF780FA6D
:102BF0006D1EA563206950B104F1100000F04EF97C
:102C000028B1C8F80070BFF34F8FBFF36F8FFFF785
:102C100089FD012006B0BDE8F087059808B11EB116
:102C200006E0FFF77FFD27E06846FFF7F7FD012686
:102C3000FFF778FDFFF752FEFFF766FD94F94400B9
:102C4000401C01D184F8449094F94500401C01D106
:102C500084F84590FFF766FD05A9684600F02CF85A
:102C6000002820460AD0FFF7BFFC00F045F92046B7
:102C7000FFF77AFB0028B3D00020CBE7FFF774FB07
:102C800090B104F124000599FFF7D6FD2046FFF727
:102C9000ABFC00F031F90028A2D1C8F80070BFF3F6
:102CA0004F8FBFF36F8F9BE72046FFF79DFC00F02F
:102CB00023F995E704ED00E02DE9F0410C460546C7
:102CC000FFF722FD0F4BDA686E682168901B4F1CDE
:102CD00007D02F681B6A9F4209D0964207D801246B
:102CE00000E00024FFF71EFD2046BDE8F081814290
:102CF00005D9081A20602846FFF790FDF1E700206B
:102D00002060ECE7340000202DE9FF5F8346DDE919
:102D10000E87994616468A469000FFF7D7F80500B9
:102D20001AD06820FFF7D2F8040012D025630021E2
:102D3000CDE90241CDE900874B463246514658461F
:102D4000FFF780FA2046FFF745F9012004B0BDE8FF
:102D5000F09F2846FFF73CF84FF0FF30F6E7000001
:102D60000548416919B1006B18B100207047012076
:102D70007047022070470000340000200148C068FE
:102D800070470000340000202DE9F0412C4C002653
:102D9000206B38B1A069401CA061FFF782FC30466F
:102DA000BDE8F081E5686D1CE56008D1606BA16B42
:102DB0006163A063206A401C2062FFF7A9FBA06A40
:102DC000DFF88080854209D3606B006890B1606B4A
:102DD000C068C768786885420FD2A0622068C06A60
:102DE00000EB800158F82100012800D90126A069D4
:102DF000F8B120E04FF0FF30EFE7381DFFF73CFC63
:102E0000B86A18B107F11800FFF736FCF86A2169B3
:102E1000884200D9206100EB800108EB8100391D58
:102E2000FFF766FCF86A2168C96A8842CCD301269C
:102E3000CAE7FFF736FCE0690028B0D00126AEE70C
:102E4000340000203001002010B504004FF00001D4
:102E50001ED0A06C401EA064636CE26A9A4217D038
:102E6000B0B9201DFFF708FC606CE062C0F13800CB
:102E70000849A061E06A0A69904200D908610649E0
:102E800000EB800001EB8000211DFFF731FC0121E8
:102E9000084610BD340000203001002070B5C06825
:102EA000C46804F118000646FFF7E6FB0F4D286BD7
:102EB00010B131460E480DE0201DFFF7DDFBE06A42
:102EC0002969884200D928610A4900EB800001EB9A
:102ED0008000211DFFF70CFCE06A2968C96A88425E
:102EE00002D90120E86170BD002070BD34000020CF
:102EF000B8050020300100202DE9F04700242746C6
:102F0000FFF702FC254D286B401E2863286BE0BBB1
:102F1000A968234E0120C1B3A6F5916980463068A7
:102F2000E0B1F068C46804F11800FFF7A5FB201DAC
:102F3000FFF7A2FBE06A2969884200D9286100EB0B
:102F4000800109EB8100211DFFF7D2FBE06A2968AF
:102F5000C96A8842E3D3C5F81C80E0E70CB1FFF7EB
:102F6000D7FAAC6944B14646FFF70EFF00B1EE61F7
:102F7000641EF9D10020A861E86930B10949012730
:102F800038070860BFF34F8F00E001E0BFF36F8F99
:102F9000FFF7C8FB3846BDE8F0870000340000208A
:102FA000B805002004ED00E01CB50024FFF778F818
:102FB0000848006858B107490220091DCDE9000101
:102FC000C201002304A10648FFF79EFE04462046E6
:102FD0001CBD000070000020546D72205376630009
:102FE000C52500082DE9FF41114C1F460346266800
:102FF00000200A9D002E0ED08DE80E0006290FDA63
:10300000FFF7AEFE02284FF0000307D0002269460A
:103010002068FFF729FD04B0BDE8F0812A46F6E7F5
:1030200000233A4669463046FFF79AFDF3E7000071
:103030007000002010B500290AD00878002807D0B9
:1030400005487844FDF7AAFC002801D0002010BDF7
:103050000248784410BD0000820000007A000000A1
:10306000000C01402000000000140140400000005E
:1030700000140140080000000102020304050607D5
:1030800008090A0B0C0D0E0F1010000000000000C4
:103090000000010203040607080900000000010205
:1030A00003040000D431000800000020A800000044
:1030B0006C0100087C320008A800002018340000D1
:1030C000880100081001000043000000F8FFFFFF26
:1030D000004040404040404040404141414141402B
:1030E00040404040404040404040404040404040E0
:1030F000400502020202020202020202020202026F
:103100000220202020202020202020020202020273
:1031100002029090909090901010101010101010CB
:1031200010101010101010101010101002020202D7
:10313000020288888888888808080808080808081B
:103140000808080808080808080808080202020217
:10315000400000000000000000000000000000002F
:10316000000000000000000000000000000000005F
:10317000000000000000000000000000000000004F
:10318000000000000000000000000000000000003F
:10319000000000000000000000000000000000002F
:1031A000000000000000000000000000000000001F
:1031B000000000000000000000000000000000000F
:1031C00000000000000000000000000000000000FF
:1031D00000000000000000000000000000000000EF
:1031E000000000000000000000000000E8030000F4
:1031F000E8030000E80300000100000010000000E8
:103200000000000000127A00000000000000000032
:1032100000000000000000000000000000000000AE
:10322000000000000000000000000000000000009E
:10323000000000000000000000000000000000008E
:10324000000000000000000000000000000000007E
:103250000000000000000000AAAAAAAA00000000C6
:10326000000000000000000000000000000000005E
:0C32700000000000000000000000000052
:0400000508000131BD
:00000001FF
